:1000000000000110E500000075010000590100002A
:100010007501000075010000750100007501000008
:100020007501000075010000750100000104000069
:100030007501000075010000130400002504000094
:1000400019290000192900001929000019290000A8
:100050001929000019290000192900001929000098
:100060001929000019290000192900001929000088
:100070001929000019290000192900001929000078
:100080001929000019290000192900001929000068
:100090001929000019290000192900001929000058
:1000A0001929000019290000192900001929000048
:1000B0001929000019290000192900001929000038
:1000C0001929000019290000192900001929000028
:1000D0001929000019290000192900001929000018
:1000E0001929000008B500F057F900F073F900F085
:1000F0007BF900F09BF800F095F803F085FF03F022
:10010000BDFE00F0BFF840B141F28734002503F096
:10011000A7FF8D4208BF8442F9D203F086FE18B9CA
:100120000849094805F0CAFE0649084805F0C6FE18
:1001300003F0C0FF064B07481B68D96804F042FE75
:10014000FEE700BF34A4000040A400006DA400003E
:100150006401001085A400001EF0040F0CBFEFF333
:100160000880EFF309808169004A1047D10100003F
:100170007047FFFF38B50F4C0F4B10481D782368B0
:10018000D96804F01FFE23680D49D8682A4604F098
:10019000A1FD0F2D236807D80A4A0B4952F82520E4
:1001A000D86804F097FDFEE7D968084804F00AFE15
:1001B000F9E700BF6401001004ED00E0C0A40000F6
:1001C000DAA40000CCA5000014A5000032A50000B0
:1001D00010B5044600F04AF8236883606368C36082
:1001E000A3680361E3684361236943626369013B78
:1001F000C361A3698361E3690362BFF34F8F05495C
:10020000054BCA6802F4E0621343CB60BFF34F8F23
:1002100000BFFDE700ED00E00400FA05004870476C
:1002200000D8B8050048704700D8B8050E4B072223
:10023000C3F88420AA210122C3F88020C3F88C10BF
:100240005521C3F88C10C3F8A821D3F88820520593
:10025000FBD51A6822F4704242F480421A6040F2E0
:100260000112C3F80421704700C00F400248034A3E
:10027000034BC0E90023704700000020EFBEADDE55
:100280001041522138B5224C224B22689A423DD16E
:100290006268214B9A4239D1204D21482B68D96898
:1002A00004F090FD2B68A2691E49D86804F012FD85
:1002B0002B68E2691C49D86804F00CFD2B68226A9F
:1002C0001A49D86804F006FD2B68A2681849D86856
:1002D00004F000FD2B68E2681649D86804F0FAFCC7
:1002E0002B6822691449D86804F0F4FC2B68626911
:1002F0001249D86804F0EEFC2B681148D96804F064
:1003000061FD01200023C4E9003338BD0020F9E776
:1003100000000020EFBEADDE10415221640100104C
:100320000CA600005FA600006EA600007DA60000DF
:100330008CA600009BA60000AAA60000B9A600009B
:10034000C8A600000E4A136810B50E4C1918A14239
:10035000116002D30C4CA1420BD313600B4A0C4921
:1003600013681844884208D30A49884205D21060AD
:1003700001E0002BF2D0184610BD0023FBE700BFC0
:100380000000001028000020008000200400001061
:10039000FC12001000000110094A0A4B0A498B4266
:1003A00005D30A4B0A4A0021934205D3704712F83D
:1003B000010B03F8010BF2E703F8011BF4E700BFA0
:1003C00034B800000000001038030010380300109B
:1003D000FC120010034AD2F8883043F47003C2F8CC
:1003E0008830704700ED00E0044800232021C21847
:1003F0000133292B82F80013F9D1704700E100E0A6
:1004000008B501F0F3FC00F06BF8BDE8084001F01E
:1004100001BD08B501F0EAFC00F0AAF8BDE808400B
:1004200001F0F8BC08B501F0E1FC00F0D3F8BDE83C
:10043000084001F0EFBCFFFF08480068006880F347
:1004400008884FF0000080F3148862B661B6BFF3ED
:100450004F8FBFF36F8F00DF00BF000008ED00E09B
:10046000DFF80C00016841F4700101607047000082
:1004700088ED00E007B5002301930B4B1B680133A7
:1004800004D00A49EF2003F071FEFEE74FF0180395
:1004900083F31188BFF36F8FBFF34F8F019B002B46
:1004A000FCD003B05DF804FB400300109CA70000E3
:1004B0004FF0807340F8043C074B40F80C3C21F0AF
:1004C00001016FF0020340F8081C40F8202C40F8AE
:1004D000243C4438704700BF75040000FFFFFFFF55
:1004E000074B19680868B0E8F04F80F30988BFF33C
:1004F0006F8F4FF0000080F311887047AFF30080DA
:100500004403001008B54FF0180383F31188BFF3BC
:100510006F8FBFF34F8F094A13680133012B1360AC
:100520000AD1074B1B6813F0FF0F05D0054940F2B5
:10053000AB1003F01BFEFEE708BD00BF4003001038
:1005400004ED00E0B6A70000074A08B513682BB910
:1005500006494FF4D97003F009FEFEE7013B136032
:100560000BB983F3118808BD40030010EBA700000E
:10057000EFF30980BFF36F8F154B1A681EF0100F51
:1005800008BF20ED108A20E9F04F10602DE9090026
:100590004FF0180080F31188BFF34F8FBFF36F8FB8
:1005A00001F020F94FF0000080F3118809BC1968B0
:1005B0000868B0E8F04F1EF0100F08BFB0EC108ACA
:1005C00080F30988BFF36F8F704700BFAFF30080DF
:1005D0004403001008B54FF0180383F31188BFF3EC
:1005E0006F8FBFF34F8F00F0D1FF18B1034B4FF067
:1005F00080521A60002383F3118808BD04ED00E0E7
:1006000010B5084A084C002323601360FFF706FE6C
:100610004FF47A73B0FBF3F0044B013818600723F2
:10062000236010BD18E000E010E000E014E000E0FE
:10063000334B344A13B51968914205D132494FF40E
:100640009A7003F093FDFEE71A68304B9A4205D189
:100650002F4940F2351003F089FDFEE72D4B1A7843
:10066000D2B20192FF221A701B782B4ADBB28DF8AE
:1006700003309DF8033003F018031370274A072353
:10068000136000219DF80300000603F1FF3409D434
:1006900011B1022B13600ED0214940F25D1003F01E
:1006A00065FDFEE79DF803305B00DBB28DF803309B
:1006B00001212346E6E74FF400731360019B154ABE
:1006C000DBB21370174B1A6842F478021A601A688A
:1006D00042F078421A60FFF793FF134B00241C602E
:1006E000FFF7BEFE114A136843F040431360FFF763
:1006F000A3FE01F077F8FFF7BDFE204602B010BD63
:1007000000ED00E071C20F4169A8000070C20F4106
:100710008CA8000000E400E0380300103C03001047
:10072000AFA8000020ED00E04003001034EF00E02F
:1007300008B5EFF305830F2B0BD90D4A9B5C0D4ACF
:1007400012789A4205D90C4940F2FE2003F00EFDC2
:10075000FEE70A4B0A4A1B68126803F4E0639342FF
:1007600005D9084940F20E3003F000FDFEE708BD50
:10077000F0E300E038030010FDA700000CED00E0FE
:100780003C03001027A8000010B5044600F0F6FE58
:10079000204604F035FB044600F08AFF0CB903F054
:1007A000D5FC204610BD10B5044640B100F0E6FE71
:1007B000204604F02DFBBDE8104000F079BF10BDCD
:1007C00000F108034FF0FF324360C0E902230361E8
:1007D00000230360704700230361704743684B6048
:1007E0009A688A609A685160996003680861013369
:1007F000036070470A68531C30B50AD103695A6810
:100800004A6091608B60596003680861013303603E
:1008100030BD00F108035C6825689542EFD8234697
:10082000F9E7D0E9011203698A6051605968814291
:1008300008BF5A60002202611A68013A1A601868FB
:10084000704710B50446FFF75DFEA46BFFF77CFE12
:10085000B4FA84F0400910BDF8B51546026C866BF9
:10086000044652B9076847BB806801F0D7F9A76012
:1008700005460136A6632846F8BD65B9406804F010
:10088000CFFA6368226C1344A26863609342F0D38A
:1008900023686360EDE7C06804F0C2FA236CE26885
:1008A00021685B421A448A42E2603EBFA2689B18FC
:1008B000E360022D01D116B1013E0025D9E735468E
:1008C000D7E7034610B41A6C084662B1D9689C6831
:1008D0001144A142D96024BF1968D960D9685DF874
:1008E000044B04F09DBA5DF8044B704770B50446A4
:1008F000FFF708FE94F8455004F124066DB2002D70
:1009000014DCFF2384F84530FFF71EFEFFF7FAFDE5
:1009100094F8445004F110066DB2002D12DCFF2350
:1009200084F84430BDE87040FFF70EBE636A002BC8
:10093000E7D0304600F0CCFF08B101F04FF8013DA0
:100940006DB2DCE72369002BE9D0304600F0C0FF30
:1009500008B101F043F8013D6DB2DEE738B50D4650
:10096000044628B91A4940F2031003F0FFFBFEE7E2
:10097000FFF7C8FDD4E90F30226862604343D11805
:100980001B1A1344A160E3600021FF23A16384F8D4
:10099000443084F8453095B9236963B104F11000FF
:1009A00000F096FF38B10B4B4FF080521A60BFF346
:1009B0004F8FBFF36F8FFFF7C7FD012038BD04F1E4
:1009C0001000FFF7FDFE04F12400FFF7F9FEF2E747
:1009D000B5A9000004ED00E013B51C4628B91E4976
:1009E0004FF49D7003F0C2FBFEE72BB91B494FF497
:1009F0009F7003F0BBFBFEE732B161B918494FF4B9
:100A0000A17003F0B3FBFEE729B1164940F2431091
:100A100003F0ACFBFEE750230193019B502B05D064
:100A2000114940F24B1003F0A1FBFEE7002908BF7B
:100A30002246019B22600123C4E90F0184F846305D
:100A400019462046FFF78AFF9DF8103084F84C3095
:100A5000204602B010BD00BFF2A8000014A900009B
:100A60002AA9000062A900009AA90000F8B50D4665
:100A70001746064628B90F494FF4BB7003F076FBC2
:100A8000FEE748435030FFF77FFE044670B1002375
:100A900080F8463065B100F150032360C4E90F656A
:100AA00001212046FFF75AFF84F84C702046F8BD1C
:100AB0000346F2E7F2A800002DE9FF4788460192BD
:100AC0001F46044628B94E4940F2F12003F04EFB80
:100AD000FEE739B9036C2BB14A4940F2F22003F02A
:100AE00045FBFEE7022F08D1E36B012B05D04649F9
:100AF00040F2F32003F03AFBFEE701F02DF8064642
:100B000038B9019B33B1414940F2F62003F02EFB86
:100B1000FEE700264FF00009DFF8F4A037E0019D62
:100B20001DB9FFF711FD002050E016B902A800F032
:100B30000FFFFFF709FD00F021FDFFF7E3FC94F83C
:100B40004430FF2B08BF84F8449094F84530FF2BC5
:100B500008BF84F84590FFF7F7FC01A902A800F050
:100B600003FF002846D1FFF7CDFCA26BE36B9A424E
:100B70002FD1FFF7E9FC019904F1100000F090FE7D
:100B80002046FFF7B3FE00F093FD50B30126FFF7B8
:100B9000B9FCA26BE36B9A4201D3022FBFD13A4654
:100BA00041462046FFF758FE636A1BB104F124005A
:100BB00000F08EFE38B1164B4FF080521A60BFF332
:100BC0004F8FBFF36F8FFFF7BFFC012004B0BDE86C
:100BD000F087FFF7B9FC2046FFF788FE00F068FDBC
:100BE000D4E74FF08053CAF80030BFF34F8FBFF304
:100BF0006F8FCBE72046FFF779FE00F059FD92E7B3
:100C0000B5A90000BDA900000DAA000054AA00006B
:100C100004ED00E013B5002200900B4601201146C0
:100C2000FFF7DAFE044638B1002383600360C36037
:100C30001A461946FFF740FF204602B010BD10B516
:100C4000024600210120FFF711FF044638B10023BE
:100C500083600360C3601A461946FFF72DFF2046E4
:100C600010BDFFFF2DE9F843894690461F46044614
:100C700028B9284940F2C33003F078FAFEE739B9C1
:100C8000036C2BB124494FF4717003F06FFAFEE747
:100C9000022F08D1E36B012B05D0204940F2C5306B
:100CA00003F064FAFEE7FFF743FDEFF311864FF020
:100CB000180383F31188BFF36F8FBFF34F8FA26BBD
:100CC000E36B9A4201D3022F22D194F845503A4661
:100CD0006DB249462046FFF7BFFD6B1C13D1636A16
:100CE0000BB901200BE004F1240000F0F1FD002815
:100CF000F7D0B8F1000FF4D00120C8F8000086F357
:100D00001188BDE8F88301356DB284F84550E8E7F5
:100D10000020F4E7B5A90000BDA900000DAA00005D
:100D200070B50D46044628B923494FF48C6003F092
:100D30001DFAFEE7036C2BB1204940F2644003F03A
:100D400015FAFEE703683BB983682BB11C4940F2F2
:100D5000694003F00BFAFEE7FFF7EAFCEFF31186B8
:100D60004FF0180383F31188BFF36F8FBFF34F8FDA
:100D7000A26BE36B93421CD994F8453001325BB20D
:100D8000A2635A1C10D1636A0BB9012009E004F177
:100D9000240000F09DFD0028F7D0002DF5D00120A3
:100DA000286086F3118870BD01335BB284F845304A
:100DB000EBE70020F5E700BFB5A90000AAAA0000F4
:100DC000C3AA00002DE9F04385B00F460192044606
:100DD00028B947494FF4A06003F0C8F9FEE739B9D4
:100DE000036C2BB1434940F2045003F0BFF9FEE716
:100DF00000F0B2FE064638B9019B33B13E4940F2DD
:100E0000095003F0B3F9FEE700264FF00008DFF8C1
:100E1000EC903BE0019D1DB9FFF796FB002052E0EE
:100E200016B902A800F094FDFFF78EFB00F0A6FBB8
:100E3000FFF768FB94F84430FF2B08BF84F8448028
:100E400094F84530FF2B08BF84F84580FFF77CFB02
:100E500001A902A800F088FD00283DD12046FFF737
:100E6000F0FC98B3019904F1240000F019FD20462C
:100E7000FFF73CFD00F01CFC38B94FF08053C9F877
:100E80000030BFF34F8FBFF36F8F0126FFF73AFBA0
:100E9000A56B002DBED039462046013DFFF711FD60
:100EA000A563236963B104F1100000F011FD38B1AE
:100EB000124B4FF080521A60BFF34F8FBFF36F8F0A
:100EC000FFF742FB012005B0BDE8F0832046FFF7A5
:100ED0000DFD00F0EDFBD8E72046FFF707FD00F021
:100EE000E7FB2046FFF7ADFC0028CED096E700BF19
:100EF0002AAB000036AB000054AA000004ED00E06D
:100F00002DE9FF410446019128B9584940F291501A
:100F100003F02CF9FEE7056C2DB1554940F29550D0
:100F200003F024F9FEE700F017FE064638B9019BEE
:100F300053B1504940F29A5003F018F9FEE72E469B
:100F40000027DFF838814EE00546F9E7019B4BB9F1
:100F50002DB1494940F2E15003F008F9FEE7FFF7EF
:100F6000F3FA5EE016B902A800F0F2FCFFF7ECFA23
:100F700000F004FBFFF7C6FA94F84430FF2B08BFDB
:100F800084F8447094F84530FF2B08BF84F845700E
:100F9000FFF7DAFA01A902A800F0E6FC00284AD11E
:100FA0002046FFF74EFC00283FD023683BB9FFF7EF
:100FB000A9FAA06800F0E0FD0546FFF7C5FA01991F
:100FC00004F1240000F06CFC2046FFF78FFC00F0D9
:100FD0006FFB38B94FF08053C8F80030BFF34F8F24
:100FE000BFF36F8F0126FFF78DFAA36B002BADD0F7
:100FF000013BA363236813B900F0B6FEA060236928
:1010000063B104F1100000F063FC38B11B4B4FF0EA
:1010100080521A60BFF34F8FBFF36F8FFFF794FAC0
:101020000125284604B0BDE8F0812046FFF75EFCAC
:1010300000F03EFBD6E72046FFF758FC00F038FBF7
:101040002046FFF7FEFB0028CCD0002DE9D0FFF7AB
:1010500059FA616A19B1236B1968C1F10A01A068D4
:1010600000F02AFE0025FFF76FFADAE72AAB00004E
:10107000AAAA000054AA0000D4AB000004ED00E0CE
:101080002DE9F84389469046054628B9214940F2A2
:10109000FB6003F06BF8FEE739B9036C2BB11E4916
:1010A00040F2FC6003F062F8FEE7FFF741FBEFF36C
:1010B00011874FF0180383F31188BFF36F8FBFF3CD
:1010C0004F8FAC6B1CB395F84460494676B2284606
:1010D000FFF7F7FB013C731CAC6313D12B690BB911
:1010E00001200BE005F1100000F0F2FB0028F7D022
:1010F000B8F1000FF4D00120C8F8000087F3118880
:10110000BDE8F883013676B285F84460E8E720460A
:10111000F4E700BFB5A9000089AB000008B528B905
:10112000064940F2B77003F021F8FEE790F8463028
:101130001BB9BDE80840FFF736BB08BDB5A90000E4
:1011400043685B68436000F10802934204BFC368D0
:101150004360436830B5DC6800255B689A4208BF8D
:101160005368D9688C420D65F7D1436030BDFFFFED
:101170002DE9F0410446FFF7C5F92D4B2D4D1A68B6
:101180002D4F01321A602E68002E46D12C601B684C
:10119000012B1CD1B84640460136FFF711FB0A2E41
:1011A00008F11408F7D1DFF8B880244E4046FFF765
:1011B00007FB3046FFF704FB2148FFF701FB2148FE
:1011C000FFF7FEFA204BC3F80080204B1E60204A38
:1011D00020491368086801331360E26A236401231D
:1011E0009340034314200B6000FB0270211DFFF7A6
:1011F000F5FAFFF7A9F9184B1B6863B12B68DA6A97
:10120000E36A9A4207D2154B4FF080521A60BFF33F
:101210004F8FBFF36F8FBDE8F0810F4B1B68002B22
:10122000D5D12B68DA6AE36A9A4298BF2C60CEE780
:101230001C0400104403001050030010440400106C
:10124000640400107C040010480300104C030010DC
:10125000280400102C0400107804001004ED00E0B5
:101260003004001008B5074C074D4FF08056236836
:10127000012B04D92E60BFF34F8FBFF36F8F02F0A5
:101280006DFFF4E75003001004ED00E0064A136818
:101290001968064B19B94FF0FF321A60704712688F
:1012A000D268D2685268F8E7480300105C04001066
:1012B0002DE9F047DDE909644FEA82094A4607460D
:1012C0000D46206BA521984603F0D2FD236BA9F1B2
:1012D0000409994429F007099DB36B1E04F13402F7
:1012E0000B3513F8011F02F8011B09B1AB42F8D10D
:1012F000002384F83F30089D092D28BF09254FF0B1
:10130000000AE562A564201DC4F84CA0FFF763FA4B
:10131000C5F10A0504F11800FFF75DFAC4F854A0FE
:101320002461A5616462C4F850A084F858A04246C4
:1013300039464846FFF7BCF8206006B13460BDE886
:10134000F08784F83450D6E7F8B51B4B1B4E1C6869
:101350000546306804300F46FFF763FA334640B95C
:101360003168174EC96A32680120884022EA0002BB
:1013700032606A1C07D137B1196812480431BDE8E0
:10138000F840FFF72BBA1A686419546007D30E4A65
:1013900010681968BDE8F8400431FFF72BBA0B4A12
:1013A000106819680431FFF725FA094B1A68A24240
:1013B00088BF1C60F8BD00BF9004001044030010FB
:1013C0002C0400107C0400104C0300104803001093
:1013D0005C04001070B586B0DDE90B542DB91549D9
:1013E00040F24D2002F0C2FEFEE72CB9124940F255
:1013F0004E2002F0BBFEFEE75C260596059E5C2EA5
:1014000005D00E4940F2562002F0B0FEFEE72563FB
:10141000022584F8595004AD01950A9D0294009567
:10142000059EFFF745FF2046FFF7A2FE049806B091
:1014300070BD00BFC5AC0000DCAC0000F1AC00002A
:101440002DE9F043074685B0900088461646994638
:10145000FFF79AF90546E8B15C20FFF795F90446D5
:10146000A8B1002380F859300D9B056301930C9BB4
:101470000290009332464B4641463846FFF718FF2C
:101480002046FFF775FE012005B0BDE8F083284631
:10149000FFF789F94FF0FF30F6E7FFFFF8B5044694
:1014A00028B914494FF4AD6002F060FEFEE7124B1C
:1014B0001B68834218D0FFF725F8104B65691F6839
:1014C0000F4B1E68FFF740F8BD4211D0B5420FD058
:1014D0000C4B9D420AD1A36A53B994F85830012BA2
:1014E0000CBF02200320F8BD0020FCE70120FAE732
:1014F0000220F8E7F4AB000044030010480300109A
:101500004C0300107C04001010B588B0002407AA1A
:1015100006A905A8CDE9054402F048FE059B029303
:10152000069B079A0F491048CDE900432346FFF771
:1015300051FF0E4B186090B14FF0180383F31188E0
:10154000BFF36F8FBFF34F8F094B4FF0FF321A601D
:10155000084B01221A60084B1C60FFF769F808B0BD
:1015600010BD00BF6BAC00006512000058040010F5
:101570005C0400107804001090040010024A136804
:1015800001331360704700BF240400102DE9F84FA9
:101590003B4B1B68002B6BD13A4B1C6801341C6021
:1015A000A4B9394B1A6812682AB1384940F67F202D
:1015B00002F0DCFDFEE7364A196810681860116019
:1015C000344A136801331360FFF760FE324D334F26
:1015D0002B68A3424FF0000B11D93A68304BD16A07
:1015E00014224A439A58022A28BF4FF0010B2D4A71
:1015F0001268002A0CBF58460120BDE8F88FDFF8BA
:1016000088A0DFF8A890DAF8002012681AB94FF025
:10161000FF322A60E1E7DAF80020D268D668716804
:101620008C4201D22960D8E706F104084046FFF752
:10163000F8F8B16A19B106F11800FFF7F2F8F06A8C
:10164000D9F80030012202FA00F11943144BC9F80D
:1016500000104FF0140C41460CFB0030FFF7BEF8B1
:101660003868F16AC26A914228BF4FF0010BCAE79D
:101670000D4A1368013313604FF0000BB7E700BF4A
:101680002404001090040010480300100AAD00006C
:101690004C030010600400105C04001044030010B0
:1016A0005003001094040010200400102C040010BB
:1016B0002DE9F8432F4C23682BB92F4940F68500BC
:1016C00002F054FDFEE7FEF71DFF2368013B236097
:1016D00024682CB10024FEF737FF2046BDE8F883CC
:1016E000264B1B68002BF5D0254D264EDFF8A88031
:1016F0001FE0EB68DC6804F1040904F11800FFF74F
:1017000090F84846FFF78DF8E26A3168012707FA3A
:1017100002F314200B4300FB028049463360FFF7BD
:101720005DF8194BE26A1B68DB6A9A4201D3174BDA
:101730001F602B68002BDCD10CB1FFF7A7FD144D07
:101740002C6844B1114E0127FFF720FF00B137602C
:10175000013CF9D12C600D4B1B68002BBAD00D4B0E
:101760004FF080521A60BFF34F8FBFF36F8F012489
:10177000B1E700BF240400106FAD00001C0400108E
:10178000640400102C0400104403001094040010A2
:101790002004001004ED00E05003001008B540B92B
:1017A0000D4B4FF080521A60BFF34F8FBFF36F8F16
:1017B00008BD0A4B196829B1094940F23C5002F0B2
:1017C000D5FCFEE7FFF7DAFEFFF7BEFDFFF770FF7F
:1017D0000028E5D0ECE700BF04ED00E02404001091
:1017E00025AC000038B5274B1A68274B12B10122EF
:1017F0001A6038BD1A6002F0E5FC244A244C1568D2
:10180000A84204D921680B6D5B1B03440B65236858
:1018100010601B6B1A68B2F1A53F0BD15A68B2F188
:10182000A53F07D19A68B2F1A53F03D1DB68B3F1B8
:10183000A53F04D020682168343102F079FC154BB3
:101840001B68B3FA83F3DBB2C3F11F0314221249FE
:101850005A4388188D582DB9104940F6B73002F018
:1018600085FCFEE7456808326D6845600A4495428C
:1018700004BF6A684260142202FB03135B68DB68E2
:101880002360B6E72404001094040010180400102C
:10189000440300102C0400105003001070AC000032
:1018A00010B50C4628B9084940F6CE3002F05EFC6F
:1018B000FEE7064B19681831FEF79CFF2046012110
:1018C000BDE81040FFF740BD3FAC000044030010EE
:1018D00038B5C368DC682CB9164940F6294002F0D7
:1018E00045FCFEE704F118052846FEF79AFF124B67
:1018F0001B68E3B9251D2846FEF793FF0F49E26AEE
:1019000008680123934003430B600D4B14202946C4
:1019100000FB0230FEF762FF0A4BE26A1B68DB6ADB
:101920009A4283BF084B01201860002038BD294629
:101930000648EFE760AD0000240400102C040010FE
:1019400050030010440300109404001064040010BD
:10195000034B1B680360034B1B684360704700BF69
:10196000600400109004001070B50C46054628B9BC
:10197000164940F6944002F0F9FBFEE729B91449F4
:1019800040F6954002F0F2FBFEE7FEF7BBFD114B7F
:10199000196823685A1C10D00F482E6800686A68BE
:1019A000864201D08A420FD9881A83420AD95B1A2B
:1019B000134423602846FFF7CBFF0024FEF7C4FD45
:1019C000204670BD002323600124F7E761AC0000CE
:1019D000B7AC00009004001060040010014B01221D
:1019E0001A6070479404001070B50C461646054600
:1019F00008B91B4A1568256005F134026260EA6A7D
:101A000022612A6BE2612A6CA260AA6C6261052BDA
:101A10002A6DA2611AD0124A1268AA420AD1002382
:101A20002373D6B1296B0023CA5CA52A13D09B0867
:101A3000238470BD032B2373F3D1FFF79FFDAB6AA3
:101A40000BB102232373FFF733FEEAE72846FFF7C3
:101A500025FD2073E5E70133E6E72684E9E700BFCB
:101A6000440300102DE9F84F0D6881460C4693465B
:101A700015B34B685B684B6001F10806B34204BFC5
:101A8000CB684B604B68D3F80C8000254FF0240ADC
:101A900063685B6863609E4204BF736863606368E9
:101AA000DF680AFB05915B4601223846FFF79CFF81
:101AB000B84505F10105EBD12846BDE8F88FFFFFD9
:101AC0002DE9F04705469046FFF758FD1D4B1B6872
:101AD0008B4234D8DFF87C900A2700244FF0140A98
:101AE0002426013F06FB045001220AFB0791FFF761
:101AF000B9FF0444002FF4D1134B0222196806FBEE
:101B00000450FFF7AFFF114B04441968022206FB93
:101B10000450FFF7A7FF044406FB045003220C49BE
:101B2000FFF7A0FF0444B8F1000F03D002F04AFB16
:101B3000C8F80000FFF7BCFD2046BDE8F087002490
:101B4000F8E700BF1C040010480300104C0300100D
:101B50007C04001050030010054B1B6833B1054B8B
:101B60001B68002B0CBF022000207047012070472B
:101B700078040010240400102DE9F04104460028E8
:101B800035D0234AC36A1168C96A8B42174636D2D8
:101B90008269204D002AA1BF3A68D26AC2F10A02C6
:101BA00082611426426906FB03539A4221D100F157
:101BB00004084046FEF735FE174B48B9E06A464335
:101BC000AA592AB91A680121814022EA01021A6041
:101BD0003A681968D26AE262012404FA02F0084302
:101BE00018601420414600FB0250FEF7F7FD204626
:101BF00003E03B68DB6AC3620120BDE8F081136843
:101C0000806CDC6AA0422CBF00200120F5E700BFF9
:101C100044030010500300102C040010F8B50446D3
:101C200008B90020F8BD1F4B1B68834205D01E4930
:101C300040F6D17002F09AFAFEE7DB6C2BB91B4933
:101C400040F6D27002F092FAFEE7C16A826C013B64
:101C50009142C364E5D0002BE3D1051D2846FEF771
:101C6000E0FD134E134A50B9E76A142179437358C3
:101C70002BB913680120B84023EA00031360A36C5A
:101C8000E362C3F10A01A1611168012404FA03F0BF
:101C900008431060142000FB03602946FEF79EFDF8
:101CA0002046BFE74403001035AD00004BAD0000F7
:101CB000500300102C040010F8B50446002847D04B
:101CC000C26C2AB923494FF4815002F04FFAFEE763
:101CD000836C994238BF1946C36A8B4238D0012AB7
:101CE00036D11D4A1268824205D11C4941F23B009F
:101CF00002F03CFAFEE78269194DC162002A4FF0FA
:101D000014064269A8BFC1F10A0106FB0353A8BF2C
:101D100081619A421CD1071D3846FEF782FDE26AB6
:101D2000104C40B95643AB592BB92368012191405F
:101D300023EA010323602168012393400B4314200D
:101D40002360394600FB0250BDE8F840FEF746BD6F
:101D5000F8BD00BF4BAD0000440300104BAC0000C9
:101D6000500300102C040010044B1A681AB11968B3
:101D7000CA6C0132CA641868704700BF440300107F
:101D800070B5FFF7FBFB144D0A241426013C06FB3B
:101D900004F3E818EB580BB1FFF7D2F9002CF5D19A
:101DA0000E4B1A68126812B11868FFF7C9F90C4B8C
:101DB0001A68126812B11868FFF7C2F90948036877
:101DC0000BB1FFF7BDF9084B00221A6002F004FACC
:101DD000BDE87040FFF76CBC5003001048030010D2
:101DE0004C0300107C0400101804001010B502F021
:101DF000E9F9064B064A196829B1196814680B6D90
:101E00001B1B03440B65106010BD00BF4403001092
:101E10001804001008B502F0D5F9014B186008BD90
:101E20001804001038B50D46044658B103290BD9E3
:101E30000A46002103F01CF823462A0A03F8022B65
:101E400065701C46204638BD0024FBE710F8023CB4
:101E500010F8010C40EA0320033880B2704708B53F
:101E6000FFF7F4FF013080B208BD08B510B104F0EF
:101E7000E8F980B208BD10B50446FFF7F6FF024648
:101E80002046FFF7E3FF824234BF0020012010BD4F
:101E900002F01CBF00230370704710B50446FFF723
:101EA000DEFF13460A460146204605F0CFF820EA39
:101EB000E07080B210BD0EB403B503AA52F8041B43
:101EC0000192FFF7EAFF02B05DF804EB03B0704740
:101ED0000EB403B503AA52F8041B019205F0E8F80A
:101EE0000028CCBF80B2002002B05DF804EB03B044
:101EF000704738B505460C46084671B104F0A1F9A3
:101F000001462846FFF7A2FF89B28142024605D862
:101F10002146284604F0D2F9012038BD0020FCE714
:101F200038B51546FFF77EFF044610B12946FFF786
:101F3000E0FF204638BD2DE9F04105460F46144626
:101F40000AB3FFF792FFB84206461CD3204604F0BE
:101F500078F932188046284692B2FFF777FF82421E
:101F600011D8C7F101023D44324492B2294605EB33
:101F7000080002F063FF42462146284604F09EF91D
:101F80000120BDE8F0810020FBE770B506460C4655
:101F9000A9B1FFF76AFF0546204604F052F982B264
:101FA000A918304689B2FFF751FF884207D30132A2
:101FB00092B22146701902F033FF012070BD00205B
:101FC000FCE707B500238DF8041001A98DF8053052
:101FD000FFF7DBFF03B05DF804FB08B529B104F09F
:101FE00007F9B0FA80F0400908BD0846FCE770B573
:101FF000064615460C4661B1FFF737FFA84208D3E5
:102000002A462146304604F047F9B0FA80F04009EC
:1020100070BD0020FCE770B505460C4681B1FFF7A6
:1020200024FF0646204604F00CF98642024607D3F8
:102030002146284604F00EF9B0FA80F0400970BD40
:102040000020FCE72DE9F041074614460D46C9B1D2
:10205000C2B1FFF70AFF8046284604F0F2F8804537
:1020600006460FD302462946384604F015F948B90A
:10207000B85D237883421ABFB0FA80F0400901208E
:10208000BDE8F0810020FBE710B50446FFF7EDFE48
:1020900040B1013880B2205C0D2804D0A0F10A03C1
:1020A0005842584110BD0120FCE770B50C4605466A
:1020B0001646FFF7DAFEA04211D9011BB142C4F166
:1020C00001030A461844A8BF3246801A14FA82F166
:1020D000294482B2281902F0B1FE012070BD00200F
:1020E000FCE70A460021FFF7E0BF38B50C4605467D
:1020F000FFF7BBFEA04224BF001B81B22246284648
:1021000038BF0021BDE83840FFF7CFBF10B5044607
:1021100004F0E7F8031E1FBF1B1B9BB20022012027
:102120000CBF0020E25410BD10B5044604F07CF84A
:1021300038B1011B0131204689B2BDE81040FFF7DC
:10214000D0BF10BD70B50646054611480C462B465B
:1021500013F8011BC9B10A5C520714D524B12846F3
:1021600002F0B4FD20600124094A294615F8013B1C
:1021700013B19B5C5B07F8D4891B89B23046FFF72B
:10218000B0FF204670BD1D46E1E70C46ECE700BFFE
:10219000E1B40000F8B506460C46C9B1FFF765FE8C
:1021A0000546204604F04DF86B1E33442044013EA2
:1021B0000021B34202D02246824201D1012008E030
:1021C00012F8015B1F78AF42F6D103F80119F0E76E
:1021D0000846F8BD07B501220221002000F0F4F8FE
:1021E00001220321002000F0EFF804220021012049
:1021F00000F0EAF801210422084600F0E5F8042284
:102200001146012000F0E0F80821012000F032F929
:102210002B4B4FF480729A610921012000F00AF9DA
:1022200002220A21002000F0CFF802220B21ADF893
:102230000000002000F0C8F8ADF80400009800F09D
:10224000D2F8019800F0CFF80321022000F012F933
:102250001C4B00B21870C0F3072058701A210120DF
:1022600000F008F9184B00B21870C0F3072058703E
:102270001821012000F0FEF8144B00B21870C0F3D2
:10228000072058701221012000F0F4F8104B00B222
:102290001870C0F3072058700A21012000F0CAF816
:1022A0000F21012000F0C6F81E21002000F0C2F826
:1022B0001D21002003B05DF804EB00F0BBB800BFA7
:1022C000208009209E0400109C0400109A04001035
:1022D00098040010024B4FF48072DA61704700BF1F
:1022E00020800920024B4FF480729A61704700BF32
:1022F00020800920034B586980F40070C0F340200F
:10230000704700BF20800920074B82B01B88ADF8C2
:1023100004309DF80430002063F307009DF8053079
:1023200063F30F2002B0704798040010074B82B08F
:102330001B88ADF804309DF80430002063F30700DB
:102340009DF8053063F30F2002B070479A04001027
:10235000074B82B01B88ADF804309DF80430002094
:1023600063F307009DF8053063F30F2002B0704758
:102370009C040010074B82B01B88ADF804309DF818
:102380000430002063F307009DF8053063F30F204D
:1023900002B070479E04001082B0C3B2ADF80400D2
:1023A000C0F30720800000EBC31000F1804000F56F
:1023B000303001F00701036823F00703036003686E
:1023C0001943016002B0704737B58DF801108DF8E0
:1023D000000004460D4600981146FFF7DDFF44EA71
:1023E000052003B030BD82B0C3B2ADF80400C0F325
:1023F0000720800000EBC31000F1804000F5303072
:10240000036843F48063036002B0704782B0084BF6
:10241000ADF80400C0B2012253F820109DF8050069
:102420000B68824023EA02030B6002B0704700BFD2
:1024300084AD000037B58DF800008DF8011004461A
:1024400000980D46FFF7E2FF44EA052003B030BDD7
:1024500082B0074BADF80400C0B253F820209DF8BD
:1024600005001168012383400B43136002B07047DD
:1024700084AD000037B58DF800008DF801100446DA
:1024800000980D46FFF7E4FF44EA052003B030BD95
:1024900082B0084BADF80400C0B29DF8051053F8A7
:1024A00020305A6901238B40134214BF01200020C1
:1024B00002B0704784AD0000C2B2054BC0F30720E4
:1024C00053F82220012382B08340936102B0704709
:1024D00084AD0000C2B2054BC0F3072053F82220A0
:1024E000012382B08340D36102B0704784AD000005
:1024F00007B5ADF804000198FFF7CAFF28B10198AD
:1025000003B05DF804EBFFF7E5BF019803B05DF899
:1025100004EBFFF7D1BFFFFF2DE9F0410F4C04EBB7
:10252000C00306461D7928460F46904600F00EFA75
:1025300054F8364000233F2263604146A36028469A
:1025400022606361A361E3612362636200F022FAA7
:102550000123E7606360BDE8F08100BF9CAD00002F
:10256000074B53F8303030B501205C6901EB410571
:10257000A84020435861183343F8212030BD00BFE4
:102580009CAD0000034B53F83020012303FA01F106
:10259000116070479CAD0000024B53F830309868D2
:1025A000704700BF9CAD0000024B53F8303099607B
:1025B000704700BF9CAD00002DE9F041044617466E
:1025C0001E468846FFF7C8FA002105466068FEF7F8
:1025D00097FC00232373069B6361079BA361236819
:1025E00084F80D802022022DA77326611A600BD17A
:1025F00040F6B8316068FEF783FC18B1207BB0FA72
:1026000080F04009BDE8F08100216068FEF778FCA9
:102610000028F9D0F2E7FFFF03685A68282A13B5AB
:1026200057D00AD8102A2CD0182A32D0082A09D11B
:10263000417B01F0FE01996028E0402A63D00DD86B
:10264000382A77D05A68027320229A6110221A60C1
:1026500008229A611A68D206FCD426E0502A5BD080
:10266000582AEFD1026999681170002282612022F4
:102670009A6110221A6008229A611A68D106FCD465
:1026800013E0427B42F001029A6008229A6102B094
:1026900010BD8469202199610822C4B99961102173
:1026A00019609A611A68D106FCD4002301A9406818
:1026B0000193FEF735FB019B002BE8D01F4B4FF039
:1026C00080521A60BFF34F8FBFF36F8FDFE7817BBC
:1026D000B1E7427BD20702D520221A60D5E7826992
:1026E0004AB920229A6110221A6008229A611A6857
:1026F000D406FCD4D9E74169013A11F8014B9C603A
:1027000041618261C1E720229A618269012A4FF00A
:102710000402E2D89A61B8E7026999681170026907
:10272000013202618269013A012A82614FF004029A
:10273000D3D1EFE75B680373B7E700BF04ED00E0B8
:102740000148FFF769BF00BF400000100148FFF7D4
:1027500063BF00BF240000100148FFF75DBF00BF4A
:10276000080000102DE9F043284B06461546884620
:1027700093E8070085B004AB03E9070040F60A338D
:10278000ADF800300C238DF802301C237343204A2F
:10279000D45802EB030904AB334403220021012087
:1027A00013F8107CFEF762F9C9F804000120FEF767
:1027B00046FAC9F80800384600F0C8F86C23A3614F
:1027C000144A154B904588BF98462823B5FBF8F26C
:1027D000520864215343B3FBF1F323613C235A4372
:1027E0000023B2FBF1F26261A36263622362E360E1
:1027F0004023236004AB03EB8606384656F80C1CD6
:1028000005B0BDE8F04300F0C5B800BFBCAD0000A6
:102810000800001040420F00A08601002DE9F3419E
:102820000F4690461D4623B90025284602B0BDE854
:10283000F0810F4C1C2303FB00444FF0FF31A068D4
:10284000FEF75EFB0028EFD00026089B019342466E
:102850002B4647F0010100962046FFF7ADFE3346B8
:10286000054632463146A068FEF726F9DDE700BF8F
:10287000080000101FB500238DF80F3001230093CE
:102880000DF10F03FFF7CAFF9DF80F0005B05DF8CB
:1028900004FBFFFFF7B50E4617461D461BB9002582
:1028A000284603B0F0BD0E4C1C2303FB00444FF040
:1028B000FF31A068FEF724FB0028F0D0089B3A46C1
:1028C000CDE9005306F0FE0100232046FFF774FE19
:1028D000002305461A461946A068FEF7EDF8DFE723
:1028E000080000101FB5002200920DF10F038DF8B3
:1028F0000F20FFF7CFFF05B05DF804FB1FB58DF883
:102900000F30012300930DF10F03FFF7C3FF05B054
:102910005DF804FBFEE7FFFF08B5FFF767FA084B19
:10292000084A1B78103BDBB252F823309847064B1D
:1029300000221A601B68BDE80840FFF76BBA00BFB1
:1029400004ED00E05C000010A0040010242809D869
:10295000054B064A185CD2F8C410012383400B4390
:10296000C2F8C430704700BFC8AD000000C00F40BF
:1029700024289FBF054B064AD3F8C430105C9ABF89
:1029800023FA00F000F001000020704700C00F4063
:10299000C8AD0000074B43F8201043B2002B08DB02
:1029A000012200F01F0002FA00F05B09024A42F81F
:1029B000230070475C00001000E100E073B54FF0A9
:1029C000FF33B1F5805F019336D21D4C2369DE07DA
:1029D00034D41C4B1D69ED0730D41B4D0326AE606B
:1029E0002E611A4D1D6002B301AE5E6041F00046DB
:1029F000DE6041F20F061E61DAB1206041F08061B5
:102A000040F68112E16065602261114A516A41F02D
:102A100003015162D868C0F30B000028FAD1536A51
:102A200023F00303536202B070BD586041F00846C2
:102A3000DEE701AA2260E3E70120F4E70220F2E7E3
:102A400000010820200108200000082008C00A40DA
:102A500000C00A4010B50446FDF7E0FB4FF47A735E
:102A6000B0FBF3F00223B0FBF3F2A24202D8034A18
:102A7000136110BD0233DBB2F5E700BF00C00A40AE
:102A800010B504462420FFF761FF0B4B07221A60A4
:102A900002225A602046FFF7DDFF1A20FFF756FF9B
:102AA000064B01221A631A6BD207FCD5044A002395
:102AB000936042F8183C10BD00C00A400000082096
:102AC00020010820034B9860DA68D206FCD498688D
:102AD000C0B2704700C00A400122FFF76FBF00225A
:102AE000FFF76CBF02689368C3F34203022B73B510
:102AF000064623D0062B21D0012B34D100248DF89B
:102B000003400194102501AA0DF103017068FEF73E
:102B1000B7FA48B133689DF803201A70019B002B67
:102B200018BF0124013DEED10CB3124B4FF080527F
:102B30001A60BFF34F8FBFF36F8F18E0002401942A
:102B400033681A7DD207EFD51B788DF8033001AAC0
:102B500000230DF10301B068FEF784F8019B002B00
:102B600018BF0124ECE7137DDBB20193019B02B097
:102B700070BD00BF04ED00E00148FFF7B3BF00BF28
:102B8000240100100148FFF7ADBF00BF180100107D
:102B90000148FFF7A7BF00BF0C0100100148FFF775
:102BA000A1BF00BF00010010134B70B515460646CB
:102BB000185C0C462D01FFF7C9FEB4FBF5F307EED8
:102BC000903AF8EE677AB6EE007A77EE877A0C20C4
:102BD000FCEEE77A7043094A17EE903A12589BB21E
:102BE00080211173190ADBB211711370102382F85E
:102BF00028300723137370BD00AE000000010010E1
:102C0000074B10B50446185CFFF7B2FE38B10C2034
:102C10006043044B1B58187B003018BF012010BDC7
:102C200000AE000000010010044A0C2303FB00204A
:102C30004068003018BF0120704700BF000100103D
:102C40002DE9F041054688461646FFF7D9FF0746AD
:102C500018B900273846BDE8F081154C0C2303FB5A
:102C600005439A6822B9B8F1000F01D0C3F8088073
:102C70000C2303FB05435A680AB906B15E600C26B3
:102C80006E43A3199A68002AE3D05B68002BE0D05A
:102C9000084B53F82510084B585DFFF77BFEA359EE
:102CA00041221A7206221A7207225A60D2E700BF26
:102CB00000010010F0AD000000AE000038B50C239C
:102CC0004343074A0D46D458FFF79AFF30B1237D9E
:102CD0009A06FCD52570237D9B06FCD538BD00BF28
:102CE0000001001070B5044615460E46FEF734FF8D
:102CF0000F4B0C2202FB0434A468B4B1022814D197
:102D00006B1C09D04FF47A70A5FB00014FF47A7266
:102D1000002301F059FE05462A4631462046FEF7BB
:102D200051F8003018BF012070BD0020FCE700BF43
:102D3000000100102DE9F84306460F46124DFEF73C
:102D40000BFF0C2404FB065381463046D3F8088061
:102D5000FFF756FFA0B1B9F1020F0AD1B8F1000F89
:102D600007D0394630464FF0FF32BDE8F843FFF751
:102D7000B9BF74432B591A7DD207FCD51B783B7021
:102D80000020BDE8F88300BF00010010F7B51F4D1B
:102D90008DF8071007461646FEF7DEFE0C2303FBF0
:102DA00007535C6864B302282DD1711C09D04FF41D
:102DB0007A70A6FB00014FF47A72002301F004FE42
:102DC0000646002332460DF107012046FDF774FE4A
:102DD000041C18BF0124FDF795FB0C2078432B1829
:102DE0002D582A7D520609D500220DF10701586899
:102DF000FEF746F910B19DF807302B70FDF7A4FBE4
:102E0000204603B0F0BD0024FAE700BF0001001027
:102E10002DE9F84F06461446884610461B49DFF850
:102E20007C90DFF87CA0DFF87CB0FFF744F8B36853
:102E300021464046984735680DB9BDE8F88F6F6860
:102E4000384603F0FEF932288CBF514649463B46CE
:102E50002A682046FFF72FF859462046FFF756F913
:102E60000B4907462046FFF751F907B918B1094940
:102E70002046FFF78AF808492046FFF786F8B3682E
:102E8000214640469847ED68D6E700BF04AE0000F3
:102E90004BAE0000D5AF00004AAE000060AE0000AF
:102EA0004DAE00006CAE000030B504294FF00005B7
:102EB00038BF04210560C0E90112C36030BD11B103
:102EC0000368CB60016070472DE9F0411446054668
:102ED0000F4610464249FFF75DF942492046FFF789
:102EE0009AF8002833D03F492046FFF776F828B1FA
:102EF000224639462846FFF78BFF68E0202120460E
:102F0000FFF712F9DFF8F0802E680EB92E6810E096
:102F1000424631682046FFF795F8002838D1F66818
:102F2000F3E76A6831682046FFF761F800282FD17F
:102F3000F668002EF5D131462B4A2046FEF7FBFFFE
:102F4000AB68214638469847AB6825493DE02E6876
:102F5000DFF8A4800EB92E680EE0424631682046A4
:102F6000FFF770F8B8B9F668F4E76A683168204688
:102F7000FFF73DF878B9F668002EF6D131461B4AC6
:102F80002046FEF7D8FFAB68214638469847AFE7A2
:102F9000AB687168D6E720212046FFF7C5F8B36813
:102FA000AA6821463846984788B1114A0021204630
:102FB000FEF7C1FFAB682146384698470D49726855
:102FC0002046FEF778FFAB68214638469847E96807
:102FD00021B1AB683846BDE8F0411847BDE8F08143
:102FE0004AAE00006EAE0000A1AE0000CAAE000006
:102FF00073AE000084AE0000ECB5000010B54C1EAE
:1030000014F8010F00B910BD02F070FFF8E7FFFFE0
:1030100070B5A0B006461B4A80216846FEF780FFC7
:103020000446304622460021FFF74EFF2046FEF7B9
:1030300031FF2046FFF728F80028F2D101F0CAFE40
:10304000C5B2082D16D12046FEF70FFF60B1012151
:103050002046FFF74AF8284602F048FF202002F0F9
:1030600045FF284602F042FF2046FEF704FF0028F5
:10307000DFD0D6E7284602F039FF29462046FEF782
:10308000A0FFF1E76EAE000030B589B004AD284670
:10309000124B134A134C0421FFF706FF95E80F006B
:1030A00084E80F0020461049FFF709FF20460F492A
:1030B000FFF705FF20460E49FFF701FF0D4B029376
:1030C0000D4B0193032300934FF4007223460B49E9
:1030D0000B48FEF77FF909B030BD00BFFBAE000022
:1030E000FD2F0000A404001050010010400100104A
:1030F00030010010B40C0010B40400104EAF0000FA
:10310000113000002DE9F043E7B00DF198084FF4BD
:10311000807281460E464046002101F0A9FE8021C2
:1031200006A8FEF77FFE05AF01233B60054600249D
:10313000009704AB03AA20494846CDE90344FEF7B3
:10314000C7FE012830D93B6800939DF810209DF8F8
:103150000C1043460220FFF761FB8146E0B1039A61
:103160001649DFF864902846FEF7A5FE294620465A
:10317000B0473B68A34202D867B0BDE8F08318F8B7
:1031800004300093224649462846FEF794FE29461D
:103190000020B0470134ECE709492846FEF7A9FEB4
:1031A00029464846B047E7E706492846FEF7A1FE0C
:1031B00029462046F6E700BF65B000006EB000006B
:1031C0009FB00000CCB0000088B000002DE9F043B3
:1031D000E7B000240DF198084FF4807281460F4645
:1031E00040462146CDE9034401F042FE802106A875
:1031F000FEF718FE04AB064603AA29494846FEF727
:1032000067FE022844D120214846FEF78DFF202189
:103210004846FEF789FF059405A94846FEF792FF48
:103220000546D0B9009443469DF810209DF80C1037
:103230000220FFF72FFB814610B3039B1949DFF8EB
:10324000709022463046FEF736FE31462846B84793
:10325000AC4207D167B0BDE8F083059B08F80430A5
:103260000134D9E7049A18F8053000932A444946F6
:103270003046FEF720FE31460020B8470135E7E72B
:1032800009493046FEF735FE31464846B847E1E782
:1032900006493046FEF72DFE31462046F6E700BFD0
:1032A0000CB1000012B1000049B1000077B100007C
:1032B00032B10000F8B50D4628460E491646FEF715
:1032C000AAFE0D4904462846FEF7A5FE2021074622
:1032D0002846FEF729FF2CB131462846FFF712FF9A
:1032E0000020F8BD27B131462846FFF76FFFF7E70A
:1032F0000120F6E75AB000005FB0000000231B6019
:10330000FFDEFFFF2DE9F04F89B0084604AF0D4600
:103310009146FEF7BDFD041E04DDFEF731FD20469B
:10332000FEF73CFADAB00024FC6000F04BFF0DF130
:10333000100B786007F10C020A215846FEF7C0FB1B
:10334000224A386022492846FEF7B5FD2946204624
:10335000C847A0465E464FF0000A20E07369434527
:103360001AD1B269FB68144423B16421B3FBF1F3B1
:10337000B2FBF3F3317BCDE90232338C9B00CDE914
:103380000083144B726853F8213013492846FEF726
:1033900092FD29460020C8470AF1010A24363B68FD
:1033A0005345DBD108F10108B8F10A0FD2D17B688F
:1033B0000A491A1B2846FEF77EFD29460020C84709
:1033C00000201437BD46BDE8F08F00BFC9B1000032
:1033D000CEB1000050B20000F9B1000016B20000FA
:1033E00042884378007843EA022340EA032070478A
:1033F00010B5024410F8013B11F8014B9042A3EBC9
:10340000040301D0002BF5D0184610BD02684AB164
:10341000134613F8011B1F290BD93A29F9D1911C26
:103420008B4202D04FF0FF3070471278302AF9D12A
:1034300003600020704770B500F13806426B044607
:1034400001233146407800F05BFA054688B9616B8C
:10345000A36A226AE070CB1A934208D2A378022BA7
:1034600005D10A4401233146607800F049FA284624
:1034700070BD0125FBE738B5436B8B4204460D4612
:1034800019D0C3788BB901232A4604F1380160783A
:1034900000F022FA002818BF4FF0FF35034665639D
:1034A0000CBF03460123184638BDFFF7C4FF03468F
:1034B0000028F8D1E7E70023F5E7FFFF38B5002340
:1034C000C3704FF0FF3343630546FFF7D4FF044654
:1034D00018BB95F8372295F8363243EA02234AF6AC
:1034E000552293421BD195F83830EB2B03D018337B
:1034F000DBB2012B15D803220B4905F16E00FFF753
:1035000077FF40B10522094905F18A00FFF770FFF6
:10351000002818BF0224204638BD0424FBE70324FA
:10352000F9E70224F7E700BF64B2000068B20000C8
:103530002DE9F043002385B00B600F461546FFF7D9
:1035400065FF061EC0F23981A44B53F82640002CBB
:1035500000F03581206900F09EF9002800F03181EB
:103560003C60237805F0FE056BB1607800F0AFF9A0
:10357000C10708D41DB110F0040500D00A25284663
:1035800005B0BDE8F0830023F0B22370607000F056
:1035900090F9C20700F117810DB14307EED4002165
:1035A0002046FFF78BFF022840F0EE806F4604F5BF
:1035B000FF7104F23E263D4611F8040C10B1084696
:1035C000FFF70EFF10318E4245F8040BF4D10025B1
:1035D00057F8046B002E00F0CE8031462046FFF7EE
:1035E0006DFF012800F2C88094F8442094F843301D
:1035F00043EA0223B3F5007F40F0CA8094F84F30CD
:1036000094F84E5055EA032504D104F15C00FFF70D
:10361000E7FE054694F8481025624B1E012BA17069
:1036200000F2B68094F845901FFA89F36381002B6D
:1036300000F0AE8009F1FF3313EA090F40F0A880D3
:1036400094F84A3094F8497047EA03273FB21FFACA
:1036500087F818F00F0FA4F8088040F0998094F8CC
:103660004C3094F84B0050EA032003D104F1580089
:10367000FFF7B6FE94F8472094F8463053EA022349
:1036800000F0868005FB01FC03EB181262449042B7
:103690007ED3801A4845B0FBF9F179D35048814276
:1036A00076D84FF6F570814240F28F804FF00309D3
:1036B000023133443244B9F1030FE1616662A3621F
:1036C000226369D194F8632094F8623043EA0223BC
:1036D0001F433FB2002F5BD104F16400FFF780FE6F
:1036E000E062890001F2FF11B5EB512F50D34FF08A
:1036F000FF33C4E90533B9F1030F4FF080032371A1
:103700002FD194F8692094F8683043EA0223012B02
:1037100027D1711C2046FFF7AEFE10BB94F837226C
:1037200094F83632207143EA02234AF65522934236
:1037300017D104F13800FFF753FE2A4B984210D1FD
:1037400004F50770FFF74CFE274B984209D104F5AA
:103750000870FFF745FEA06104F50970FFF740FE11
:103760006061224A84F80090138801339BB2138071
:10377000E380002503E703200135042D7FF428AF03
:10378000042805D10125FAE60428FBD0012801D937
:103790000D25F4E6002627E7B8F1000FF8D06344C2
:1037A000B9F1020FE3624FEA41031BBF5B1801F05E
:1037B0000101194601EB530194E70B25DFE60C25C7
:1037C000DDE60F25DBE60325D9E640F6F579494528
:1037D0008CBF4FF002094FF0010969E7100D00108E
:1037E000F5FFFF0F5252614172724161140D0010DA
:1037F00040B1A1F10B03012B04D90F2902D00069BC
:1038000000F052B87047FFFFF0B585B0CDE9001069
:1038100003A814460391FFF7F9FD051E28DB154F99
:1038200057F825604EB1306900F030F818B902241D
:10383000204605B0F0BD00233370019979B9019B92
:1038400047F82530002CF3D001A900226846FFF785
:103850006FFE044601460198FFF7CAFFE8E7002320
:1038600001F8103BE8B200F007F80028E7D1DEE7E6
:103870000B24DDE7100D001010B501200C46FDF7FC
:10388000DEF92060003018BF012010BD08B5FDF73B
:1038900045FC012008BD08B540F6B831FDF730FB06
:1038A000431E5842584108BD00231A461946FDF7E9
:1038B00003B910B5044600F069FB34B900F0FAF81A
:1038C000044600F07DFB204610BD0424F9E708B94A
:1038D00000F08EB904207047F8B507460C4615462F
:1038E0001E4600F053FB4FB92046F2B2294600F0C5
:1038F00087F9044600F064FB2046F8BD0424F9E78C
:10390000F8B507460C4615461E4600F03FFB4FB97A
:103910002046F2B2294600F0B9F9044600F050FB07
:103920002046F8BD0424F9E738B500F099FB00F50E
:10393000FA75FF20FFF7C6F8FF20FFF7C3F8FF284E
:10394000044603D000F08CFB8542F5D8204638BDF4
:1039500008B5FEF7BFFCFFF7E7FFFEF7C3FC034A1D
:10396000137843F00103137008BD00BF600100101D
:1039700038B505460C46FFF7D7FFFF2821D1204672
:10398000FFF7A0F8FD2C1ED0AC1C05F2022514F8A0
:10399000020CFFF797F8023414F8030CFFF792F8C3
:1039A000AC42F4D1FF20FFF78DF8FF20FFF78AF833
:1039B000FF20FFF787F800F01F00431F58425841CF
:1039C00038BD0020FCE70120FAE737B502060446BF
:1039D0000D4607D500217720FFF7F7FF012831D8E2
:1039E00004F07F04FEF77EFCFEF774FCFFF79CFFFB
:1039F000FF282BD1402C27D0482C0CBF8723012334
:103A00002A0E8DF801202A0C8DF8022006212A0AA0
:103A100068468DF800408DF803208DF804508DF82D
:103A20000530FFF759F84C2C02D1FF20FFF74AF878
:103A30000A24FF20FFF746F8030603D5013C14F0E3
:103A4000FF04F6D103B030BD9523D9E7FF20F9E795
:103A500070B5054600F004FB00F16406FF20FFF797
:103A600031F8044600F0FCFA864201D3FF2CF5D071
:103A7000FE2C0CD14FF400712846FFF730F8FF20E0
:103A8000FFF720F8FF20FFF71DF8012070BD002090
:103A9000FCE7FFFF38B5064D2C78E4B2FEF72AFCB0
:103AA00018B104F0FD042C7038BD44F00304FAE7AB
:103AB000600100102DE9F341FFF7ECFF4A4B1A7843
:103AC00012F0020F1E4604D01878C0B202B0BDE852
:103AD000F081C820FEF7BEFF0A25FF20013DFEF75A
:103AE000F1FF15F0FF05F8D1FEF7F4FB2946402061
:103AF000FFF76BFF0128044671D100F0B1FA4FF4D3
:103B0000D57100F57A774820FFF75FFF012848D18B
:103B100001ADA8460424FF20FEF7D4FF013C14F0B9
:103B2000FF0408F8010BF6D19DF80630012B56D1A1
:103B30009DF80730AA2B52D100F092FA874206D99D
:103B40004FF08041E920FFF740FF0028F4D100F05A
:103B500087FA874243D900217A20FFF736FF0028F1
:103B60003DD10424FF20FEF7ADFF013C14F0FF041B
:103B700005F8010BF6D19DF8043013F0400F14BF87
:103B80000C240424194B1C70FEF7ACFB4CB33378A7
:103B900045F6C05003F0FE033370FEF75BFF30784C
:103BA00093E72946E920FFF710FF022836BFE925F1
:103BB0004125022400F054FA874205D90021284605
:103BC000FFF703FF0028F5D100F04AFA874206D834
:103BD0004FF400715020FFF7F8FE0028D2D00024E7
:103BE000D0E7FFF7B5FEDAE760010010160D001010
:103BF00008B5FFF74FFF014B187808BD60010010B2
:103C000070B5144605460E46FFF744FF002C35D02C
:103C10001C4B1B78DA0733D4FEF75CFB1A4B1B787E
:103C20001B0758BF7602012C314611D15120FFF7F6
:103C3000CCFE38B94FF400712846FFF709FFB0FAFF
:103C400080F46409FEF74EFB201C18BF012070BDF4
:103C50005220FFF7BAFE0028F4D14FF40071284635
:103C6000FFF7F6FE28B1013C14F0FF0405F50075DE
:103C7000F3D100214C20FFF7A8FEE3E70420E6E79C
:103C80000320E4E760010010160D001070B5144623
:103C900005460E46FFF7FEFE002C41D0234B1A7856
:103CA000D0073FD41B7859073ED4FEF713FB204BB7
:103CB0001B781A0758BF7602012C11D131465820C3
:103CC000FFF783FE50BBFE212846FFF751FEB0FAF6
:103CD00080F46409FEF706FB201C18BF012070BDAC
:103CE00013F0060F03D02146D720FFF76EFE3146B2
:103CF0005920FFF76AFE0028ECD1FC212846FFF787
:103D000037FE28B1013C14F0FF0405F50075F4D12D
:103D1000FD210020FFF72CFE0028DBD10124D9E78C
:103D20000420DCE70320DAE70220D8E76001001076
:103D3000160D001008B5064602F083FA0024054669
:103D4000A54200DCFEE7315D0020FEF7B7FF01343D
:103D5000F6E7FFFF02280CD9074B1B685A6882421E
:103D600007D09A68824204D0DB681B1A5842584137
:103D700070470120704700BF64010010F8B5044689
:103D80000E461546FFF7E6FF48B3164B1B68DB6887
:103D9000A34210D0A31E5C425C41FDF7DDFE074646
:103DA0000020FEF741FF022F17D1B0B1ACB9A542F8
:103DB00003DC2846F8BD0124EFE7315D4FF0FF3208
:103DC0000020FEF7E3FF0134F1E7315D0020FEF74C
:103DD00075FF0134A542F8DCEBE70024FAE702485E
:103DE000FFF7A8FF64010010A0B2000008B5FFF7BC
:103DF000B1FF18B10020FEF79DFF08BD0148FFF795
:103E000099FF00BF6EB2000008B52A22192338219D
:103E10000220FEF773FD0D2238210220FEF72AFD55
:103E2000A0F12A035842584108BDFFF7EDBFF8B58D
:103E300004460D4600F0FEF8061941EB0507FDF7B4
:103E40008BFE02280CD100234FF47A72AB4208BFDC
:103E5000A24205D22046294600F0B6FDFDF79EFCA1
:103E600000F0E8F8B94208BFB042F9D3F8BD4FF40A
:103E70007A73A0FB0301FFF7DABFFFFF30B585B00F
:103E8000FEF7A8F9FEF740FAADF80800FEF74EFA83
:103E9000ADF80A00FEF75CFAADF80C00FEF76AFA1E
:103EA0000024ADF80E0004AA04F0030302EB430360
:103EB000013433F8080CFEF71BFB3220FFF7D7FF65
:103EC000202CF0D145F6C050FEF7DAFD0022234940
:103ED0002348FFF799FC234B186800231946022258
:103EE000406802F09DF8FCF79DF9002501464FF46B
:103EF000E1320020FEF758FE00951B4B1B4A0121C2
:103F00002046FCF769FD1A4B00950446194A012129
:103F10008020FCF761FD224601462846FEF790FE10
:103F2000154A16491648174D01F0C8FFFCF77AF9F3
:103F3000154902460220FEF715FC0224E1B20220D8
:103F4000FEF7D0FC18B12146284601F0B7FF023435
:103F5000B4F5807FF2D105B030BD00BF4CAE00009B
:103F6000880D001064010010380D0010170D0010AE
:103F700040100010C00F0010D3B20000E4B20000E7
:103F800035B3000052B30000801A060010B50A4C89
:103F9000236823B909490120FCF73CFE2060FDF7A6
:103FA000DBFD022806D120684FF0FF31BDE810404C
:103FB000FCF7A6BF10BD00BF9010001094100010B9
:103FC00010B5FDF7C9FD022808D1054800231A469F
:103FD00019460068BDE81040FCF76EBD10BD00BF7B
:103FE00090100010074A08B51368002101330846F5
:103FF0001360FEF7D9FA00210846BDE80840FEF735
:10400000C1BA00BFE410001008B5074A0749B0FB69
:10401000F1F100200139FEF77FFA0021044A084639
:10402000BDE80840FEF79CBAE53F000040420F00A3
:104030000087930370B5084E0020FEF7ADFA0546E1
:1040400000203468FEF7A8FA8542F5D8034B00211A
:10405000E3FB040170BD00BFE41000100087930370
:1040600008B5FFF7E7FF4FF47A72002300F0ACFCCD
:1040700008BD70B5054608460C4602F0E2F8261861
:10408000B44205D128460A21BDE87040FEF716BEAD
:1040900014F8011B2846FEF711FEF1E707B5038867
:1040A000ADF804300198FEF723FA4FF4FA70FDF7EB
:1040B00075FBF7E72DE9F341FEF726F9164E174D8C
:1040C000174F00B23070C0F307207070FEF72EF962
:1040D00000B2002428704FF00108C0F30720687078
:1040E0003346CDE9008464220E493846FDF7A8F92D
:1040F0002B4664220C49CDE900843846FDF7A0F92F
:10410000FEF7C2FF094801F073FFFDF7FDF92046F5
:1041100002B0BDE8F08100BFE8100010EA10001006
:104120009D40000079B300007EB3000083B300001F
:104130000C460020044908B5FFF79BFF21460020EC
:10414000FFF797FFFEE700BFC3B4000008B50249C0
:104150000020FFF78EFFFEE789B40000024B00222B
:10416000C3F8C02030BF704700C00F4008B50C46F0
:1041700000200A49FFF77DFF09490020FFF779FF7A
:1041800008490020FFF775FF07490020FFF771FF7E
:1041900021460020FFF76DFFFEE700BF91B300004E
:1041A000E3B3000026B400005AB40000034B0360E0
:1041B000034B0B6064231360704700BF881200102C
:1041C000F810001008B5FFF735FF024B1B68C01A46
:1041D00008BD00BFF010001008B5FFF72BFF024B21
:1041E000C3E9000108BD00BFF010001081F00041DC
:1041F00002E000BF83F0004330B54FEA41044FEACC
:10420000430594EA050F08BF90EA020F1FBF54EA66
:10421000000C55EA020C7FEA645C7FEA655C00F002
:10422000E2804FEA5454D4EB5555B8BF6D420CDDD3
:104230002C4480EA020281EA030382EA000083EA56
:10424000010180EA020281EA0303362D88BF30BDF6
:1042500011F0004F4FEA01314FF4801C4CEA11314C
:1042600002D0404261EB410113F0004F4FEA0333AB
:104270004CEA133302D0524263EB430394EA050F36
:1042800000F0A780A4F10104D5F1200E0DDB02FAA5
:104290000EFC22FA05F2801841F1000103FA0EF239
:1042A000801843FA05F359410EE0A5F120050EF1FF
:1042B000200E012A03FA0EFC28BF4CF0020C43FA30
:1042C00005F3C01851EBE37101F0004507D54FF03D
:1042D000000EDCF1000C7EEB00006EEB0101B1F58D
:1042E000801F1BD3B1F5001F0CD349085FEA3000D3
:1042F0004FEA3C0C04F101044FEA445212F5800FDE
:1043000080F09A80BCF1004F08BF5FEA500C50F17A
:10431000000041EB045141EA050130BD5FEA4C0C5D
:10432000404141EB010111F4801FA4F10104E9D1E6
:1043300091F0000F04BF01460020B1FA81F308BFDD
:104340002033A3F10B03B3F120020CDA0C3208DDA9
:1043500002F1140CC2F10C0201FA0CF021FA02F184
:104360000CE002F11402D8BFC2F1200C01FA02F1F4
:1043700020FA0CFCDCBF41EA0C019040E41AA2BF19
:1043800001EB0451294330BD6FEA04041F3C1CDAE1
:104390000C340EDC04F11404C4F1200220FA04F001
:1043A00001FA02F340EA030021FA04F345EA0301AB
:1043B00030BDC4F10C04C4F1200220FA02F001FA6D
:1043C00004F340EA0300294630BD21FA04F02946EF
:1043D00030BD94F0000F83F4801306BF81F4801188
:1043E0000134013D4EE77FEA645C18BF7FEA655CFB
:1043F00029D094EA050F08BF90EA020F05D054EACD
:10440000000C04BF1946104630BD91EA030F1EBFD1
:104410000021002030BD5FEA545C05D140004941D5
:1044200028BF41F0004130BD14F580043CBF01F5C8
:10443000801130BD01F0004545F0FE4141F47001AE
:104440004FF0000030BD7FEA645C1ABF1946104689
:104450007FEA655C1CBF0B46024650EA013406BF8A
:1044600052EA033591EA030F41F4002130BD00BF49
:1044700090F0000F04BF0021704730B54FF4806406
:1044800004F132044FF000054FF0000150E700BF87
:1044900090F0000F04BF0021704730B54FF48064E6
:1044A00004F1320410F0004548BF40424FF00001D3
:1044B0003EE700BF42004FEAE2014FEA31014FEA16
:1044C00002701FBF12F07F4393F07F4F81F0605165
:1044D000704732F07F4208BF704793F07F4F04BFB0
:1044E00041F40021704730B54FF4607401F000458D
:1044F00021F000411CE700BF50EA010208BF7047ED
:1045000030B54FF000050AE050EA010208BF7047DD
:1045100030B511F0004502D5404261EB41014FF446
:10452000806404F132045FEA915C3FF4D8AE4FF04E
:1045300003025FEADC0C18BF03325FEADC0C18BF31
:10454000033202EBDC02C2F1200300FA03FC20FA82
:1045500002F001FA03FE40EA0E0021FA02F11444CF
:10456000BDE600BF70B54FF0FF0C4CF4E06C1CEAE8
:1045700011541DBF1CEA135594EA0C0F95EA0C0F59
:1045800000F0DEF82C4481EA030621EA4C5123EACC
:104590004C5350EA013518BF52EA033541F48011FB
:1045A00043F4801338D0A0FB02CE4FF00005E1FBAE
:1045B00002E506F00042E0FB03E54FF00006E1FBF8
:1045C00003569CF0000F18BF4EF0010EA4F1FF043B
:1045D000B6F5007F64F5407404D25FEA4E0E6D417B
:1045E00046EB060642EAC62141EA55514FEAC5208C
:1045F00040EA5E504FEACE2EB4F1FD0C88BFBCF508
:10460000E06F1ED8BEF1004F08BF5FEA500E50F1B8
:10461000000041EB045170BD06F0004646EA01017E
:1046200040EA020081EA0301B4EB5C04C2BFD4EBB0
:104630000C0541EA045170BD41F480114FF0000EA9
:10464000013C00F3AB8014F1360FDEBF002001F017
:10465000004170BDC4F10004203C35DA0C341BDC91
:1046600004F11404C4F1200500FA05F320FA04F063
:1046700001FA05F240EA020001F0004221F0004197
:1046800010EBD37021FA04F642EB06015EEA430E0A
:1046900008BF20EAD37070BDC4F10C04C4F120053A
:1046A00000FA04F320FA05F001FA04F240EA0200ED
:1046B00001F0004110EBD37041F100015EEA430EBE
:1046C00008BF20EAD37070BDC4F1200500FA05F2DE
:1046D0004EEA020E20FA04F301FA05F243EA02035D
:1046E00021FA04F001F0004121FA04F220EA02006C
:1046F00000EBD3705EEA430E08BF20EAD37070BDB2
:1047000094F0000F0FD101F00046400041EB010191
:1047100011F4801F08BF013CF7D041EA060195F073
:10472000000F18BF704703F00046520043EB03032D
:1047300013F4801F08BF013DF7D043EA060370471A
:1047400094EA0C0F0CEA135518BF95EA0C0F0CD025
:1047500050EA410618BF52EA4306D1D181EA03016B
:1047600001F000414FF0000070BD50EA410606BF65
:104770001046194652EA430619D094EA0C0F02D1AA
:1047800050EA013613D195EA0C0F05D152EA0336EF
:104790001CBF104619460AD181EA030101F000410D
:1047A00041F0FE4141F470014FF0000070BD41F056
:1047B000FE4141F4780170BD70B54FF0FF0C4CF430
:1047C000E06C1CEA11541DBF1CEA135594EA0C0F4F
:1047D00095EA0C0F00F0A7F8A4EB050481EA030E9C
:1047E00052EA03354FEA013100F088804FEA033383
:1047F0004FF0805545EA131343EA12634FEA022251
:1048000045EA111545EA10654FEA00260EF0004111
:104810009D4208BF964244F1FD0404F5407402D263
:104820005B084FEA3202B61A65EB03055B084FEAF4
:1048300032024FF480104FF4002CB6EB020E75EBF1
:10484000030E22BFB61A754640EA0C005B084FEA19
:104850003202B6EB020E75EB030E22BFB61A754696
:1048600040EA5C005B084FEA3202B6EB020E75EBE1
:10487000030E22BFB61A754640EA9C005B084FEA59
:104880003202B6EB020E75EB030E22BFB61A754666
:1048900040EADC0055EA060E18D04FEA051545EA55
:1048A00016754FEA06164FEAC30343EA52734FEAFE
:1048B000C2025FEA1C1CC0D111F4801F0BD141EA77
:1048C00000014FF000004FF0004CB6E711F4801FDC
:1048D00004BF01430020B4F1FD0C88BFBCF5E06FBC
:1048E0003FF6AFAEB5EB030C04BFB6EB020C5FEACC
:1048F000500C50F1000041EB045170BD0EF0004E21
:104900004EEA113114EB5C04C2BFD4EB0C0541EA52
:10491000045170BD41F480114FF0000E013C90E64F
:1049200045EA060E8DE60CEA135594EA0C0F08BF13
:1049300095EA0C0F3FF43BAF94EA0C0F0AD150EA12
:1049400001347FF434AF95EA0C0F7FF425AF1046A5
:1049500019462CE795EA0C0F06D152EA03353FF4CD
:10496000FDAE1046194622E750EA410618BF52EA4A
:1049700043067FF4C5AE50EA41047FF40DAF52EA1E
:1049800043057FF4EBAE12E74A0011D212F5001294
:1049900011D20DD56FF47873B3EB62520ED44FEA97
:1049A000C12343F0004343EA505323FA02F0704717
:1049B0004FF00000704750EA013002D14FF0FF3055
:1049C00070474FF00000704753B94AB9002908BF3B
:1049D00000281CBF4FF0FF314FF0FF3000F074B9DA
:1049E000ADF1080C6DE904CE00F006F8DDF804E046
:1049F000DDE9022304B070472DE9F047089E044624
:104A00008846002B40F085808A42154648D9B2FA84
:104A100082F24AB1C2F1200701FA02F320FA07F745
:104A2000954047EA030894404FEA154E230CB8FB23
:104A3000FEF71FFA85FC0EFB178843EA084307FBC5
:104A40000CF1994209D9EB1807F1FF3080F0E380AF
:104A5000994240F2E080023F2B445B1AA4B2B3FBC0
:104A6000FEF00EFB103344EA034400FB0CFCA445AB
:104A700009D92C1900F1FF3380F0CB80A44540F216
:104A8000C88002382C4440EA0740A4EB0C040027FD
:104A90001EB1D4400023C6E900433946BDE8F08783
:104AA000002A53D0B2FA82F2002A40F0B680491BA5
:104AB0004FEA154E1FFA85F80127B1FBFEFC230CC7
:104AC0000EFB1C1143EA014308FB0CF1994207D984
:104AD000EB180CF1FF3002D2994200F2EC808446D0
:104AE000591AA3B2B1FBFEF00EFB101443EA0444C2
:104AF00008FB00F8A04507D92C1900F1FF3302D2BA
:104B0000A04500F2DC801846A4EB080440EA0C4003
:104B1000BEE78B4208D9002E78D00027C6E90001F5
:104B200038463946BDE8F087B3FA83F77FB98B4240
:104B300002D3824200F2BD80841A61EB030301209C
:104B40009846002EA9D0C6E90048A6E7FFDEC7F1C7
:104B50002005BB4022FA05FC4CEA030C01FA07F4DD
:104B600020FA05F821FA05F34FEA1C4E48EA04043E
:104B7000B3FBFEF9210C0EFB19331FFA8CF841EA46
:104B8000034309FB08FA9A4502FA07F200FA07F113
:104B90000BD91CEB030309F1FF3080F088809A45A4
:104BA00040F28580A9F102096344A3EB0A03A4B291
:104BB000B3FBFEF00EFB103344EA034400FB08F89D
:104BC000A04508D91CEB040400F1FF336BD2A045CB
:104BD00069D90238644440EA0940A4EB0804A0FB08
:104BE00002894C45C6464B4654D351D0002E69D05D
:104BF000B1EB0E0264EB030404FA05F522FA07F3A5
:104C0000FC401D43C6E90054002746E737463046BE
:104C100043E7184637E707461FE7C2F1200320FAAB
:104C200003F7954001FA02F021FA03F34FEA154E1B
:104C30003843010CB3FBFEF71FFA85F80EFB173360
:104C400041EA034107FB08F38B4204FA02F407D957
:104C5000691807F1FF3C28D28B4226D9023F29442C
:104C6000CB1A81B2B3FBFEF00EFB103341EA0341D5
:104C700000FB08F38B4207D9691800F1FF3C10D202
:104C80008B420ED902382944C91A40EA074714E773
:104C90004145ABD2B8EB020E69EB0C02013813466A
:104CA000A4E76046F0E7184695E76746D8E78146EF
:104CB0007BE7384645E7ACF1020C2B4410E702389D
:104CC0002C4421E73746E8E6704700BF0A2200215E
:104CD00002F086B90EB403B5014603AB054853F89C
:104CE000042B0068019300F09DF902B05DF804EB1D
:104CF00003B070476401001070B50E4614460546B7
:104D000018B183690BB903F00DFA2B4B9C421ED1ED
:104D10006C68636EDA0705D4A3899B0502D4A06D85
:104D200000F06BF8A38918071BD52369CBB1013EAE
:104D300016F8011F39BB656E15F0010539D1A3893D
:104D4000990502D4A06D00F059F8284670BD1B4BA0
:104D50009C4201D1AC68DCE7194B9C4208BFEC686F
:104D6000D7E72146284602F0FFF90028DFD0636E1E
:104D7000DA0705D4A3899B0502D4A06D00F03EF8A4
:104D80004FF0FF35E1E7A368013B002BA36004DA95
:104D9000A269934206DB0A2904D023685A1C2260C8
:104DA0001970C5E72246284602F08CF90130BFD1C0
:104DB000DDE70D46C9E700BFB0B60000D0B6000081
:104DC00090B60000024B0A4601461868FFF794BFF0
:104DD00064010010074B10B51C6824B1A36913B916
:104DE000204603F09FF961682046BDE8104003F0BB
:104DF0007BBD00BF64010010704770477047FFFF24
:104E0000024B0146186800F089B800BF6401001029
:104E1000024B0146186800F033B800BF640100106F
:104E20000A44914200F1FF3300D1704710B511F8E8
:104E3000014B03F8014F9142F9D110BD884210B5E2
:104E400001EB020302D983421C4607D8421E994255
:104E500008D011F8014B02F8014FF8E783189A1AAD
:104E60009A4200D110BD14F8011D03F8011DF7E7A7
:104E700002440346934200D1704703F8011BF9E74F
:104E800038B50546002945D051F8043C0C1F002BCD
:104E9000B8BFE41803F034FE1F4A1368104633B954
:104EA000636014602846BDE8384003F02FBEA3427B
:104EB0000CD921686218934204BF1A685B6863606A
:104EC00004BF521822600460ECE713465A680AB126
:104ED000A242FAD919685818A0420BD1206801449F
:104EE000581882421960DDD1106852685A60014436
:104EF0001960D7E702D90C232B60D3E7206821186B
:104F00008A4204BF11685268626004BF09182160B8
:104F10005C60C7E738BD00BFE4120010F8B5CD1CD7
:104F200025F0030508350C2D38BF0C25002D06464D
:104F300001DBA94203D90C2333600020F8BD03F044
:104F4000DFFD21490A6814469CB9204F3B6823B90C
:104F50002146304601F054F838602946304601F0C9
:104F60004FF8431C23D10C233360304603F0CEFDB1
:104F7000E3E723685B1B17D40B2B03D923601C4486
:104F8000256004E06368A2420CBF0B6053603046AA
:104F900003F0BCFD04F10B00231D20F00700C21A32
:104FA000CCD01B1AA350C9E722466468CCE7C41CC6
:104FB00024F00304A042E3D0211A304601F020F887
:104FC0000130DDD1CFE700BFE4120010E81200107D
:104FD0009368013B002B10B4936008DA9469A342F4
:104FE00001DB0A2903D15DF8044B02F06BB81368AA
:104FF000581C1060197008465DF8044B7047F8B5EE
:1050000006460F461446D518AC4201D1002007E0F1
:105010003A4614F8011B3046FFF7DAFF431CF3D180
:10502000F8BDFFFF2DE9F04F0D469DB014461E461A
:10503000074618B183690BB903F074F8854B9D429C
:105040001BD17D686B6ED90705D4AB899A0502D454
:10505000A86DFFF7D2FEAB891B0701D52B69EBB911
:105060002946384602F080F8C0B16B6ED8070ED5DD
:105070004FF0FF301DB0BDE8F08F774B9D4201D15E
:10508000BD68DFE7754B9D4208BFFD68DAE7AB8975
:105090009905EDD4A86DFFF7B1FEE9E70023099368
:1050A00020238DF82930DFF8B891039630238DF84E
:1050B0002A304FF0010A23461E4613F8012B0AB18D
:1050C000252AF9D1B6EB040B0BD05B4622462946C4
:1050D0003846FFF794FF013000F0A380099B5B4442
:1050E00009933378002B00F09C8000234FF0FF32AF
:1050F000CDE905230136049307938DF853301A93B5
:105100003446052214F8011B554803F0A9FC049B02
:10511000C0B9DA0644BF20228DF85320180744BFD7
:105120002B228DF8532032782A2A13D0079A34463E
:1051300000200A26214611F8013B303B092B4BD9B0
:1051400070B914E0A0EB09000AFA00F018430490CB
:105150002646D5E7039A111D12680391002A01DB48
:10516000079204E0524243F002030792049323782B
:105170002E2B0CD163782A2B33D1039B1A1D1B686D
:105180000392002BB8BF4FF0FF3302340593354E26
:1051900021780322304603F063FC38B14023801BA2
:1051A00003FA00F0049B03430134049314F8011B39
:1051B0002D488DF82810062203F052FC00283FD01D
:1051C0002A4B13BB039B073323F0070308330393D6
:1051D000099B434409936EE706FB023201200C460B
:1051E000A8E700230134059319460A26204610F843
:1051F000012B303A092A03D9002BC8D00591C6E704
:1052000006FB012101230446F0E703AB00932A4685
:10521000174B04A9384600F0BDF8B0F1FF3F8046B7
:10522000D6D16B6ED90705D4AB899A0502D4A86D87
:10523000FFF7E4FDAB895B063FF51AAF099819E764
:1052400003AB00932A460A4B04A9384600F042FB00
:10525000E3E700BFB0B60000D0B6000090B6000093
:10526000E8B50000EEB50000F2B50000955300006F
:10527000FF4F00002DE9FF4755EC104B002D0E4667
:1052800091461946DDF830A04FF0000203DA05F12F
:1052900000431D462D220D9F0A7027F02007462F40
:1052A00004D0452F00D10136022100E0032103ABD9
:1052B000019302AB00933246534645EC104B02F08B
:1052C0004BF8472F804602D119F0010F22D0462F0C
:1052D00008EB060911D198F80030302B0AD10022D2
:1052E00000232046294604F097FF18B9C6F10106AD
:1052F000CAF80060DAF80030994400220023204602
:10530000294604F089FF08B1CDF80C903022039BA8
:105310004B4508D3039B0E9AA3EB0803404613604A
:1053200004B0BDE8F087591C03911A70EFE7F7B598
:105330000029BABF49422D232B230929027043704B
:1053400021DD0DF107031F460A2691FBF6F206FB4D
:1053500012143034632903F1FF3503F8014C0ADCE1
:10536000303205F8012C023B821CBB42144605D3A7
:10537000201A03B0F0BD2B461146E6E713F8011BD7
:1053800002F8011BF1E7302319448370041DC1703A
:10539000EEE7FFFF2DE9F04F8DB00C46DDF85880A9
:1053A00016461F46054603F0DFFA036806931846C3
:1053B00000F047FF00230A93D8F800300790073326
:1053C00023F0070303F1080294F818A0D4F800B002
:1053D000C8F80020D3E90023C4E9122394ED127B1E
:1053E0008DED047BDDE9048323F000494FF0FF32AB
:1053F000A64B4046494604F041FF70BB4FF0FF32D8
:10540000A24B4046494604F01BFF30BB002200235C
:10541000DDE9040104F00AFF10B12D2384F84330C4
:105420009B4A9C4BBAF1470F94BF90469846032382
:105430002BF00402236122604FF0000900973346ED
:105440000BAA2146284600F0CFF9013040F08C80AD
:105450004FF0FF300DB0BDE8F08FDDE904231046BA
:10546000194604F00BFF40B1059B8B4A002BBCBFD3
:105470002D2384F84330894BD4E763685A1C0AF023
:10548000DF093ED106236360002303930AAB4BF48C
:105490008062CDE901A309AB0093616822600DF140
:1054A00023039DED040B2846FFF7E4FEB9F1470FF7
:1054B0008046099908D1C81C02DB6368994241DD26
:1054C000AAF1020A5FFA8AFABAF1650F20D8013907
:1054D000524604F150000991FFF729FF0A9A131868
:1054E000012A8146236102DC2268D20701D50133FB
:1054F00023619DF82330002BA0D02D2384F8433066
:105500009CE7B9F1470FBFD1002BBDD10123BAE70A
:10551000BAF1660F18D1002963680BDD216113B958
:105520002268D00702D501330B442361A1654FF0F7
:105530000009DEE713B92268D20701D50233F4E788
:105540000123F2E74FF0670A0A9B994205DB2368C3
:105550002161D807EAD54B1CE7E70029D4BFC1F188
:10556000020201221344E0E723685A0507D42369A5
:10557000424631462846B84701302BD168E7BAF198
:10558000650F40F2DC8000220023D4E9120104F010
:1055900043FE002833D00123414A31462846B8470C
:1055A00001303FF455AFDDE909239A4202DB23685D
:1055B000D8070FD5DDE9062331462846B847013024
:1055C0003FF446AF4FF0000804F11A090A9B013B73
:1055D000434509DC23689B0700F10181E0680B9BD0
:1055E0009842B8BF184635E701234A463146284657
:1055F000B84701303FF42CAF08F10108E6E7099BFA
:10560000002B2BDC0123264A31462846B8470130BF
:105610003FF41EAFDDE90923134302D12368D90704
:10562000D8D5DDE9062331462846B84701303FF496
:105630000FAF4FF0000904F11A0A099B5B424B457A
:1056400001DC0A9B94E70123524631462846B847BD
:1056500001303FF4FDAE09F10109EEE70A9AA36DAE
:105660009A42A8BF1A46002A914607DD13463146E2
:1056700042462846B84701303FF4EAAE04F11A0327
:105680004FF0000B29EAE979049315E0FFFFEF7F63
:10569000F9B50000FDB5000001B6000005B6000038
:1056A00012A900000123049A31462846B847013068
:1056B0003FF4CEAE0BF1010BD4F858A0AAEB0903CE
:1056C0005B45EFDCDDE909239A421BDB2368DA073F
:1056D00018D4DDE9092392451CDBA3EB0A09B9F1D3
:1056E000000F08DD4B4608EB0A0231462846B84752
:1056F00001303FF4ADAE4FF0000829EAE97904F13A
:105700001A0A14E0DDE9062331462846B84701307D
:10571000DFD19DE6A3EB0209E1E7012352463146C2
:105720002846B84701303FF493AE08F10108DDE99F
:1057300009239B1AA3EB09034345EEDC4AE70A9AC7
:10574000012A01DCDB0737D50123424631462846D2
:10575000B84701303FF47CAEDDE9062331462846E8
:10576000B84701303FF474AE00220023D4E912019F
:1057700004F052FDD8B90A9B08F10102013B314601
:105780002846B84701300ED162E601235246314621
:105790002846B84701303FF45BAE08F101080A9B88
:1057A000013B4345F1DC4B4604F15002E1E64FF08A
:1057B000000804F11A0AF2E701234246DFE7012359
:1057C0004A4631462846B84701303FF441AE08F119
:1057D0000108E3680B9A9B1A4345F0DCFEE64FF0A4
:1057E000000804F11909F4E72DE9F04791461F4636
:1057F0008A680B69DDF820809342B8BF1346C9F868
:10580000003091F8432006460C4612B10133C9F826
:1058100000302368990642BFD9F800300233C9F836
:105820000030256815F0060507D104F1190AE36870
:10583000D9F800209B1AAB4228DC94F84330226848
:10584000003318BF012392062DD404F143023946D8
:105850003046C047013020D02368E568D9F80020E1
:1058600003F00603042B08BFAD1AA36822690CBF1E
:1058700025EAE57500259342C4BF9B1AED184FF049
:1058800000091A344D451AD1002008E00123524680
:1058900039463046C047013003D14FF0FF30BDE8F4
:1058A000F0870135C3E7E1185A1C302081F8430026
:1058B000224494F8451082F843100233C5E70123CF
:1058C000224639463046C0470130E6D009F1010989
:1058D000D8E7FFFF2DE9F04306460C4601F14300EF
:1058E000097E85B06E29984617460C9B00F0BA8059
:1058F00024D8632939D00AD8002900F0C380582958
:1059000000F0918004F1420584F8421035E06429EA
:1059100001D06929F6D125681A6815F0800F02F1C7
:1059200004012CD012681960002A03DA2D23524298
:1059300084F84330DFF8BCC10A233FE0732900F04C
:10594000A58008D86F2921D07029DBD1226842F0C8
:105950002002226003E0752918D07829D2D178225C
:1059600084F84520DFF890C161E01A68111D1960C4
:10597000136884F8423004F14205012393E0126871
:10598000196015F0400F18BF12B2CDE7D4F800C06F
:105990001A681CF0800F02F104051D6001D0126826
:1059A00003E01CF0400FFAD01288DFF848C16F29DD
:1059B0000CBF08230A23002184F843106568A56002
:1059C000002DA2BF216821F0040121600AB9002D39
:1059D00046D00546B2FBF3F103FB112E93421CF8AF
:1059E0000EE005F801ED39D9082B0BD12368DA0751
:1059F00008D5236962689A42DEBF302305F8013C6E
:105A000005F1FF35401B2061CDF800803B4603AA1D
:105A100021463046FFF7E8FE013049D14FF0FF3014
:105A200005B0BDE8F083DFF8CCC084F845101D68F0
:105A3000216855F8042B1D600D060BD5CD0744BF1A
:105A400041F0200121601AB9236823F0200323606C
:105A50001023B0E74B0648BF92B2EFE70A46B9E71A
:105A60000546C1E71A68D4F800C06169151D1D60BC
:105A70001CF0800F136801D0196003E01CF0400F88
:105A8000FAD01980002323610546BDE71A68111D6D
:105A90001960156862680021284602F0E1FF08B12C
:105AA000401B606063682361002384F84330ABE7E8
:105AB00023692A4639463046C0470130AED02368B4
:105AC0009B0713D4E068039B9842B8BF1846A7E72A
:105AD00001234A4639463046C04701309ED0013541
