:10000000000001100D01000029010000290100007D
:100010002901000029010000290100002901000038
:10002000290100002901000029010000011200003F
:10003000290100002901000061120000C512000022
:10004000B9150000B9150000B9150000B915000078
:10005000B9150000B9150000B9150000B915000068
:10006000B9150000B9150000B9150000B915000058
:10007000B9150000B9150000B9150000B915000048
:10008000B9150000B9150000B9150000B915000038
:10009000B9150000B9150000B9150000B915000028
:1000A000B9150000B9150000B9150000B915000018
:1000B000B9150000B9150000B9150000B915000008
:1000C000B9150000B9150000B9150000B9150000F8
:1000D000B9150000B9150000B9150000B9150000E8
:1000E000B9150000641B0000000000106C01000046
:1000F000641B000000000020000000006C010010E4
:1001000054010000000000200000000008B501F0CC
:100110008BF901F091F901F02BF901F025F901F0CB
:10012000A5FB00F051F8FEE7FEE745780478466845
:1001300008B52946204601F0C5F92946204601F0B8
:10014000EFF90028F9D02946204601F0E9F90346E5
:100150000028F8D102460146304600F01DFA64201E
:1001600000F022FEE9E7F8B54578047847682946AB
:10017000204601F0B5F92946204601F0BDF90026D8
:100180000021384600F0D2FAA8B1B6B92946204677
:1001900001F0BCF94FF4FA7000F006FE2946204643
:1001A00001F0AAF94FF4FA7000F0FEFD0126642078
:1001B00000F0FAFDE4E7002EE8D12946204601F0E0
:1001C0009BF90026F3E7FFFF2DE9F7430122022107
:1001D000002001F067F901220321002001F062F9FB
:1001E00001F0C2F84FF4E1320146002001F086FA36
:1001F00000220121802000F0B5F9002204460121EF
:10020000202000F0AFF921460246002001F0A8FAB4
:1002100003220021012000F0A5F9264CDFF8B88068
:10022000206003220021012000F09CF9224B234F83
:100230001860234B234EDFF8A490C8F8040041F661
:1002400001021A804FF4E06122685A6000240125FF
:10025000A8F800107A604FF4F0514FF41062398022
:1002600032807060CDE9005480221749484600F082
:1002700091FB4346DFF868801449CDE900548022A1
:10028000484600F087FB3B46CDE9005480221049E8
:10029000404600F07FFB334680220E49CDE90054F2
:1002A000404600F077FB00F055FC204603B0BDE867
:1002B000F08300BFAC010010B00100108C010010F1
:1002C0006C0100109C010010A81A0000B51A000073
:1002D000C21A0000D21A00007C0100106701000061
:1002E0002B01000008B5002001F0D4FAFEE7FFFF63
:1002F00008B50249002001F0CDFAFEE7E21A00003D
:10030000704700F108034FF0FF324360C0E9022359
:100310000361002303607047002303617047436853
:100320004B609A688A609A685160996003680861B6
:100330000133036070470A68531C30B50AD1036962
:100340005A684A6091608B605960036808610133A4
:10035000036030BD00F108035C6825689542EFD862
:100360002346F9E7D0E9011203698A6051605968B0
:10037000814208BF5A60002202611A68013A1A607D
:100380001868704710B5044600F04CFFA46B00F0ED
:1003900059FFB4FA84F0400910BDF8B51546026C57
:1003A000866B044652B9076847BB806800F03EFE82
:1003B000A76005460136A6632846F8BD65B94068C2
:1003C00001F08EFA6368226C1344A2686360934262
:1003D000F0D323686360EDE7C06801F081FA236C15
:1003E000E26821685B421A448A42E2603EBFA2682A
:1003F0009B18E360022D01D116B1013E0025D9E71B
:100400003546D7E773B5856C01900A46EB6BA96B4F
:1004100099421AD295F8454001A92846FFF7BDFF39
:1004200064B2631C06460BD16B6A33B105F124003C
:1004300000F028FD002818BF0126304602B070BD2C
:10044000013464B285F84540F7E70026F5E7034636
:1004500010B41A6C084662B1D9689C681144A14274
:10046000D96024BF1968D960D9685DF8044B01F0E0
:1004700037BA5DF8044B704770B5044600F0D2FE01
:1004800094F8455004F124066DB2002D14DCFF23CE
:1004900084F8453000F0D6FE00F0C4FE94F84450D5
:1004A00004F110066DB2002D19DCFF2384F84430EE
:1004B000BDE8704000F0C6BEA36C4BB100212046E1
:1004C000FFF7A0FF08B100F049FD013D6DB2DCE788
:1004D000636A002BDBD0304600F0D4FCF2E72369DE
:1004E000002BE2D0304600F0CDFC08B100F036FD24
:1004F000013D6DB2D7E7FFFF38B504460D4600F069
:1005000091FED4E90F30226862604343D1181B1A70
:100510001344A160E3600021FF23A16384F8443009
:1005200084F8453095B9236963B104F1100000F0F7
:10053000A9FC38B10A4B4FF080521A60BFF34F8FBD
:10054000BFF36F8F00F07EFE012038BD04F1100074
:10055000FFF7D7FE04F12400FFF7D3FEF2E700BF58
:1005600004ED00E070B5064648434C300D4600F0FF
:10057000E1FD044658B165B100F14C032360C4E9C4
:100580000F6501212046FFF7B7FF0023A364204633
:1005900070BD0346F2E7FFFF2DE9FF470027DFF8B4
:1005A0000891019204468A461E46B84600F03AFE7B
:1005B000A26BE36B9A4201D3022E25D132465146FB
:1005C0002046A56BFFF7E9FEA36CABB1022E00D16C
:1005D00065B931462046FFF715FF38B1324B4FF071
:1005E00080521A60BFF34F8FBFF36F8F00F02AFE67
:1005F000012004B0BDE8F087636A002BEDD004F160
:10060000240000F03FFCE8E7019D1DB900F01AFE50
:100610000020EEE717B902A800F06CFC00F012FE13
:1006200000F0C8FA00F0FEFD94F84430FF2B08BF3C
:1006300084F8448094F84530FF2B08BF84F8458047
:1006400000F000FE01A902A800F060FC28BB00F049
:10065000E9FDA26BE36B9A420ED100F0F3FD019924
:1006600004F1100000F0FEFB2046FFF705FF00F04C
:100670002FFB48B1012799E700F0E4FD2046FFF782
:10068000FBFE00F025FBF5E74FF08053C9F8003082
:10069000BFF34F8FBFF36F8FECE72046FFF7ECFE01
:1006A00000F016FBB4E700BF04ED00E02DE9F041D7
:1006B000044690461F46EFF311864FF0500383F334
:1006C0001188BFF36F8FBFF34F8F826BC36B9A425A
:1006D00001D3022F28D194F845503A466DB22046F6
:1006E000FFF75BFE6B1C1AD1A36C83B13946204621
:1006F000FFF788FE08B9012005E0B8F1000FFAD035
:100700000120C8F8000086F31188BDE8F081636A13
:10071000002BF0D004F1240000F0B4FBEAE701352F
:100720006DB284F84550E6E70020ECE72DE9F04390
:1007300085B00025DFF81891019104462F462E461A
:1007400000F070FDA36BE3B1013BA363236813B911
:1007500000F0E4FCA060236963B104F1100000F034
:1007600091FB38B13A4B4FF080521A60BFF34F8F74
:10077000BFF36F8F00F066FD0125284605B0BDE888
:10078000F083DDF80480B8F1000F03D100F05AFDCA
:100790000025F2E717B902A800F0ACFB00F052FD0B
:1007A00000F008FA00F03EFD94F84430FF2B08BF3B
:1007B00084F8446094F84530FF2B08BF84F8456006
:1007C00000F040FD01A902A800F0A0FB40BB2046BC
:1007D000FFF7D8FDF0B123683BB900F023FDA06816
:1007E00000F0D2FB054600F02DFD019904F1240034
:1007F00000F038FB2046FFF73FFE00F069FA38B9F9
:100800004FF08053C9F80030BFF34F8FBFF36F8FA5
:10081000012795E72046FFF72FFE00F059FAF7E78A
:100820002046FFF729FE00F053FA2046FFF7AAFD05
:100830000028EDD0002DA0D000F0F4FC616A19B1C1
:10084000236B1968C1F10501A06800F027FC9DE742
:1008500004ED00E02DE9F04107469046EFF31186E4
:100860004FF0500383F31188BFF36F8FBFF34F8FA7
:10087000846B0CB390F844506DB2FFF7E8FD013C77
:100880006B1CBC6313D13B690BB901200BE007F172
:10089000100000F0F7FA0028F7D0B8F1000FF4D0FC
:1008A0000120C8F8000086F31188BDE8F081013509
:1008B0006DB287F84450E8E72046F4E708B5074CE6
:1008C000074D4FF080562368012B04D92E60BFF3EB
:1008D0004F8FBFF36F8FFFF713FDF4E7C0010010D8
:1008E00004ED00E0064A13681968064B19B94FF089
:1008F000FF321A6070471268D268D2685268F8E70F
:10090000B801001064020010F8B51B4B1B4E1C68A8
:100910000546306804300F46FFF724FD334640B9E2
:100920003168174EC96A32680120884022EA000205
:1009300032606A1C07D137B1196812480431BDE82A
:10094000F840FFF7ECBC1A686419546007D30E4AEC
:1009500010681968BDE8F8400431FFF7ECBC0B4A99
:10096000106819680431FFF7E6FC094B1A68A242C7
:1009700088BF1C60F8BD00BF98020010B4010010D1
:100980003402001084020010BC010010B8010010F5
:10099000640200102DE9F84F9600814630460D465E
:1009A0009A4600F0C7FB074698B1502000F0C2FB02
:1009B000044658B107633246A521384600F09EFF31
:1009C000D4F830B045B984F8345013E0384600F01C
:1009D000C0FB4FF0FF358CE06B1E04F134020B3589
:1009E00013F8011F02F8011B09B19D42F8D1002341
:1009F00084F83F300A9D042D28BF04254FF00008DD
:100A0000271DE56225643846C4F84480043EFFF79C
:100A100083FCC5F1050504F118005E44FFF77CFC7A
:100A2000C4F848802461A561646284F84C80524611
:100A3000494626F0070000F0C7FB0B9B206003B17E
:100A40001C6000F0EFFB324B324E1A68DFF8FC807E
:100A500001321A603268002A4ED134601B68012BC3
:100A600022D12D48DFF8E8902C4DFFF74AFC2C48A6
:100A7000FFF747FC2B48FFF744FC2B48FFF741FCEE
:100A80002A48FFF73EFC4846FFF73BFC2846FFF7A5
:100A900038FC2748FFF735FC2648FFF732FC264B89
:100AA000C3F80090254B1D60254A26491368086845
:100AB00001331360E26A012505FA02F303430B6078
:100AC000154B142000FB02303946FFF728FC00F0DC
:100AD000B9FBD8F8003063B13368DA6AE36A9A4246
:100AE00007D2194B4FF080521A60BFF34F8FBFF3FC
:100AF0006F8F2846BDE8F88FD8F80030002BD3D18F
:100B00003368E26ADB6A9A4228BF3460CCE700BFF0
:100B100024020010B4010010C00100104C020010AB
:100B2000D4010010E8010010FC01001010020010B8
:100B30006C02001084020010B8010010BC0100100B
:100B4000300200103402001004ED00E080020010BA
:100B50003802001013B5114B019300240094234672
:100B600080220F490F48FFF715FF012814D14FF0DD
:100B7000500383F31188BFF36F8FBFF34F8F0A4B7E
:100B80004FF0FF321A60094B1860094B1C6002B02D
:100B9000BDE8104000F0C4BB02B010BD6002001000
:100BA000181B0000BD080000640200108002001045
:100BB00098020010024A136801331360704700BFA7
:100BC0002C0200102DE9F84F364B1B68002B62D128
:100BD000354B1C6801341C605CB9344A344B1168D5
:100BE00018681060334A1960136801331360FFF707
:100BF00079FE314D314F2B68A3424FF0000B11D9D4
:100C00003A682F4BD16A14224A439A58022A28BFC5
:100C10004FF0010B2B4A1268002A0CBF58460120E6
:100C2000BDE8F88FDFF884A0DFF8A090DAF80020A4
:100C300012681AB94FF0FF322A60E1E7DAF80020B3
:100C4000D268D66871688C4201D22960D8E706F173
:100C500004084046FFF786FBB16A19B106F1180097
:100C6000FFF780FBF06AD9F80030012202FA00F1A8
:100C70001943134BC9F800104FF0140C41460CFBFC
:100C80000030FFF74CFB3868F16AC26A914228BF16
:100C90004FF0010BCAE70C4A1368013313604FF0A1
:100CA000000BB7E72C02001098020010B8010010EA
:100CB000BC0100106802001064020010B4010010B2
:100CC000C00100109C020010280200103402001025
:100CD0002DE9F84300F0A6FA2A4B1A68013A1A6087
:100CE0001C682CB1002400F0ADFA2046BDE8F88362
:100CF000254B1B68002BF5D0244D254EDFF8A48032
:100D00001FE0EB68DC6804F1040904F11800FFF748
:100D100029FB4846FFF726FBE26A3168012707FAFC
:100D200002F314200B4300FB028049463360FFF7B7
:100D3000F6FA184BE26A1B68DB6A9A4201D3164B3B
:100D40001F602B68002BDCD10CB1FFF7CBFD134DDE
:100D50002C6844B1104E0127FFF734FF00B1376013
:100D6000013CF9D12C600C4B1B68002BBAD00C4B0A
:100D70004FF080521A60BFF34F8FBFF36F8F012483
:100D8000B1E700BF2C020010240200106C0200101A
:100D900034020010B40100109C0200102802001060
:100DA00004ED00E0C001001008B540B9094B4FF058
:100DB00080521A60BFF34F8FBFF36F8F08BDFFF7EC
:100DC000F9FE0021FFF7A0FDFFF782FF0028EDD01C
:100DD000F4E700BF04ED00E01D4B1A681D4B70B531
:100DE00012B101221A6070BD1B4C1A6023681B6B84
:100DF0001A68B2F1A53F0BD15A68B2F1A53F07D1ED
:100E00009A68B2F1A53F03D1DB68B3F1A53F04D0E6
:100E1000206821683431FFF765FA104B1B68B3FA7C
:100E200083F3DBB20E49C3F11F03142000FB03F26E
:100E30008D1808326E6876686E600A44964204BF68
:100E400072686A6000FB03135B68DB682360CAE7B3
:100E50002C0200109C020010B4010010340200109B
:100E6000C001001010B5064B0C4619681831FFF789
:100E700062FA20460121BDE81040FFF745BD00BFE2
:100E8000B401001038B5C368DC6804F118052846C1
:100E9000FFF768FA114B1B68E3B9251D2846FFF7D9
:100EA00061FA0F49E26A08680123934003430B602B
:100EB0000C4B1420294600FB0230FFF730FA0A4B96
:100EC000E26A1B68DB6A9A4283BF084B0120186004
:100ED000002038BD29460648EFE700BF2C0200106D
:100EE00034020010C0010010B40100109C02001078
:100EF0006C020010034B1B680360034B1B684360CC
:100F0000704700BF680200109802001070B50C46D0
:100F1000054600F087F90F4B196823685A1C10D05A
:100F20000D482E6800686A68864201D08A420FD94F
:100F3000881A83420AD95B1A134423602846FFF7B4
:100F4000D9FF002400F07EF9204670BD0023236005
:100F50000124F7E79802001068020010014B0122FB
:100F60001A6070479C020010054B1B6833B1054B9B
:100F70001B68002B0CBF0220002070470120704727
:100F8000800200102C0200102DE9F04104460028D8
:100F900035D0234AC36A1168C96A8B42174636D2D4
:100FA0008269204D002AA1BF3A68D26AC2F10502C7
:100FB00082611426426906FB03539A4221D100F153
:100FC00004084046FFF7CEF9174B48B9E06A46439C
:100FD000AA592AB91A680121814022EA01021A603D
:100FE0003A681968D26AE262012404FA02F00843FE
:100FF00018601420414600FB0250FFF790F920468C
:1010000003E03B68DB6AC3620120BDE8F08113683E
:10101000006CDC6AA0422CBF00200120F5E700BF75
:10102000B4010010C001001034020010F8B50446ED
:1010300008B90020F8BD436CC16A026C013B9142C3
:101040004364F6D0002BF4D1051D2846FFF78AF93A
:10105000104E114A50B9E76A1421794373582BB9DD
:1010600013680120B84023EA00031360236CE36295
:10107000C3F10501A1611168012404FA03F00843DA
:101080001060142000FB03602946FFF748F9204652
:10109000D0E700BFC001001034020010F8B50446CC
:1010A000002836D0036C994238BF1946C36A8B4278
:1010B0002FD0426C012A2CD18269164DC162002AC0
:1010C0004FF014064269A8BFC1F1050106FB0353A6
:1010D000A8BF81619A421CD1071D3846FFF742F92B
:1010E000E26A0D4C40B95643AB592BB92368012134
:1010F000914023EA010323602168012393400B43BD
:1011000014202360394600FB0250BDE8F840FFF789
:1011100006B9F8BDC001001034020010044B1A6873
:101120001AB119684A6C01324A641868704700BFE6
:10113000B401001010B50446FFF73CFD204600F056
:10114000BFFB0446FFF7C4FD0CB9FFF7D1F82046FA
:1011500010BD10B5044640B1FFF72CFD204600F04D
:10116000B7FBBDE81040FFF7B3BD10BD82B0002350
:1011700001934FF0500383F31188BFF36F8FBFF3D8
:101180004F8F019B002BFCD002B0704708480068CD
:10119000006880F308884FF0000080F3148862B67E
:1011A00061B6BFF34F8FBFF36F8F00DF00BF00004A
:1011B00008ED00E0DFF80C00016841F47001016007
:1011C0007047000088ED00E04FF0807340F8043C69
:1011D000074B40F80C3C21F001016FF0020340F88E
:1011E000081C40F8202C40F8243C4438704700BFCD
:1011F0006D110000FFFFFFFFFFFFFFFFFFFFFFFF7D
:10120000074B19680868B0E8F04F80F30988BFF30E
:101210006F8F4FF0000080F311887047AFF30080AC
:10122000B40100104FF0500383F31188BFF36F8FA8
:10123000BFF34F8F024A136801331360704700BF3A
:1012400000000010034A1368013B13600BB983F3DD
:101250001188704700000010FFFFFFFFFFFFFFFF36
:10126000EFF30980BFF36F8F154B1A681EF0100F54
:1012700008BF20ED108A20E9F04F10602DE9090029
:101280004FF0500080F31188BFF34F8FBFF36F8F83
:10129000FFF7A2FD4FF0000080F3118809BC196828
:1012A0000868B0E8F04F1EF0100F08BFB0EC108ACD
:1012B00080F30988BFF36F8F704700BFAFF30080E2
:1012C000B401001008B54FF0500383F31188BFF349
:1012D0006F8FBFF34F8FFFF775FC18B1034B4FF0C3
:1012E00080521A60002383F3118808BD04ED00E0EA
:1012F00010B5084A084C00232360136000F034F84E
:101300004FF47A73B0FBF3F0044B013818600723F5
:10131000236010BD18E000E010E000E014E000E001
:101320000E4B1A6842F0F87210B51A601A6842F053
:1013300070421A60FFF7DCFF094B00241C60FFF7C6
:1013400039FF084A136843F040431360FFF71EFF5C
:10135000FFF742FDFFF70AFF204610BD20ED00E039
:101360000000001034EF00E00048704700D8B805D6
:101370000E4B0722C3F88420AA210122C3F8802043
:10138000C3F88C105521C3F88C10C3F8A821D3F8EA
:1013900088205205FBD51A6822F4704242F480423C
:1013A0001A6040F20112C3F80421704700C00F40D8
:1013B0000A4A0B4B0B498B4205D30B4A0B4B0C498A
:1013C0008B4205D3704712F8010B03F8010BF2E7CB
:1013D00012F8010B03F8010BF2E700BF641B0000D9
:1013E000000000106C010010641B000000000020D1
:1013F00000000020084B094A0021934205D3084B06
:10140000084A0021934203D3704703F8011BF4E715
:1014100003F8011BF6E700BF6C010010C0020010CA
:10142000000000200000002008B5FFF7C1FFBDE864
:101430000840FFF7DFBFFFFF034AD2F8883043F4CC
:101440007003C2F88830704700ED00E0064B196861
:10145000024609B9054919601868054902448A42DB
:1014600034BF1A6000207047A00200100000002066
:101470000080002082B0C3B2ADF80400C0F30720A2
:10148000800000EBC31000F1804000F5303001F027
:101490000701036823F00703036003681943016031
:1014A00002B0704737B58DF801108DF80000044682
:1014B0000D4600981146FFF7DDFF44EA052003B012
:1014C00030BDFFFF054B53F820000122036802FAEC
:1014D00001F123EA01030360704700BF201B0000F5
:1014E000044B53F820200123106803FA01F1014353
:1014F00011607047201B0000034B53F8202001238C
:1015000003FA01F191617047201B0000034B53F86F
:101510002020012303FA01F1D1617047201B000054
:10152000054B53F820305A69012303FA01F11142A7
:1015300014BF184600207047201B00002DE9F04121
:101540000B4C04EBC00390461E79054630460F460F
:1015500000F03EF84146304600F04CF854F8353083
:1015600000229A601A670122DF605A60BDE8F081AC
:10157000381B0000094B70B553F8300001EB4105F2
:1015800001246B1C466904FA03F3AC402343334344
:101590004361183040F8212070BD00BF381B0000A7
:1015A000034B53F83020012303FA01F11160704717
:1015B000381B0000FEE7FFFF034B044A1B78103B7B
:1015C000DBB252F82330184704ED00E004000010AD
:1015D000082809D8054B064A185CD2F8C410012324
:1015E00083400B43C2F8C430704700BF581B000053
:1015F00000C00F40074B43F8201043B2002B08DB1C
:10160000012200F01F0002FA00F05B09024A42F8D2
:10161000230070470400001000E100E002689368B6
:10162000C3F34203022B73B5064623D0062B21D009
:10163000012B34D100248DF803400194102501AA18
:101640000DF103013069FFF705F948B133689DF8E2
:1016500003201A70019B002B18BF0124013DEED11D
:101660000CB3124B4FF080521A60BFF34F8FBFF391
:101670006F8F18E00024019433681A7DD207EFD5EC
:101680001B788DF8033001AA00230DF10301706966
:10169000FFF70CF8019B002B18BF0124ECE7137D2A
:1016A000DBB20193019B02B070BD00BF04ED00E00E
:1016B0000148FFF7B3BF00BFF00000100148FFF77B
:1016C000ADBF00BFD80000100148FFF7A7BF00BFA3
:1016D000C00000100148FFF7A1BF00BFA800001024
:1016E00010B5044681680079FFF784FF2368412222
:1016F0001A7206221A7207225A6010BD2DE9F041B3
:10170000DFF858801825454308EB05060C46337B67
:1017100017460BBB3079FFF75BFF3F01B4FBF7F3D4
:1017200007EE903AF8EE677AB6EE007A77EE877AAF
:1017300058F80520FCEEE77A802117EE903A9BB22C
:101740001173190ADBB211711370102382F828305B
:101750000723137301233373BDE8F081A800001041
:10176000104B70B5182404FB0034257B15B90025F7
:10177000284670BD66690EB901B16161182101FB8F
:1017800000310C690CB902B10A61182202FB003069
:101790004369002BEBD00369002BE8D0FFF7A0FFD3
:1017A000E6E700BFA80000102DE9F3410446174FFB
:1017B0008DF80710182565437E199046FFF7D4FB76
:1017C0003469ECB102281FD1002342460DF1070114
:1017D0002046FEF7E1FE041C18BF0124FFF722FD9E
:1017E0007D592B7D5B0609D500220DF1070130697B
:1017F000FFF730F810B19DF807302B70FFF722FD8E
:10180000204602B0BDE8F0810024F9E7A8000010EE
:10181000F8B5182343430F4A0646D718D4580D4647
:10182000FFF7A2FB0346387B60B1022B0BD13B696B
:101830004BB14FF0FF3229463046FFF7B5FF237D0D
:101840009B06FCD5F8BD237D9A06FCD525700020AB
:10185000F5E700BFA8000010034A13680021013318
:1018600008461360FFF79CBEA402001010B5074A9B
:10187000074CB0FBF4F100200139FFF75FFE0021B7
:1018800022460846BDE81040FFF774BE5918000014
:1018900040420F0070B5054608460C4600F0EEF8D1
:1018A0002618B44205D128460A21BDE87040FFF74A
:1018B000AFBF14F8011B2846FFF7AAFFF1E7FFFFAF
:1018C000024B0146186800F06FB800BF0801001015
:1018D000024B0146186800F019B800BF080100105B
:1018E0000A44914200F1FF3300D1704710B511F85E
:1018F000014B03F8014F9142F9D110BD0244034658
:10190000934200D1704703F8011BF9E738B505464B
:10191000002945D051F8043C0C1F002BB8BFE41837
:1019200000F0B4F81F4A1368104633B963601460BE
:101930002846BDE8384000F0AFB8A3420CD9216872
:101940006218934204BF1A685B68636004BF521850
:1019500022600460ECE713465A680AB1A242FAD941
:1019600019685818A0420BD12068014458188242C7
:101970001960DDD1106852685A6001441960D7E7D8
:1019800002D90C232B60D3E7206821188A4204BFB8
:1019900011685268626004BF091821605C60C7E783
:1019A00038BD00BFA8020010F8B5CD1C25F0030516
:1019B00008350C2D38BF0C25002D064601DBA94249
:1019C00003D90C2333600020F8BD00F05FF82149F3
:1019D0000A6814469CB9204F3B6823B9214630461B
:1019E00000F03CF838602946304600F037F8431CD8
:1019F00023D10C233360304600F04EF8E3E7236830
:101A00005B1B17D40B2B03D923601C44256004E017
:101A10006368A2420CBF0B605360304600F03CF894
:101A200004F10B00231D20F00700C21ACCD01B1AB2
:101A3000A350C9E722466468CCE7C41C24F0030421
:101A4000A042E3D0211A304600F008F80130DDD181
:101A5000CFE700BFA8020010AC02001038B5064C5A
:101A60000023054608462360FFF7F0FC431C02D123
:101A7000236803B12B6038BDB0020010034613F891
:101A8000012B002AFBD1181A01387047014800F0D9
:101A900009B800BFB8020010014800F004B800BF48
:101AA000B8020010704770476C65645F696E7465BA
:101AB000726E616C006C65645F65787465726E61EE
:101AC0006C007377697463685F696E7465726E61C8
:101AD0006C007377697463685F65787465726E61B2
:101AE0006C00764170706C69636174696F6E4D61F2
:101AF0006C6C6F634661696C6564486F6F6B282915
:101B00002063616C6C65643B206E6F206D6F726545
:101B1000206D656D6F72790049444C4500FFFFFFF1
:101B20000080092020800920408009206080092051
:101B300080800920A08009200040004001000000B2
:101B40000080004002000000000009400300000087
:101B500000400940040000000001021617030418A9
:041B600019FFFFFF6B
:101B6400AAAAAAAAB5150000B5150000B51500006B
:101B7400B5150000B5150000B5150000B515000039
:101B8400B5150000B5150000B5150000B515000029
:101B9400B5150000B5150000B5150000B515000019
:101BA400B5150000B5150000B5150000B515000009
:101BB400B5150000B5150000B5150000B5150000F9
:101BC400B5150000B5150000B5150000B5150000E9
:101BD400B5150000B5150000B5150000B5150000D9
:101BE400B5150000B5150000B5150000B5150000C9
:101BF400B5150000B5150000B5150000B5150000B9
:101C0400B5150000B515000000C000400500000037
:101C1400D5160000000000000000000000000000D5
:101C24000000014006000000C9160000000000008A
:101C340000000000000000000080094007000000D0
:101C4400BD160000000000000000000000000000BD
:101C540000C0094008000000B116000000000000A8
:101C640000000000000000000C0100100000000053
:101C74000000000000000000000000000000000060
:101C84000000000000000000000000000000000050
:101C94000000000000000000000000000000000040
:101CA4000000000000000000000000000000000030
:101CB4000000000000000000000000000000000020
:0C1CC40000000000000000000000000014
:040000030000010DEB
:00000001FF
