:1000000000000110E500000075010000590100002A
:100010007501000075010000750100007501000008
:100020007501000075010000750100006D030000FE
:1000300075010000750100007F03000091030000BE
:10004000C1260000C1260000C1260000C126000014
:10005000C1260000C1260000C1260000C126000004
:10006000C1260000C1260000C1260000C1260000F4
:10007000C1260000C1260000C1260000C1260000E4
:10008000C1260000C1260000C1260000C1260000D4
:10009000C1260000C1260000C1260000C1260000C4
:1000A000C1260000C1260000C1260000C1260000B4
:1000B000C1260000C1260000C1260000C1260000A4
:1000C000C1260000C1260000C1260000C126000094
:1000D000C1260000C1260000C1260000C126000084
:1000E000C126000008B501F0EBFE01F007FF01F0AA
:1000F0000FFF01F059FE01F053FE03F09DF802F0EE
:10010000D5FF01F07DFE40B141F28734002503F0B8
:10011000BFF88D4208BF8442F9D202F036FF18B909
:100120000849094805F0CCFE0649084805F0C8FE14
:1001300000F080F8064B07481B68D96804F044FEBD
:10014000FEE700BF44A4000050A400007DA400000E
:100150006401001095A400001EF0040F0CBFEFF323
:100160000880EFF309808169004A1047D10100003F
:100170007047FFFF38B50F4C0F4B10481D782368B0
:10018000D96804F021FE23680D49D8682A4604F096
:10019000A3FD0F2D236807D80A4A0B4952F82520E2
:1001A000D86804F099FDFEE7D968084804F00CFE11
:1001B000F9E700BF6401001004ED00E0D0A40000E6
:1001C000EAA40000DCA5000024A5000042A5000070
:1001D00010B5044601F008FE236883606368C360BD
:1001E000A3680361E3684361236943626369013B78
:1001F000C361A3698361E3690362BFF34F8F05495C
:10020000054BCA6802F4E0621343CB60BFF34F8F23
:1002100000BFFDE700ED00E00400FA0507B5038824
:10022000ADF80430019802F037F84FF4FA7001F09D
:10023000A7F8F7E72DE9F34101F03AFF164E174D05
:10024000174F00B23070C0F30720707001F042FF0A
:1002500000B2002428704FF00108C0F30720687036
:100260003346CDE9008464220E49384600F0DAFEB8
:100270002B4664220C49CDE90084384600F0D2FEBA
:1002800003F00AFE094805F0B5FE00F02FFF2046F6
:1002900002B0BDE8F08100BF380300103A0300103F
:1002A0001D0200001CA6000021A6000026A60000DA
:1002B0000C460020044908B502F0F3FF2146002057
:1002C00002F0EFFFFEE700BF66A7000008B5024995
:1002D000002002F0E6FFFEE72CA70000024B002200
:1002E000C3F8C02030BF704700C00F4008B50C46AF
:1002F00000200A4902F0D5FF0949002002F0D1FF91
:100300000849002002F0CDFF0749002002F0C9FF94
:100310002146002002F0C5FFFEE700BF34A6000022
:1003200086A60000C9A60000FDA60000034B0360DE
:10033000034B0B6064231360704700BFD8040010A8
:100340004803001008B502F08DFF024B1B68C01A6D
:1003500008BD00BF4003001008B502F083FF024B48
:10036000C3E9000108BD00BF4003001008B501F05B
:100370002FFB01F0BDFBBDE8084001F03DBB08B517
:1003800001F026FB01F0FCFBBDE8084001F034BBA6
:1003900008B501F01DFB01F025FCBDE8084001F0A7
:1003A0002BBB00F108034FF0FF324360C0E902238A
:1003B00003610023036070470023036170474368B3
:1003C0004B609A688A609A68516099600368086116
:1003D0000133036070470A68531C30B50AD10369C2
:1003E0005A684A6091608B60596003680861013304
:1003F000036030BD00F108035C6825689542EFD8C2
:100400002346F9E7D0E9011203698A60516059680F
:10041000814208BF5A60002202611A68013A1A60DC
:100420001868704710B5044601F074FBA46B01F026
:1004300093FBB4FA84F0400910BDF8B51546026C80
:10044000866B044652B9076847BB806801F0D8F94B
:10045000A76005460136A6632846F8BD65B9406821
:1004600004F0E0FC6368226C1344A268636093426A
:10047000F0D323686360EDE7C06804F0D3FC236C1D
:10048000E26821685B421A448A42E2603EBFA26889
:100490009B18E360022D01D116B1013E0025D9E77A
:1004A0003546D7E7034610B41A6C084662B1D968DE
:1004B0009C681144A142D96024BF1968D960D968E9
:1004C0005DF8044B04F0AEBC5DF8044B704770B5AA
:1004D000044601F01FFB94F8455004F124066DB268
:1004E000002D14DCFF2384F8453001F035FB01F0CA
:1004F00011FB94F8445004F110066DB2002D12DC8B
:10050000FF2384F84430BDE8704001F025BB636AE6
:10051000002BE7D0304600F0CDFF08B101F050F8D5
:10052000013D6DB2DCE72369002BE9D0304600F0D5
:10053000C1FF08B101F044F8013D6DB2DEE7FFFFF5
:1005400038B50D46044628B91A4940F20310FFF7A2
:10055000CDFEFEE701F0DEFAD4E90F3022686260DA
:100560004343D1181B1A1344A160E3600021FF2309
:10057000A16384F8443084F8453095B9236963B1A8
:1005800004F1100000F096FF38B10B4B4FF0805291
:100590001A60BFF34F8FBFF36F8F01F0DDFA0120B8
:1005A00038BD04F11000FFF7FCFE04F12400FFF752
:1005B000F8FEF2E746A8000004ED00E013B51C4683
:1005C00028B91E494FF49D70FFF790FEFEE72BB946
:1005D0001B494FF49F70FFF789FEFEE732B161B906
:1005E00018494FF4A170FFF781FEFEE729B11649C3
:1005F00040F24310FFF77AFEFEE750230193019B80
:10060000502B05D0114940F24B10FFF76FFEFEE76B
:10061000002908BF2246019B22600123C4E90F0183
:1006200084F8463019462046FFF78AFF9DF81030BF
:1006300084F84C30204602B010BD00BF83A70000F4
:10064000A5A70000BBA70000F3A700002BA800008F
:10065000F8B50D461746064628B90F494FF4BB704A
:10066000FFF744FEFEE74843503001F0CDF9044661
:1006700070B1002380F8463065B100F1500323606B
:10068000C4E90F6501212046FFF75AFF84F84C703A
:100690002046F8BD0346F2E783A700002DE9FF4797
:1006A000884601921F46044628B94E4940F2F1207F
:1006B000FFF71CFEFEE739B9036C2BB14A4940F243
:1006C000F220FFF713FEFEE7022F08D1E36B012BA8
:1006D00005D0464940F2F320FFF708FEFEE701F09F
:1006E0002DF8064638B9019B33B1414940F2F62056
:1006F000FFF7FCFDFEE700264FF00009DFF8F4A04D
:1007000037E0019D1DB901F027FA002050E016B92D
:1007100002A800F00FFF01F01FFA00F021FD01F028
:10072000F9F994F84430FF2B08BF84F8449094F80A
:100730004530FF2B08BF84F8459001F00DFA01A960
:1007400002A800F003FF002846D101F0E3F9A26BF4
:10075000E36B9A422FD101F0FFF9019904F11000E7
:1007600000F090FE2046FFF7B2FE00F093FD50B37C
:10077000012601F0CFF9A26BE36B9A4201D3022F5D
:10078000BFD13A4641462046FFF757FE636A1BB188
:1007900004F1240000F08EFE38B1164B4FF0805269
:1007A0001A60BFF34F8FBFF36F8F01F0D5F90120AF
:1007B00004B0BDE8F08701F0CFF92046FFF787FECF
:1007C00000F068FDD4E74FF08053CAF80030BFF363
:1007D0004F8FBFF36F8FCBE72046FFF778FE00F017
:1007E00059FD92E746A800004EA800009EA8000010
:1007F000E5A8000004ED00E013B5002200900B46D0
:1008000001201146FFF7DAFE044638B10023836069
:100810000360C3601A461946FFF740FF204602B046
:1008200010BD10B5024600210120FFF711FF04465C
:1008300038B1002383600360C3601A461946FFF78E
:100840002DFF204610BDFFFF2DE9F8438946904655
:100850001F46044628B9284940F2C330FFF746FD39
:10086000FEE739B9036C2BB124494FF47170FFF7DF
:100870003DFDFEE7022F08D1E36B012B05D0204997
:1008800040F2C530FFF732FDFEE701F059FAEFF311
:1008900011864FF0180383F31188BFF36F8FBFF3F6
:1008A0004F8FA26BE36B9A4201D3022F22D194F8AF
:1008B00045503A466DB249462046FFF7BEFD6B1CD7
:1008C00013D1636A0BB901200BE004F1240000F09E
:1008D000F1FD0028F7D0B8F1000FF4D00120C8F8DE
:1008E000000086F31188BDE8F88301356DB284F805
:1008F0004550E8E70020F4E746A800004EA80000B5
:100900009EA8000070B50D46044628B923494FF44F
:100910008C60FFF7EBFCFEE7036C2BB1204940F243
:100920006440FFF7E3FCFEE703683BB983682BB143
:100930001C4940F26940FFF7D9FCFEE701F000FADC
:10094000EFF311864FF0180383F31188BFF36F8F15
:10095000BFF34F8FA26BE36B93421CD994F84530E1
:1009600001325BB2A2635A1C10D1636A0BB9012039
:1009700009E004F1240000F09DFD0028F7D0002DCF
:10098000F5D00120286086F3118870BD01335BB279
:1009900084F84530EBE70020F5E700BF46A80000EB
:1009A0003BA9000054A900002DE9F04385B00F4693
:1009B0000192044628B947494FF4A060FFF796FC1E
:1009C000FEE739B9036C2BB1434940F20450FFF7FD
:1009D0008DFCFEE700F0B2FE064638B9019B33B14C
:1009E0003E4940F20950FFF781FCFEE700264FF038
:1009F0000008DFF8EC903BE0019D1DB901F0ACF878
:100A0000002052E016B902A800F094FD01F0A4F80D
:100A100000F0A6FB01F07EF894F84430FF2B08BFED
:100A200084F8448094F84530FF2B08BF84F8458053
:100A300001F092F801A902A800F088FD00283DD13C
:100A40002046FFF7EFFC98B3019904F1240000F071
:100A500019FD2046FFF73BFD00F01CFC38B94FF0B4
:100A60008053C9F80030BFF34F8FBFF36F8F01265B
:100A700001F050F8A56B002DBED039462046013D4F
:100A8000FFF710FDA563236963B104F1100000F0C6
:100A900011FD38B1124B4FF080521A60BFF34F8FE7
:100AA000BFF36F8F01F058F8012005B0BDE8F08367
:100AB0002046FFF70CFD00F0EDFBD8E72046FFF7DE
:100AC00006FD00F0E7FB2046FFF7ACFC0028CED087
:100AD00096E700BFBBA90000C7A90000E5A8000079
:100AE00004ED00E02DE9FF410446019128B9584981
:100AF00040F29150FFF7FAFBFEE7056C2DB1554926
:100B000040F29550FFF7F2FBFEE700F017FE0646B5
:100B100038B9019B53B1504940F29A50FFF7E6FBB8
:100B2000FEE72E460027DFF838814EE00546F9E75C
:100B3000019B4BB92DB1494940F2E150FFF7D6FB7B
:100B4000FEE701F009F85EE016B902A800F0F2FC39
:100B500001F002F800F004FB00F0DCFF94F84430F0
:100B6000FF2B08BF84F8447094F84530FF2B08BF72
:100B700084F8457000F0F0FF01A902A800F0E6FC3F
:100B800000284AD12046FFF74DFC00283FD02368BB
:100B90003BB900F0BFFFA06800F0E0FD054600F0A3
:100BA000DBFF019904F1240000F06CFC2046FFF704
:100BB0008EFC00F06FFB38B94FF08053C8F800305E
:100BC000BFF34F8FBFF36F8F012600F0A3FFA36B1E
:100BD000002BADD0013BA363236813B900F0B6FE30
:100BE000A060236963B104F1100000F063FC38B128
:100BF0001B4B4FF080521A60BFF34F8FBFF36F8FC4
:100C000000F0AAFF0125284604B0BDE8F081204687
:100C1000FFF75DFC00F03EFBD6E72046FFF757FCF0
:100C200000F038FB2046FFF7FDFB0028CCD0002D5C
:100C3000E9D000F06FFF616A19B1236B1968C1F147
:100C40000A01A06800F02AFE002500F085FFDAE71F
:100C5000BBA900003BA90000E5A8000065AA0000B0
:100C600004ED00E02DE9F84389469046054628B991
:100C7000214940F2FB60FFF739FBFEE739B9036C0D
:100C80002BB11E4940F2FC60FFF730FBFEE701F09C
:100C900057F8EFF311874FF0180383F31188BFF370
:100CA0006F8FBFF34F8FAC6B1CB395F84460494610
:100CB00076B22846FFF7F6FB013C731CAC6313D1F8
:100CC0002B690BB901200BE005F1100000F0F2FBDD
:100CD0000028F7D0B8F1000FF4D00120C8F80000C8
:100CE00087F31188BDE8F883013676B285F8446051
:100CF000E8E72046F4E700BF46A800001AAA000073
:100D000008B528B9064940F2B770FFF7EFFAFEE7D9
:100D100090F846301BB9BDE8084000F084BE08BD1D
:100D200046A8000043685B68436000F108029342F4
:100D300004BFC3684360436830B5DC6800255B6866
:100D40009A4208BF5368D9688C420D65F7D1436059
:100D500030BDFFFF2DE9F041044600F0DBFE2D4BD6
:100D60002D4D1A682D4F01321A602E68002E46D183
:100D70002C601B68012B1CD1B84640460136FFF79A
:100D800010FB0A2E08F11408F7D1DFF8B880244EC2
:100D90004046FFF706FB3046FFF703FB2148FFF70D
:100DA00000FB2148FFF7FDFA204BC3F80080204BE1
:100DB0001E60204A20491368086801331360E26A04
:100DC000236401239340034314200B6000FB027053
:100DD000211DFFF7F4FA00F0BFFE184B1B6863B14A
:100DE0002B68DA6AE36A9A4207D2154B4FF08052B9
:100DF0001A60BFF34F8FBFF36F8FBDE8F0810F4BC9
:100E00001B68002BD5D12B68DA6AE36A9A4298BF37
:100E10002C60CEE70C0600103405001040050010D1
:100E200034060010540600106C060010380500103F
:100E30003C050010180600101C0600106806001083
:100E400004ED00E02006001008B5074C074D4FF0F8
:100E500080562368012B04D92E60BFF34F8FBFF358
:100E60006F8FFFF73BFAF4E74005001004ED00E058
:100E7000064A13681968064B19B94FF0FF321A6019
:100E800070471268D268D2685268F8E738050010D7
:100E90004C0600102DE9F047DDE909644FEA8209AC
:100EA0004A4607460D46206BA521984603F0E2FF0F
:100EB000236BA9F10409994429F007099DB36B1E1E
:100EC00004F134020B3513F8011F02F8011B09B1BC
:100ED000AB42F8D1002384F83F30089D092D28BF8C
:100EE00009254FF0000AE562A564201DC4F84CA056
:100EF000FFF762FAC5F10A0504F11800FFF75CFA82
:100F0000C4F854A02461A5616462C4F850A084F8B8
:100F100058A042463946484600F0CEFD206006B152
:100F20003460BDE8F08784F83450D6E7F8B51B4B41
:100F30001B4E1C680546306804300F46FFF762FA06
:100F4000334640B93168174EC96A3268012088407B
:100F500022EA000232606A1C07D137B119681248D0
:100F60000431BDE8F840FFF72ABA1A6864195460E2
:100F700007D30E4A10681968BDE8F8400431FFF73E
:100F80002ABA0B4A106819680431FFF724FA094B92
:100F90001A68A24288BF1C60F8BD00BF800600101E
:100FA000340500101C0600106C0600103C050010F3
:100FB000380500104C06001070B586B0DDE90B5402
:100FC0002DB9154940F24D20FFF790F9FEE72CB9F5
:100FD000124940F24E20FFF789F9FEE75C2605969C
:100FE000059E5C2E05D00E4940F25620FFF77EF993
:100FF000FEE72563022584F8595004AD01950A9D4A
:1010000002940095059EFFF745FF2046FFF7A2FEDC
:10101000049806B070BD00BF56AB00006DAB000079
:1010200082AB00002DE9F043074685B0900088466A
:101030001646994600F0E8FC0546E8B15C2000F051
:10104000E3FC0446A8B1002380F859300D9B0563EA
:1010500001930C9B0290009332464B464146384622
:10106000FFF718FF2046FFF775FE012005B0BDE829
:10107000F083284600F0D7FC4FF0FF30F6E7FFFF83
:10108000F8B5044628B914494FF4AD60FFF72EF9BE
:10109000FEE7124B1B68834218D000F03BFD104B5B
:1010A00065691F680F4B1E6800F056FDBD4211D0E8
:1010B000B5420FD00C4B9D420AD1A36A53B994F8A4
:1010C0005830012B0CBF02200320F8BD0020FCE7A4
:1010D0000120FAE70220F8E785AA00003405001095
:1010E000380500103C0500106C06001010B588B0E3
:1010F000002407AA06A905A8CDE90544FFF716F9BB
:10110000059B0293069B079A0F491048CDE90043BF
:101110002346FFF751FF0E4B186090B14FF01803B4
:1011200083F31188BFF36F8FBFF34F8F094B4FF0DD
:10113000FF321A60084B01221A60084B1C6000F055
:101140007FFD08B010BD00BFFCAA0000490E0000E2
:10115000480600104C0600106806001080060010BB
:10116000024A136801331360704700BF1406001071
:101170002DE9F84F3B4B1B68002B6BD13A4B1C6899
:1011800001341C60A4B9394B1A6812682AB1384975
:1011900040F67F20FFF7AAF8FEE7364A1968106884
:1011A00018601160344A136801331360FFF760FE62
:1011B000324D334F2B68A3424FF0000B11D93A68E0
:1011C000304BD16A14224A439A58022A28BF4FF062
:1011D000010B2D4A1268002A0CBF58460120BDE8B9
:1011E000F88FDFF888A0DFF8A890DAF800201268FE
:1011F0001AB94FF0FF322A60E1E7DAF80020D2682E
:10120000D66871688C4201D22960D8E706F10408DB
:101210004046FFF7F7F8B16A19B106F11800FFF779
:10122000F1F8F06AD9F80030012202FA00F119430E
:10123000144BC9F800104FF0140C41460CFB003061
:10124000FFF7BDF83868F16AC26A914228BF4FF0D3
:10125000010BCAE70D4A1368013313604FF0000B0E
:10126000B7E700BF14060010800600103805001014
:101270009BAB00003C050010500600104C0600100F
:101280003405001040050010840600101006001000
:101290001C0600102DE9F8432F4C23682BB92F4969
:1012A00040F68500FFF722F8FEE700F033FC2368E4
:1012B000013B236024682CB1002400F04DFC204643
:1012C000BDE8F883264B1B68002BF5D0254D264E34
:1012D000DFF8A8801FE0EB68DC6804F1040904F182
:1012E0001800FFF78FF84846FFF78CF8E26A31687C
:1012F000012707FA02F314200B4300FB0280494642
:101300003360FFF75CF8194BE26A1B68DB6A9A42AC
:1013100001D3174B1F602B68002BDCD10CB1FFF7FA
:10132000A7FD144D2C6844B1114E0127FFF720FF93
:1013300000B13760013CF9D12C600D4B1B68002BCC
:10134000BAD00D4B4FF080521A60BFF34F8FBFF3EE
:101350006F8F0124B1E700BF1406001000AC00003D
:101360000C060010540600101C0600103405001076
:10137000840600101006001004ED00E04005001087
:1013800008B540B90D4B4FF080521A60BFF34F8F34
:10139000BFF36F8F08BD0A4B196829B1094940F2A4
:1013A0003C50FEF7A3FFFEE7FFF7DAFEFFF7BEFDB6
:1013B000FFF770FF0028E5D0ECE700BF04ED00E088
:1013C00014060010B6AA000038B5274B1A68274B40
:1013D00012B101221A6038BD1A60FEF7B3FF244A29
:1013E000244C1568A84204D921680B6D5B1B03448B
:1013F0000B65236810601B6B1A68B2F1A53F0BD117
:101400005A68B2F1A53F07D19A68B2F1A53F03D15E
:10141000DB68B3F1A53F04D0206821683431FEF7C2
:1014200047FF154B1B68B3FA83F3DBB2C3F11F030D
:10143000142212495A4388188D582DB9104940F684
:10144000B730FEF753FFFEE7456808326D68456028
:101450000A44954204BF6A684260142202FB0313E7
:101460005B68DB682360B6E7140600108406001092
:1014700008060010340500101C060010400500107E
:1014800001AB000010B50C4628B9084940F6CE3033
:10149000FEF72CFFFEE7064B19681831FEF79BFF9D
:1014A00020460121BDE81040FFF740BDD0AA000052
:1014B0003405001038B5C368DC682CB9164940F60D
:1014C0002940FEF713FFFEE704F118052846FEF752
:1014D00099FF124B1B68E3B9251D2846FEF792FFC2
:1014E0000F49E26A08680123934003430B600D4BE8
:1014F0001420294600FB0230FEF761FF0A4BE26A26
:101500001B68DB6A9A4283BF084B012018600020E9
:1015100038BD29460648EFE7F1AB0000140600107D
:101520001C06001040050010340500108406001051
:1015300054060010034B1B680360034B1B68436099
:10154000704700BF500600108006001070B50C46B2
:10155000054628B9164940F69440FEF7C7FEFEE757
:1015600029B9144940F69540FEF7C0FEFEE700F0A9
:10157000D1FA114B196823685A1C10D00F482E68F5
:1015800000686A68864201D08A420FD9881A83426D
:101590000AD95B1A134423602846FFF7CBFF0024C7
:1015A00000F0DAFA204670BD002323600124F7E73B
:1015B000F2AA000048AB00008006001050060010A0
:1015C000014B01221A6070478406001070B50C466A
:1015D0001646054608B91B4A1568256005F1340210
:1015E0006260EA6A22612A6BE2612A6CA260AA6CDC
:1015F0006261052B2A6DA2611AD0124A1268AA42B2
:101600000AD100232373D6B1296B0023CA5CA52A13
:1016100013D09B08238470BD032B2373F3D1FFF7F2
:101620009FFDAB6A0BB102232373FFF733FEEAE79A
:101630002846FFF725FD2073E5E70133E6E726841A
:10164000E9E700BF340500102DE9F84F0D68814629
:101650000C46934615B34B685B684B6001F1080676
:10166000B34204BFCB684B604B68D3F80C800025B5
:101670004FF0240A63685B6863609E4204BF73682E
:1016800063606368DF680AFB05915B4601223846A8
:10169000FFF79CFFB84505F10105EBD12846BDE8F1
:1016A000F88FFFFF2DE9F04705469046FFF758FDFC
:1016B0001D4B1B688B4234D8DFF87C900A2700242E
:1016C0004FF0140A2426013F06FB045001220AFBB6
:1016D0000791FFF7B9FF0444002FF4D1134B022206
:1016E000196806FB0450FFF7AFFF114B044419685B
:1016F000022206FB0450FFF7A7FF044406FB045038
:1017000003220C49FFF7A0FF0444B8F1000F03D0F7
:10171000FEF718FEC8F80000FFF7BCFD2046BDE844
:10172000F0870024F8E700BF0C0600103805001011
:101730003C0500106C06001040050010054B1B68AE
:1017400033B1054B1B68002B0CBF022000207047F3
:101750000120704768060010140600102DE9F041C2
:101760000446002835D0234AC36A1168C96A8B42EF
:10177000174636D28269204D002AA1BF3A68D26A44
:10178000C2F10A0282611426426906FB03539A429F
:1017900021D100F104084046FEF734FE174B48B94A
:1017A000E06A4643AA592AB91A680121814022EA0F
:1017B00001021A603A681968D26AE262012404FAE6
:1017C00002F0084318601420414600FB0250FEF767
:1017D000F6FD204603E03B68DB6AC3620120BDE8FA
:1017E000F0811368806CDC6AA0422CBF00200120CD
:1017F000F5E700BF34050010400500101C0600107E
:10180000F8B5044608B90020F8BD1F4B1B68834299
:1018100005D01E4940F6D170FEF768FDFEE7DB6C8F
:101820002BB91B4940F6D270FEF760FDFEE7C16A96
:10183000826C013B9142C364E5D0002BE3D1051DCE
:101840002846FEF7DFFD134E134A50B9E76A14210C
:10185000794373582BB913680120B84023EA000379
:101860001360A36CE362C3F10A01A1611168012452
:1018700004FA03F008431060142000FB03602946BB
:10188000FEF79DFD2046BFE734050010C6AB000003
:10189000DCAB0000400500101C060010F8B5044643
:1018A000002847D0C26C2AB923494FF48150FEF773
:1018B0001DFDFEE7836C994238BF1946C36A8B420F
:1018C00038D0012A36D11D4A1268824205D11C49FE
:1018D00041F23B00FEF70AFDFEE78269194DC16245
:1018E000002A4FF014064269A8BFC1F10A0106FBA5
:1018F0000353A8BF81619A421CD1071D3846FEF7E9
:1019000081FDE26A104C40B95643AB592BB92368AC
:101910000121914023EA01032360216801239340C0
:101920000B4314202360394600FB0250BDE8F84009
:10193000FEF745BDF8BD00BFDCAB0000340500106C
:10194000DCAA0000400500101C060010044B1A68B9
:101950001AB11968CA6C0132CA641868704700BFAE
:101960003405001070B5FFF7FBFB144D0A24142654
:10197000013C06FB04F3E818EB580BB1FFF7D2F972
:10198000002CF5D10E4B1A68126812B11868FFF7D7
:10199000C9F90C4B1A68126812B11868FFF7C2F93E
:1019A000094803680BB1FFF7BDF9084B00221A6024
:1019B000FEF7D2FCBDE87040FFF76CBC400500109C
:1019C000380500103C0500106C06001008060010D9
:1019D00010B5FEF7B7FC064B064A196829B119681D
:1019E00014680B6D1B1B03440B65106010BD00BF1A
:1019F000340500100806001008B5FEF7A3FC014BE3
:101A0000186008BD0806001010B50446FFF7A8FBD3
:101A1000204603F0F7F90446FFF73CFC0CB9FEF74B
:101A200055FC204610BD10B5044640B1FFF798FBA9
:101A3000204603F0EFF9BDE81040FFF72BBC10BDC6
:101A400008480068006880F308884FF0000080F3C1
:101A5000148862B661B6BFF34F8FBFF36F8F00DF9C
:101A600000BF000008ED00E0DFF80C00016841F461
:101A7000700101607047000088ED00E007B50023A9
:101A800001930B4B1B68013304D00A49EF20FEF78A
:101A90002DFCFEE74FF0180383F31188BFF36F8F1F
:101AA000BFF34F8F019B002BFCD003B05DF804FB0C
:101AB0009006001015AC00004FF0807340F8043C15
:101AC000074B40F80C3C21F001016FF0020340F895
:101AD000081C40F8202C40F8243C4438704700BFD4
:101AE0007D1A0000FFFFFFFFFFFFFFFFFFFFFFFF6B
:101AF000074B19680868B0E8F04F80F30988BFF316
:101B00006F8F4FF0000080F311887047AFF30080B3
:101B10003405001008B54FF0180383F31188BFF3A4
:101B20006F8FBFF34F8F094A13680133012B136086
:101B30000AD1074B1B6813F0FF0F05D0054940F28F
:101B4000AB10FEF7D3FBFEE708BD00BF9006001008
:101B500004ED00E02FAC0000074A08B513682BB96C
:101B600006494FF4D970FEF7C1FBFEE7013B136055
:101B70000BB983F3118808BD9006001064AC000017
:101B8000EFF30980BFF36F8F154B1A681EF0100F2B
:101B900008BF20ED108A20E9F04F10602DE9090000
:101BA0004FF0180080F31188BFF34F8FBFF36F8F92
:101BB000FFF70AFC4FF0000080F3118809BC196898
:101BC0000868B0E8F04F1EF0100F08BFB0EC108AA4
:101BD00080F30988BFF36F8F704700BFAFF30080B9
:101BE0003405001008B54FF0180383F31188BFF3D4
:101BF0006F8FBFF34F8FFFF7BBFA18B1034B4FF056
:101C000080521A60002383F3118808BD04ED00E0C0
:101C100010B5084A084C00232360136000F0BCF89C
:101C20004FF47A73B0FBF3F0044B013818600723CC
:101C3000236010BD18E000E010E000E014E000E0D8
:101C4000334B344A13B51968914205D132494FF4E8
:101C50009A70FEF74BFBFEE71A68304B9A4205D1AB
:101C60002F4940F23510FEF741FBFEE72D4B1A7865
:101C7000D2B20192FF221A701B782B4ADBB28DF888
:101C800003309DF8033003F018031370274A07232D
:101C9000136000219DF80300000603F1FF3409D40E
:101CA00011B1022B13600ED0214940F25D10FEF7F6
:101CB0001DFBFEE79DF803305B00DBB28DF80330BF
:101CC00001212346E6E74FF400731360019B154A98
:101CD000DBB21370174B1A6842F478021A601A6864
:101CE00042F078421A60FFF793FF134B00241C6008
:101CF000FFF7BAFE114A136843F040431360FFF741
:101D00009FFEFFF761FBFFF7B9FE204602B010BD52
:101D100000ED00E071C20F41E2AC000070C20F4163
:101D200005AD000000E400E0880600108C060010FD
:101D300028AD000020ED00E09006001034EF00E038
:101D400008B5EFF305830F2B0BD90D4A9B5C0D4AA9
:101D500012789A4205D90C4940F2FE20FEF7C6FAE5
:101D6000FEE70A4B0A4A1B68126803F4E0639342D9
:101D700005D9084940F20E30FEF7B8FAFEE708BD73
:101D8000F0E300E08806001076AC00000CED00E007
:101D90008C060010A0AC00000048704700D8B805C1
:101DA0000048704700D8B8050E4B0722C3F88420BE
:101DB000AA210122C3F88020C3F88C105521C3F852
:101DC0008C10C3F8A821D3F888205205FBD51A68D7
:101DD00022F4704242F480421A6040F20112C3F8C9
:101DE0000421704700C00F400248034A034BC0E97A
:101DF0000023704700000020EFBEADDE10415221ED
:101E000038B5224C224B22689A423DD16268214B60
:101E10009A4239D1204D21482B68D96802F0D4FF6D
:101E20002B68A2691E49D86802F056FF2B68E26948
:101E30001C49D86802F050FF2B68226A1A49D868FA
:101E400002F04AFF2B68A2681849D86802F044FFE4
:101E50002B68E2681649D86802F03EFF2B682269B9
:101E60001449D86802F038FF2B6862691249D868B3
:101E700002F032FF2B681148D96802F0A5FF01205B
:101E80000023C4E9003338BD0020F9E7000000203A
:101E9000EFBEADDE10415221640100106BAD0000B9
:101EA000BEAD0000CDAD0000DCAD0000EBAD00002C
:101EB000FAAD000009AE000018AE000027AE000029
:101EC000094A0A4B0A498B4205D30A4B0A4A0021A8
:101ED000934205D3704712F8010B03F8010BF2E7A8
:101EE00003F8011BF4E700BF44B800000000001035
:101EF0003803001038030010FC120010034AD2F817
:101F0000883043F47003C2F88830704700ED00E079
:101F1000044800232021C2180133292B82F8001322
:101F2000F9D1704700E100E00E4A136810B50E4C7D
:101F30001918A142116002D30C4CA1420BD31360BB
:101F40000B4A0C4913681844884208D30A4988424E
:101F500005D2106001E0002BF2D0184610BD00231E
:101F6000FBE700BF000000102800002000800020D8
:101F700004000010FC1200100000011007B501223F
:101F80000221002000F0F4F801220321002000F0DB
:101F9000EFF804220021012000F0EAF801210422D8
:101FA000084600F0E5F804221146012000F0E0F8B0
:101FB0000821012000F032F92B4B4FF480729A6116
:101FC0000921012000F00AF902220A21002000F074
:101FD000CFF802220B21ADF80000002000F0C8F875
:101FE000ADF80400009800F0D2F8019800F0CFF8A6
:101FF0000321022000F012F91C4B00B21870C0F34C
:10200000072058701A21012000F008F9184B00B27F
:102010001870C0F3072058701821012000F0FEF856
:10202000144B00B21870C0F3072058701221012021
:1020300000F0F4F8104B00B21870C0F3072058708D
:102040000A21012000F0CAF80F21012000F0C6F893
:102050001E21002000F0C2F81D21002003B05DF811
:1020600004EB00F0BBB800BF208009209A060010E6
:10207000980600109606001094060010024B4FF4CC
:102080008072DA61704700BF20800920024B4FF454
:1020900080729A61704700BF20800920034B586905
:1020A00080F40070C0F34020704700BF20800920FA
:1020B000074B82B01B88ADF804309DF80430002037
:1020C00063F307009DF8053063F30F2002B07047FB
:1020D00094060010074B82B01B88ADF804309DF8C1
:1020E0000430002063F307009DF8053063F30F20F0
:1020F00002B0704796060010074B82B01B88ADF8FF
:1021000004309DF80430002063F307009DF805308B
:1021100063F30F2002B0704798060010074B82B09F
:102120001B88ADF804309DF80430002063F30700ED
:102130009DF8053063F30F2002B070479A06001037
:1021400082B0C3B2ADF80400C0F30720800000EBFA
:10215000C31000F1804000F5303001F00701036842
:1021600023F00703036003681943016002B070475E
:1021700037B58DF801108DF8000004460D46009823
:102180001146FFF7DDFF44EA052003B030BD82B001
:10219000C3B2ADF80400C0F30720800000EBC31009
:1021A00000F1804000F53030036843F48063036041
:1021B00002B0704782B0084BADF80400C0B20122F3
:1021C00053F820109DF805000B68824023EA0203B3
:1021D0000B6002B0704700BFFCAE000037B58DF851
:1021E00000008DF80110044600980D46FFF7E2FF4D
:1021F00044EA052003B030BD82B0074BADF80400BF
:10220000C0B253F820209DF80500116801238340D7
:102210000B43136002B07047FCAE000037B58DF879
:1022200000008DF80110044600980D46FFF7E4FF0A
:1022300044EA052003B030BD82B0084BADF804007D
:10224000C0B29DF8051053F820305A6901238B4025
:10225000134214BF0120002002B07047FCAE000002
:10226000C2B2054BC0F3072053F82220012382B0ED
:102270008340936102B07047FCAE0000C2B2054BD0
:10228000C0F3072053F82220012382B08340D3619A
:1022900002B07047FCAE000007B5ADF8040001982D
:1022A000FFF7CAFF28B1019803B05DF804EBFFF710
:1022B000E5BF019803B05DF804EBFFF7D1BFFFFF66
:1022C0002DE9F0410F4C04EBC00306461D7928466A
:1022D0000F46904600F00EFA54F8364000233F2295
:1022E00063604146A360284622606361A361E361A5
:1022F0002362636200F022FA0123E7606360BDE8B5
:10230000F08100BF14AF0000074B53F8303030B5F8
:1023100001205C6901EB4105A84020435861183356
:1023200043F8212030BD00BF14AF0000034B53F829
:102330003020012303FA01F11160704714AF00004F
:10234000024B53F830309868704700BF14AF00005C
:10235000024B53F830309960704700BF14AF000053
:102360002DE9F041044617461E468846FFF7E6F978
:10237000002105466068FEF7B5FB00232373069B2A
:102380006361079BA361236884F80D802022022DDE
:10239000A77326611A600BD140F6B8316068FEF76A
:1023A000A1FB18B1207BB0FA80F04009BDE8F081B4
:1023B00000216068FEF796FB0028F9D0F2E7FFFFE6
:1023C00003685A68282A13B557D00AD8102A2CD087
:1023D000182A32D0082A09D1417B01F0FE01996008
:1023E00028E0402A63D00DD8382A77D05A68027383
:1023F00020229A6110221A6008229A611A68D20675
:10240000FCD426E0502A5BD0582AEFD102699968A3
:1024100011700022826120229A6110221A60082223
:102420009A611A68D106FCD413E0427B42F00102A3
:102430009A6008229A6102B010BD846920219961D6
:102440000822C4B99961102119609A611A68D106ED
:10245000FCD4002301A940680193FEF753FA019BC5
:10246000002BE8D01F4B4FF080521A60BFF34F8F04
:10247000BFF36F8FDFE7817BB1E7427BD20702D5E5
:1024800020221A60D5E782694AB920229A61102277
:102490001A6008229A611A68D406FCD4D9E7416907
:1024A000013A11F8014B9C6041618261C1E7202231
:1024B0009A618269012A4FF00402E2D89A61B8E772
:1024C0000269996811700269013202618269013AF8
:1024D000012A82614FF00402D3D1EFE75B680373F6
:1024E000B7E700BF04ED00E00148FFF769BF00BF98
:1024F000400000100148FFF763BF00BF2400001038
:102500000148FFF75DBF00BF080000102DE9F04350
:10251000284B06461546884693E8070085B004AB6D
:1025200003E9070040F60A33ADF800300C238DF8BC
:1025300002301C237343204AD45802EB030904AB36
:10254000334403220021012013F8107CFEF780F8A9
:10255000C9F804000120FEF764F9C9F808003846FC
:1025600000F0C8F86C23A361144A154B904588BF4E
:1025700098462823B5FBF8F2520864215343B3FB75
:10258000F1F323613C235A430023B2FBF1F2626171
:10259000A36263622362E3604023236004AB03EB26
:1025A0008606384656F80C1C05B0BDE8F04300F02E
:1025B000C5B800BF34AF00000800001040420F0053
:1025C000A08601002DE9F3410F4690461D4623B930
:1025D0000025284602B0BDE8F0810F4C1C2303FB08
:1025E00000444FF0FF31A068FEF77CFA0028EFD0DE
:1025F0000026089B019342462B4647F001010096B6
:102600002046FFF7ADFE3346054632463146A06808
:10261000FEF744F8DDE700BF080000101FB50023F7
:102620008DF80F30012300930DF10F03FFF7CAFF60
:102630009DF80F0005B05DF804FBFFFFF7B50E46EF
:1026400017461D461BB90025284603B0F0BD0E4CA9
:102650001C2303FB00444FF0FF31A068FEF742FA51
:102660000028F0D0089B3A46CDE9005306F0FE0161
:1026700000232046FFF774FE002305461A4619463C
:10268000A068FEF70BF8DFE7080000101FB5002276
:1026900000920DF10F038DF80F20FFF7CFFF05B06B
:1026A0005DF804FB1FB58DF80F30012300930DF189
:1026B0000F03FFF7C3FF05B05DF804FBFEE7FFFF64
:1026C00008B5FFF785F9084B084A1B78103BDBB2C9
:1026D00052F823309847064B00221A601B68BDE869
:1026E0000840FFF789B900BF04ED00E05C0000106E
:1026F0009C060010242809D8054B064A185CD2F81D
:10270000C410012383400B43C2F8C430704700BF9C
:1027100040AF000000C00F4024289FBF054B064A71
:10272000D3F8C430105C9ABF23FA00F000F0010027
:102730000020704700C00F4040AF0000074B43F837
:10274000201043B2002B08DB012200F01F0002FA28
:1027500000F05B09024A42F8230070475C00001059
:1027600000E100E073B54FF0FF33B1F5805F0193F6
:1027700036D21D4C2369DE0734D41C4B1D69ED078E
:1027800030D41B4D0326AE602E611A4D1D6002B37E
:1027900001AE5E6041F00046DE6041F20F061E6150
:1027A000DAB1206041F0806140F68112E16065603D
:1027B0002261114A516A41F003015162D868C0F3A5
:1027C0000B000028FAD1536A23F00303536202B0CE
:1027D00070BD586041F00846DEE701AA2260E3E7D9
:1027E0000120F4E70220F2E7000108202001082080
:1027F0000000082008C00A4000C00A4010B5044686
:10280000FFF7CAFA4FF47A73B0FBF3F00223B0FB80
:10281000F3F2A24202D8034A136110BD0233DBB2C5
:10282000F5E700BF00C00A4010B504462420FFF7BA
:1028300061FF0B4B07221A6002225A602046FFF705
:10284000DDFF1A20FFF756FF064B01221A631A6BB1
:10285000D207FCD5044A0023936042F8183C10BD0F
:1028600000C00A400000082020010820034B9860A7
:10287000DA68D206FCD49868C0B2704700C00A403B
:102880000122FFF76FBF0022FFF76CBF0268936859
:10289000C3F34203022B73B5064623D0062B21D087
:1028A000012B34D100248DF803400194102501AA96
:1028B0000DF103017068FEF7D5F948B133689DF852
:1028C00003201A70019B002B18BF0124013DEED19B
:1028D0000CB3124B4FF080521A60BFF34F8FBFF30F
:1028E0006F8F18E00024019433681A7DD207EFD56A
:1028F0001B788DF8033001AA00230DF10301B068A5
:10290000FDF7A2FF019B002B18BF0124ECE7137D0C
:10291000DBB20193019B02B070BD00BF04ED00E08B
:102920000148FFF7B3BF00BF240100100148FFF7C3
:10293000ADBF00BF180100100148FFF7A7BF00BFDF
:102940000C0100100148FFF7A1BF00BF00010010FB
:10295000134B70B515460646185C0C462D01FFF763
:10296000C9FEB4FBF5F307EE903AF8EE677AB6EEDF
:10297000007A77EE877A0C20FCEEE77A7043094AFA
:1029800017EE903A12589BB280211173190ADBB2EC
:1029900011711370102382F828300723137370BD50
:1029A00078AF000000010010074B10B50446185C1A
:1029B000FFF7B2FE38B10C206043044B1B58187B64
:1029C000003018BF012010BD78AF000000010010DA
:1029D000044A0C2303FB00204068003018BF01208C
:1029E000704700BF000100102DE9F0410546884600
:1029F0001646FFF7D9FF074618B900273846BDE845
:102A0000F081154C0C2303FB05439A6822B9B8F1F9
:102A1000000F01D0C3F808800C2303FB05435A685C
:102A20000AB906B15E600C266E43A3199A68002AA3
:102A3000E3D05B68002BE0D0084B53F82510084B1F
:102A4000585DFFF77BFEA35941221A7206221A72C3
:102A500007225A60D2E700BF0001001068AF0000F3
:102A600078AF000038B50C234343074A0D46D458CD
:102A7000FFF79AFF30B1237D9A06FCD52570237DA0
:102A80009B06FCD538BD00BF0001001070B50446A0
:102A900015460E46FEF752FE0F4B0C2202FB043485
:102AA000A468B4B1022814D16B1C09D04FF47A7019
:102AB000A5FB00014FF47A72002301F087FF054661
:102AC0002A4631462046FDF76FFF003018BF01202F
:102AD00070BD0020FCE700BF000100102DE9F843A5
:102AE00006460F46124DFEF729FE0C2404FB065342
:102AF00081463046D3F80880FFF756FFA0B1B9F100
:102B0000020F0AD1B8F1000F07D0394630464FF016
:102B1000FF32BDE8F843FFF7B9BF74432B591A7D64
:102B2000D207FCD51B783B700020BDE8F88300BFBE
:102B300000010010F7B51F4D8DF807100746164627
:102B4000FEF7FCFD0C2303FB07535C6864B302280B
:102B50002DD1711C09D04FF47A70A6FB00014FF4FF
:102B60007A72002301F032FF0646002332460DF14F
:102B700007012046FDF792FD041C18BF0124FEF753
:102B8000C9FF0C2078432B182D582A7D520609D5F1
:102B900000220DF107015868FEF764F810B19DF8A6
:102BA00007302B70FEF7D8FF204603B0F0BD00249D
:102BB000FAE700BF0001001038B50D46044658B1D1
:102BC00003290BD90A46002102F054F923462A0AA8
:102BD00003F8022B65701C46204638BD0024FBE735
:102BE00010F8023C10F8010C40EA0320033880B2D0
:102BF000704708B5FFF7F4FF013080B208BD08B593
:102C000010B103F020FB80B208BD10B50446FFF7F9
:102C1000F6FF02462046FFF7E3FF824234BF002062
:102C2000012010BD02F054B800230370704710B5A6
:102C30000446FFF7DEFF13460A460146204604F02D
:102C400009FA20EAE07080B210BD0EB403B503AA01
:102C500052F8041B0192FFF7EAFF02B05DF804EBA3
:102C600003B070470EB403B503AA52F8041B0192D7
:102C700004F022FA0028CCBF80B2002002B05DF838
:102C800004EB03B0704738B505460C46084671B1F1
:102C900003F0D9FA01462846FFF7A2FF89B2814224
:102CA000024605D82146284603F00AFB012038BD1C
:102CB0000020FCE738B51546FFF77EFF044610B14B
:102CC0002946FFF7E0FF204638BD2DE9F0410546D3
:102CD0000F4614460AB3FFF792FFB84206461CD3CC
:102CE000204603F0B0FA32188046284692B2FFF729
:102CF00077FF824211D8C7F101023D44324492B2BB
:102D0000294605EB080002F09BF84246214628467A
:102D100003F0D6FA0120BDE8F0810020FBE770B592
:102D200006460C46A9B1FFF76AFF0546204603F0A8
:102D30008AFA82B2A918304689B2FFF751FF884259
:102D400007D3013292B22146701902F06BF80120CC
:102D500070BD0020FCE707B500238DF8041001A921
:102D60008DF80530FFF7DBFF03B05DF804FB08B515
:102D700029B103F03FFAB0FA80F0400908BD0846D7
:102D8000FCE770B5064615460C4661B1FFF737FF04
:102D9000A84208D32A462146304603F07FFAB0FA0B
:102DA00080F0400970BD0020FCE770B505460C4678
:102DB00081B1FFF724FF0646204603F044FA86421D
:102DC000024607D32146284603F046FAB0FA80F0BF
:102DD000400970BD0020FCE72DE9F041074614468C
:102DE0000D46C9B1C2B1FFF70AFF8046284603F07D
:102DF0002AFA804506460FD302462946384603F094
:102E00004DFA48B9B85D237883421ABFB0FA80F012
:102E100040090120BDE8F0810020FBE710B5044621
:102E2000FFF7EDFE40B1013880B2205C0D2804D0E0
:102E3000A0F10A035842584110BD0120FCE770B5CB
:102E40000C4605461646FFF7DAFEA04211D9011BD3
:102E5000B142C4F101030A461844A8BF3246801AA1
:102E600014FA82F1294482B2281901F0E9FF012005
:102E700070BD0020FCE70A460021FFF7E0BF38B52F
:102E80000C460546FFF7BBFEA04224BF001B81B2E3
:102E90002246284638BF0021BDE83840FFF7CFBFA3
:102EA00010B5044603F01FFA031E1FBF1B1B9BB285
:102EB000002201200CBF0020E25410BD10B50446D2
:102EC00003F0B4F938B1011B0131204689B2BDE8E5
:102ED0001040FFF7D0BF10BD70B50646054611483B
:102EE0000C462B4613F8011BC9B10A5C520714D5D6
:102EF00024B1284601F0ECFE20600124094A29464D
:102F000015F8013B13B19B5C5B07F8D4891B89B2B0
:102F10003046FFF7B0FF204670BD1D46E1E70C4686
:102F2000ECE700BFF1B40000F8B506460C46C9B1A5
:102F3000FFF765FE0546204603F085F96B1E334416
:102F40002044013E0021B34202D02246824201D1F8
:102F5000012008E012F8015B1F78AF42F6D103F8B8
:102F60000119F0E70846F8BD08B52A2219233821CF
:102F70000220FFF797FB0D2238210220FFF74EFBBE
:102F8000A0F12A035842584108BDFFF7EDBF08B52C
:102F9000064603F058F900240546A54200DCFEE78A
:102FA000315D0020FFF75EFD0134F6E702280CD901
:102FB000074B1B685A68824207D09A68824204D045
:102FC000DB681B1A5842584170470120704700BF08
:102FD00064010010F8B504460E461546FFF7E6FFFB
:102FE00048B3164B1B68DB68A34210D0A31E5C429B
:102FF0005C41FEF7A3FB07460020FFF7E9FC022F28
:1030000017D1B0B1ACB9A54203DC2846F8BD012404
:10301000EFE7315D4FF0FF320020FFF78BFD013409
:10302000F1E7315D0020FFF71DFD0134A542F8DC1A
:10303000EBE70024FAE70248FFF7A9FF640100105C
:10304000AEAF000008B5FFF7B1FF18B10020FFF7E1
:1030500045FD08BD0148FFF79AFF00BF7CAF0000A7
:10306000F8B504460D4600F0FDF8061941EB0507DA
:10307000FEF764FB02280CD100234FF47A72AB42B6
:1030800008BFA24205D22046294601F09FFCFEF768
:1030900077F900F0E7F8B94208BFB042F9D3F8BDBC
:1030A0004FF47A73A0FB0301FFF7DABF30B585B0A8
:1030B000FEF764FFFEF7FCFFADF80800FFF70AF823
:1030C000ADF80A00FFF718F8ADF80C00FFF726F886
:1030D0000024ADF80E0004AA04F0030302EB43033E
:1030E000013433F8080CFFF7D7F83220FFF7D8FF88
:1030F000202CF0D145F6C050FFF796FB0022234963
:10310000234800F0F7FA234B1868002319460222DF
:10311000406802F087FFFEF743FE002501464FF4AA
:10312000E1320020FFF714FC00951B4B1B4A0121E4
:103130002046FDF743FA1A4B00950446194A01212F
:103140008020FDF73BFA224601462846FFF74CFC5B
:10315000154A16491648174D02F0B2FEFEF720FE3A
:10316000154902460220FFF7D1F90224E1B20220FC
:10317000FFF78CFA18B12146284602F0A1FE02346E
:10318000B4F5807FF2D105B030BD00BFD9B00000EA
:103190001007001064010010C0060010A006001007
:1031A000C809001048090010E1AF0000F2AF0000AC
:1031B00043B0000060B00000801A060010B50A4C51
:1031C000236823B909490120FDF716FB2060FEF7AB
:1031D000B5FA022806D120684FF0FF31BDE8104053
:1031E000FDF780BC10BD00BF180A00101C0A0010BB
:1031F00010B5FEF7A3FA022808D1054800231A46A5
:1032000019460068BDE81040FDF748BA10BD00BF80
:10321000180A0010074A08B5136800210133084650
:103220001360FFF795F800210846BDE80840FFF756
:103230007DB800BF6C0A001008B5074A0749B0FB0B
:10324000F1F100200139FFF73BF80021044A08465C
:10325000BDE80840FFF758B81532000040420F00A3
:103260000087930370B5084E0020FFF769F8054604
:1032700000203468FFF764F88542F5D8034B00213D
:10328000E3FB040170BD00BF6C0A001000879303CC
:1032900008B5FFF7E7FF4FF47A72002301F096FBC1
:1032A00008BD70B5054608460C4602F0CCFF26184E
:1032B000B44205D128460A21BDE87040FFF7D2BBD1
:1032C00014F8011B2846FFF7CDFBF1E7428843784D
:1032D000007843EA022340EA0320704710B5024415
:1032E00010F8013B11F8014B9042A3EB040301D00D
:1032F000002BF5D0184610BD02684AB1134613F8EA
:10330000011B1F290BD93A29F9D1911C8B4202D0FC
:103310004FF0FF3070471278302AF9D10360002057
:10332000704770B500F13806426B04460123314600
:10333000407800F05BFA054688B9616BA36A226A9F
:10334000E070CB1A934208D2A378022B05D10A442D
:1033500001233146607800F049FA284670BD012506
:10336000FBE738B5436B8B4204460D4619D0C37852
:103370008BB901232A4604F13801607800F022FA63
:10338000002818BF4FF0FF35034665630CBF0346A6
:103390000123184638BDFFF7C4FF03460028F8D1C3
:1033A000E7E70023F5E7FFFF38B50023C3704FF0D0
:1033B000FF3343630546FFF7D4FF044618BB95F877
:1033C000372295F8363243EA02234AF655229342D1
:1033D0001BD195F83830EB2B03D01833DBB2012B1F
:1033E00015D803220B4905F16E00FFF777FF40B1B6
:1033F0000522094905F18A00FFF770FF002818BF70
:103400000224204638BD0424FBE70324F9E7022404
:10341000F7E700BF87B000008BB000002DE9F04354
:10342000002385B00B600F461546FFF765FF061EAB
:10343000C0F23981A44B53F82640002C00F03581AE
:10344000206900F09EF9002800F031813C6023786B
:1034500005F0FE056BB1607800F0AFF9C10708D444
:103460001DB110F0040500D00A25284605B0BDE8BE
:10347000F0830023F0B22370607000F090F9C2076F
:1034800000F117810DB14307EED400212046FFF76C
:103490008BFF022840F0EE806F4604F5FF7104F2C6
:1034A0003E263D4611F8040C10B10846FFF70EFF0A
:1034B00010318E4245F8040BF4D1002557F8046B07
:1034C000002E00F0CE8031462046FFF76DFF012828
:1034D00000F2C88094F8442094F8433043EA022371
:1034E000B3F5007F40F0CA8094F84F3094F84E5006
:1034F00055EA032504D104F15C00FFF7E7FE054619
:1035000094F8481025624B1E012BA17000F2B68082
:1035100094F845901FFA89F36381002B00F0AE8088
:1035200009F1FF3313EA090F40F0A88094F84A30FC
:1035300094F8497047EA03273FB21FFA87F818F05A
:103540000F0FA4F8088040F0998094F84C3094F85C
:103550004B0050EA032003D104F15800FFF7B6FEF8
:1035600094F8472094F8463053EA022300F086800E
:1035700005FB01FC03EB1812624490427ED3801AD3
:103580004845B0FBF9F179D35048814276D84FF6DF
:10359000F570814240F28F804FF0030902313344CD
:1035A0003244B9F1030FE1616662A362226369D11B
:1035B00094F8632094F8623043EA02231F433FB239
:1035C000002F5BD104F16400FFF780FEE062890008
:1035D00001F2FF11B5EB512F50D34FF0FF33C4E987
:1035E0000533B9F1030F4FF0800323712FD194F805
:1035F000692094F8683043EA0223012B27D1711C1B
:103600002046FFF7AEFE10BB94F8372294F836320E
:10361000207143EA02234AF65522934217D104F15E
:103620003800FFF753FE2A4B984210D104F507707B
:10363000FFF74CFE274B984209D104F50870FFF7BD
:1036400045FEA06104F50970FFF740FE6061224A63
:1036500084F80090138801339BB21380E380002527
:1036600003E703200135042D7FF428AF042805D19A
:103670000125FAE60428FBD0012801D90D25F4E63E
:10368000002627E7B8F1000FF8D06344B9F1020F24
:10369000E3624FEA41031BBF5B1801F001011946C9
:1036A00001EB530194E70B25DFE60C25DDE60F2542
:1036B000DBE60325D9E640F6F57949458CBF4FF0A6
:1036C00002094FF0010969E7700A0010F5FFFF0FCA
:1036D0005252614172724161740A001040B1A1F10D
:1036E0000B03012B04D90F2902D0006900F052B856
:1036F0007047FFFFF0B585B0CDE9001003A8144670
:103700000391FFF7F9FD051E28DB154F57F82560DB
:103710004EB1306900F030F818B90224204605B0E7
:10372000F0BD00233370019979B9019B47F825302A
:10373000002CF3D001A900226846FFF76FFE044673
:1037400001460198FFF7CAFFE8E7002301F8103BA4
:10375000E8B200F007F80028E7D1DEE70B24DDE748
:10376000700A001010B501200C46FDF75AF82060D1
:10377000003018BF012010BD08B5FDF7C1FA0120C7
:1037800008BD08B540F6B831FDF7ACF9431E584204
:10379000584108BD00231A461946FCF77FBF10B5F3
:1037A0000446FFF70BFD34B900F0FAF80446FFF7C2
:1037B0001FFD204610BD0424F9E708B900F08EB9BA
:1037C00004207047F8B507460C4615461E46FFF71D
:1037D000F5FC4FB92046F2B2294600F087F90446BD
:1037E000FFF706FD2046F8BD0424F9E7F8B50746C3
:1037F0000C4615461E46FFF7E1FC4FB92046F2B2D3
:10380000294600F0B9F90446FFF7F2FC2046F8BD5E
:103810000424F9E738B5FFF73BFD00F5FA75FF2002
:10382000FFF724F8FF20FFF721F8FF28044603D014
:10383000FFF72EFD8542F5D8204638BD08B5FEF7C6
:103840001DFCFFF7E7FFFEF721FC034A137843F066
:103850000103137008BD00BF3001001038B50546E4
:103860000C46FFF7D7FFFF2821D12046FEF7FEFFC9
:10387000FD2C1ED0AC1C05F2022514F8020CFEF73C
:10388000F5FF023414F8030CFEF7F0FFAC42F4D15C
:10389000FF20FEF7EBFFFF20FEF7E8FFFF20FEF71B
:1038A000E5FF00F01F00431F5842584138BD00207B
:1038B000FCE70120FAE737B5020604460D4607D5B6
:1038C00000217720FFF7F7FF012831D804F07F04AB
:1038D000FEF7DCFBFEF7D2FBFFF79CFFFF282BD1A6
:1038E000402C27D0482C0CBF872301232A0E8DF8AB
:1038F00001202A0C8DF8022006212A0A68468DF83C
:1039000000408DF803208DF804508DF80530FEF747
:10391000B7FF4C2C02D1FF20FEF7A8FF0A24FF209E
:10392000FEF7A4FF030603D5013C14F0FF04F6D113
:1039300003B030BD9523D9E7FF20F9E770B5054600
:10394000FFF7A6FC00F16406FF20FEF78FFF044698
:10395000FFF79EFC864201D3FF2CF5D0FE2C0CD144
:103960004FF400712846FEF78EFFFF20FEF77EFF22
:10397000FF20FEF77BFF012070BD0020FCE7FFFF6A
:1039800038B5064D2C78E4B2FEF788FB18B104F088
:10399000FD042C7038BD44F00304FAE73001001038
:1039A0002DE9F341FFF7ECFF4A4B1A7812F0020FB2
:1039B0001E4604D01878C0B202B0BDE8F081C8201D
:1039C000FEF71CFF0A25FF20013DFEF74FFF15F013
:1039D000FF05F8D1FEF752FB29464020FFF76BFFA9
:1039E0000128044671D1FFF753FC4FF4D57100F55F
:1039F0007A774820FFF75FFF012848D101ADA8463C
:103A00000424FF20FEF732FF013C14F0FF0408F805
:103A1000010BF6D19DF80630012B56D19DF80730E9
:103A2000AA2B52D1FFF734FC874206D94FF08041D0
:103A3000E920FFF740FF0028F4D1FFF729FC874277
:103A400043D900217A20FFF736FF00283DD1042416
:103A5000FF20FEF70BFF013C14F0FF0405F8010BFB
:103A6000F6D19DF8043013F0400F14BF0C24042449
:103A7000194B1C70FEF70AFB4CB3337845F6C05067
:103A800003F0FE033370FEF7B9FE307893E7294662
:103A9000E920FFF710FF022836BFE925412502245F
:103AA000FFF7F6FB874205D900212846FFF703FF01
:103AB0000028F5D1FFF7ECFB874206D84FF40071E0
:103AC0005020FFF7F8FE0028D2D00024D0E7FFF7FF
:103AD000B5FEDAE730010010760A001008B5FFF7EE
:103AE0004FFF014B187808BD3001001070B5144627
:103AF00005460E46FFF744FF002C35D01C4B1B78C3
:103B0000DA0733D4FEF7BAFA1A4B1B781B0758BFF3
:103B10007602012C314611D15120FFF7CCFE38B985
:103B20004FF400712846FFF709FFB0FA80F46409EA
:103B3000FEF7ACFA201C18BF012070BD5220FFF721
:103B4000BAFE0028F4D14FF400712846FFF7F6FEC4
:103B500028B1013C14F0FF0405F50075F3D10021F4
:103B60004C20FFF7A8FEE3E70420E6E70320E4E7A4
:103B700030010010760A001070B5144605460E4656
:103B8000FFF7FEFE002C41D0234B1A78D0073FD41C
:103B90001B7859073ED4FEF771FA204B1B781A07A1
:103BA00058BF7602012C11D131465820FFF783FE11
:103BB00050BBFE212846FFF751FEB0FA80F464099D
:103BC000FEF764FA201C18BF012070BD13F0060F29
:103BD00003D02146D720FFF76EFE31465920FFF76C
:103BE0006AFE0028ECD1FC212846FFF737FE28B1F9
:103BF000013C14F0FF0405F50075F4D1FD2100200F
:103C0000FFF72CFE0028DBD10124D9E70420DCE7F4
:103C10000320DAE70220D8E730010010760A00100E
:103C20002DE9F84F06461446884610461B49DFF832
:103C30007C90DFF87CA0DFF87CB0FFF706F8B36873
:103C400021464046984735680DB9BDE8F88F6F6842
:103C5000384602F0F8FA32288CBF514649463B46B6
:103C60002A682046FEF7F1FF59462046FFF718F96B
:103C70000B4907462046FFF713F907B918B1094960
:103C80002046FFF74CF808492046FFF748F8B3688C
:103C9000214640469847ED68D6E700BF91B0000046
:103CA000D8B0000062B20000D7B00000EDB0000054
:103CB000DAB00000F9B0000030B504294FF000057B
:103CC00038BF04210560C0E90112C36030BD11B1E5
:103CD0000368CB60016070472DE9F041144605464A
:103CE0000F4610464249FFF71FF942492046FFF7A9
:103CF0005CF8002833D03F492046FFF738F828B158
:103D0000224639462846FFF78BFF68E020212046EF
:103D1000FFF7D4F8DFF8F0802E680EB92E6810E0B7
:103D2000424631682046FFF757F8002838D1F66838
:103D3000F3E76A6831682046FFF723F800282FD19F
:103D4000F668002EF5D131462B4A2046FEF7BDFF1E
:103D5000AB68214638469847AB6825493DE02E6858
:103D6000DFF8A4800EB92E680EE042463168204686
:103D7000FFF732F8B8B9F668F4E76A6831682046A8
:103D8000FEF7FFFF78B9F668002EF6D131461B4AE0
:103D90002046FEF79AFFAB68214638469847AFE7C2
:103DA000AB687168D6E720212046FFF787F8B36833
:103DB000AA6821463846984788B1114A0021204612
:103DC000FEF783FFAB682146384698470D49726875
:103DD0002046FEF73AFFAB68214638469847E96827
:103DE00021B1AB683846BDE8F0411847BDE8F08125
:103DF000D7B00000FBB000002EB1000057B10000AA
:103E000000B1000011B10000FCB5000010B54C1E5F
:103E100014F8010F00B910BD02F06AF8F8E7FFFFCF
:103E200070B5A0B006461B4A80216846FEF742FFE7
:103E30000446304622460021FFF74EFF2046FEF79B
:103E4000F3FE2046FEF7EAFF0028F2D100F0C4FF9F
:103E5000C5B2082D16D12046FEF7D1FE60B1012172
:103E60002046FFF70CF8284602F042F8202002F026
:103E70003FF8284602F03CF82046FEF7C6FE002830
:103E8000DFD0D6E7284602F033F829462046FEF771
:103E900062FFF1E7FBB0000030B589B004AD284601
:103EA000124B134A134C0421FFF706FF95E80F004D
:103EB00084E80F0020461049FFF709FF20460F490C
:103EC000FFF705FF20460E49FFF701FF0D4B029358
:103ED0000D4B0193032300934FF4007223460B49CB
:103EE0000B48FDF769F809B030BD00BF88B100008C
:103EF0000D3E0000780A001054010010440100102B
:103F00003401001088120010880A0010DBB1000094
:103F1000213E00002DE9F043E7B00DF198084FF481
:103F2000807281460E464046002100F0A3FF8021AA
:103F300006A8FEF741FE05AF01233B6005460024BD
:103F4000009704AB03AA20494846CDE90344FEF795
:103F500089FE012830D93B6800939DF810209DF818
:103F60000C1043460220FEF72DFB8146E0B1039A78
:103F70001649DFF864902846FEF767FE294620467A
:103F8000B0473B68A34202D867B0BDE8F08318F899
:103F900004300093224649462846FEF756FE29463D
:103FA0000020B0470134ECE709492846FEF76BFED4
:103FB00029464846B047E7E706492846FEF763FE2C
:103FC00029462046F6E700BFF2B20000FBB200002F
:103FD0002CB3000059B3000015B300002DE9F043E5
:103FE000E7B000240DF198084FF4807281460F4627
:103FF00040462146CDE9034400F03CFF802106A85D
:10400000FEF7DAFD04AB064603AA29494846FEF747
:1040100029FE022844D120214846FEF74FFF2021E7
:104020004846FEF74BFF059405A94846FEF754FFA6
:104030000546D0B9009443469DF810209DF80C1019
:104040000220FEF7FBFA814610B3039B1949DFF803
:10405000709022463046FEF7F8FD31462846B847B4
:10406000AC4207D167B0BDE8F083059B08F8043087
:104070000134D9E7049A18F8053000932A444946D8
:104080003046FEF7E2FD31460020B8470135E7E74C
:1040900009493046FEF7F7FD31464846B847E1E7A3
:1040A00006493046FEF7EFFD31462046F6E700BFF1
:1040B00099B300009FB30000D6B3000004B4000021
:1040C000BFB30000F8B50D4628460E491646FEF768
:1040D0006CFE0D4904462846FEF767FE2021074680
:1040E0002846FEF7EBFE2CB131462846FFF712FFBB
:1040F0000020F8BD27B131462846FFF76FFFF7E7EC
:104100000120F6E7E7B20000ECB2000000231B60DC
:10411000FFDEFFFF2DE9F04F89B0084604AF0D46E2
:104120009146FEF77FFD041E04DDFDF71BFC2046D3
:10413000FDF726F9DAB00024FC60FCF703F90DF175
:10414000100B786007F10C020A215846FDF7AAFA15
:10415000224A386022492846FEF777FD2946204644
:10416000C847A0465E464FF0000A20E07369434509
:104170001AD1B269FB68144423B16421B3FBF1F393
:10418000B2FBF3F3317BCDE90232338C9B00CDE9F6
:104190000083144B726853F8213013492846FEF708
:1041A00054FD29460020C8470AF1010A24363B681D
:1041B0005345DBD108F10108B8F10A0FD2D17B6871
:1041C0000A491A1B2846FEF740FD29460020C84729
:1041D00000201437BD46BDE8F08F00BF56B4000084
:1041E0005BB40000DCB4000086B40000A3B400009F
:1041F00081F0004102E000BF83F0004330B54FEA98
:1042000041044FEA430594EA050F08BF90EA020F04
:104210001FBF54EA000C55EA020C7FEA645C7FEA97
:10422000655C00F0E2804FEA5454D4EB5555B8BFBA
:104230006D420CDD2C4480EA020281EA030382EA2B
:10424000000083EA010180EA020281EA0303362DBD
:1042500088BF30BD11F0004F4FEA01314FF4801C90
:104260004CEA113102D0404261EB410113F0004FA2
:104270004FEA03334CEA133302D0524263EB430359
:1042800094EA050F00F0A780A4F10104D5F1200EF7
:104290000DDB02FA0EFC22FA05F2801841F1000152
:1042A00003FA0EF2801843FA05F359410EE0A5F126
:1042B00020050EF1200E012A03FA0EFC28BF4CF057
:1042C000020C43FA05F3C01851EBE37101F000450D
:1042D00007D54FF0000EDCF1000C7EEB00006EEB1A
:1042E0000101B1F5801F1BD3B1F5001F0CD34908A4
:1042F0005FEA30004FEA3C0C04F101044FEA4452FB
:1043000012F5800F80F09A80BCF1004F08BF5FEA81
:10431000500C50F1000041EB045141EA050130BD61
:104320005FEA4C0C404141EB010111F4801FA4F104
:104330000104E9D191F0000F04BF01460020B1FA59
:1043400081F308BF2033A3F10B03B3F120020CDA91
:104350000C3208DD02F1140CC2F10C0201FA0CF06F
:1043600021FA02F10CE002F11402D8BFC2F1200CD4
:1043700001FA02F120FA0CFCDCBF41EA0C0190408A
:10438000E41AA2BF01EB0451294330BD6FEA0404D3
:104390001F3C1CDA0C340EDC04F11404C4F12002BE
:1043A00020FA04F001FA02F340EA030021FA04F3D0
:1043B00045EA030130BDC4F10C04C4F1200220FA27
:1043C00002F001FA04F340EA0300294630BD21FA65
:1043D00004F0294630BD94F0000F83F4801306BF2B
:1043E00081F480110134013D4EE77FEA645C18BF1F
:1043F0007FEA655C29D094EA050F08BF90EA020FB6
:1044000005D054EA000C04BF1946104630BD91EAAD
:10441000030F1EBF0021002030BD5FEA545C05D1B0
:104420004000494128BF41F0004130BD14F58004EF
:104430003CBF01F5801130BD01F0004545F0FE4163
:1044400041F470014FF0000030BD7FEA645C1ABF98
:10445000194610467FEA655C1CBF0B46024650EACF
:10446000013406BF52EA033591EA030F41F40021FB
:1044700030BD00BF90F0000F04BF0021704730B581
:104480004FF4806404F132044FF000054FF0000156
:1044900050E700BF90F0000F04BF0021704730B517
:1044A0004FF4806404F1320410F0004548BF4042EC
:1044B0004FF000013EE700BF42004FEAE2014FEA41
:1044C00031014FEA02701FBF12F07F4393F07F4F1C
:1044D00081F06051704732F07F4208BF704793F01F
:1044E0007F4F04BF41F40021704730B54FF4607432
:1044F00001F0004521F000411CE700BF50EA010235
:1045000008BF704730B54FF000050AE050EA0102DD
:1045100008BF704730B511F0004502D5404261EB4D
:1045200041014FF4806404F132045FEA915C3FF48E
:10453000D8AE4FF003025FEADC0C18BF03325FEA2B
:10454000DC0C18BF033202EBDC02C2F1200300FADC
:1045500003FC20FA02F001FA03FE40EA0E0021FA01
:1045600002F11444BDE600BF70B54FF0FF0C4CF4EF
:10457000E06C1CEA11541DBF1CEA135594EA0C0FA1
:1045800095EA0C0F00F0DEF82C4481EA030621EADC
:104590004C5123EA4C5350EA013518BF52EA033517
:1045A00041F4801143F4801338D0A0FB02CE4FF0C9
:1045B0000005E1FB02E506F00042E0FB03E54FF0F9
:1045C0000006E1FB03569CF0000F18BF4EF0010EF1
:1045D000A4F1FF04B6F5007F64F5407404D25FEAED
:1045E0004E0E6D4146EB060642EAC62141EA5551A0
:1045F0004FEAC52040EA5E504FEACE2EB4F1FD0CE2
:1046000088BFBCF5E06F1ED8BEF1004F08BF5FEA5F
:10461000500E50F1000041EB045170BD06F0004611
:1046200046EA010140EA020081EA0301B4EB5C04BE
:10463000C2BFD4EB0C0541EA045170BD41F48011B6
:104640004FF0000E013C00F3AB8014F1360FDEBFDB
:10465000002001F0004170BDC4F10004203C35DAB7
:104660000C341BDC04F11404C4F1200500FA05F33A
:1046700020FA04F001FA05F240EA020001F00042DB
:1046800021F0004110EBD37021FA04F642EB060151
:104690005EEA430E08BF20EAD37070BDC4F10C047B
:1046A000C4F1200500FA04F320FA05F001FA04F23F
:1046B00040EA020001F0004110EBD37041F100012B
:1046C0005EEA430E08BF20EAD37070BDC4F1200536
:1046D00000FA05F24EEA020E20FA04F301FA05F29E
:1046E00043EA020321FA04F001F0004121FA04F246
:1046F00020EA020000EBD3705EEA430E08BF20EA16
:10470000D37070BD94F0000F0FD101F0004640004F
:1047100041EB010111F4801F08BF013CF7D041EAD1
:10472000060195F0000F18BF704703F000465200D5
:1047300043EB030313F4801F08BF013DF7D043EAA6
:104740000603704794EA0C0F0CEA135518BF95EA5C
:104750000C0F0CD050EA410618BF52EA4306D1D1E3
:1047600081EA030101F000414FF0000070BD50EA02
:10477000410606BF1046194652EA430619D094EA8C
:104780000C0F02D150EA013613D195EA0C0F05D176
:1047900052EA03361CBF104619460AD181EA0301CA
:1047A00001F0004141F0FE4141F470014FF0000082
:1047B00070BD41F0FE4141F4780170BD70B54FF01D
:1047C000FF0C4CF4E06C1CEA11541DBF1CEA13559D
:1047D00094EA0C0F95EA0C0F00F0A7F8A4EB05047F
:1047E00081EA030E52EA03354FEA013100F0888076
:1047F0004FEA03334FF0805545EA131343EA12633F
:104800004FEA022245EA111545EA10654FEA0026F3
:104810000EF000419D4208BF964244F1FD0404F5AC
:10482000407402D25B084FEA3202B61A65EB030508
:104830005B084FEA32024FF480104FF4002CB6EBC5
:10484000020E75EB030E22BFB61A754640EA0C0045
:104850005B084FEA3202B6EB020E75EB030E22BF85
:10486000B61A754640EA5C005B084FEA3202B6EBC6
:10487000020E75EB030E22BFB61A754640EA9C0085
:104880005B084FEA3202B6EB020E75EB030E22BF55
:10489000B61A754640EADC0055EA060E18D04FEA13
:1048A000051545EA16754FEA06164FEAC30343EAB3
:1048B00052734FEAC2025FEA1C1CC0D111F4801F80
:1048C0000BD141EA00014FF000004FF0004CB6E779
:1048D00011F4801F04BF01430020B4F1FD0C88BF18
:1048E000BCF5E06F3FF6AFAEB5EB030C04BFB6EB23
:1048F000020C5FEA500C50F1000041EB045170BD16
:104900000EF0004E4EEA113114EB5C04C2BFD4EB42
:104910000C0541EA045170BD41F480114FF0000EC6
:10492000013C90E645EA060E8DE60CEA135594EA42
:104930000C0F08BF95EA0C0F3FF43BAF94EA0C0F45
:104940000AD150EA01347FF434AF95EA0C0F7FF4BA
:1049500025AF104619462CE795EA0C0F06D152EA0E
:1049600003353FF4FDAE1046194622E750EA4106F2
:1049700018BF52EA43067FF4C5AE50EA41047FF403
:104980000DAF52EA43057FF4EBAE12E74A0011D2B5
:1049900012F5001211D20DD56FF47873B3EB625299
:1049A0000ED44FEAC12343F0004343EA505323FAA5
:1049B00002F070474FF00000704750EA013002D11A
:1049C0004FF0FF3070474FF00000704753B94AB9BD
:1049D000002908BF00281CBF4FF0FF314FF0FF3007
:1049E00000F074B9ADF1080C6DE904CE00F006F8E2
:1049F000DDF804E0DDE9022304B070472DE9F0475B
:104A0000089E04468846002B40F085808A42154661
:104A100048D9B2FA82F24AB1C2F1200701FA02F390
:104A200020FA07F7954047EA030894404FEA154EED
:104A3000230CB8FBFEF71FFA85FC0EFB178843EA30
:104A4000084307FB0CF1994209D9EB1807F1FF3035
:104A500080F0E380994240F2E080023F2B445B1AF1
:104A6000A4B2B3FBFEF00EFB103344EA034400FB98
:104A70000CFCA44509D92C1900F1FF3380F0CB8040
:104A8000A44540F2C88002382C4440EA0740A4EB19
:104A90000C0400271EB1D4400023C6E90043394668
:104AA000BDE8F087002A53D0B2FA82F2002A40F023
:104AB000B680491B4FEA154E1FFA85F80127B1FB56
:104AC000FEFC230C0EFB1C1143EA014308FB0CF116
:104AD000994207D9EB180CF1FF3002D2994200F24B
:104AE000EC808446591AA3B2B1FBFEF00EFB101401
:104AF00043EA044408FB00F8A04507D92C1900F14B
:104B0000FF3302D2A04500F2DC801846A4EB080473
:104B100040EA0C40BEE78B4208D9002E78D000272F
:104B2000C6E9000138463946BDE8F087B3FA83F795
:104B30007FB98B4202D3824200F2BD80841A61EBBE
:104B4000030301209846002EA9D0C6E90048A6E735
:104B5000FFDEC7F12005BB4022FA05FC4CEA030C3E
:104B600001FA07F420FA05F821FA05F34FEA1C4E82
:104B700048EA0404B3FBFEF9210C0EFB19331FFABB
:104B80008CF841EA034309FB08FA9A4502FA07F256
:104B900000FA07F10BD91CEB030309F1FF3080F099
:104BA00088809A4540F28580A9F102096344A3EB0D
:104BB0000A03A4B2B3FBFEF00EFB103344EA034435
:104BC00000FB08F8A04508D91CEB040400F1FF33F2
:104BD0006BD2A04569D90238644440EA0940A4EB8D
:104BE0000804A0FB02894C45C6464B4654D351D01D
:104BF000002E69D0B1EB0E0264EB030404FA05F554
:104C000022FA07F3FC401D43C6E90054002746E79B
:104C10003746304643E7184637E707461FE7C2F1F5
:104C2000200320FA03F7954001FA02F021FA03F37A
:104C30004FEA154E3843010CB3FBFEF71FFA85F817
:104C40000EFB173341EA034107FB08F38B4204FADA
:104C500002F407D9691807F1FF3C28D28B4226D904
:104C6000023F2944CB1A81B2B3FBFEF00EFB103396
:104C700041EA034100FB08F38B4207D9691800F1B0
:104C8000FF3C10D28B420ED902382944C91A40EA9F
:104C9000074714E74145ABD2B8EB020E69EB0C02B3
:104CA00001381346A4E76046F0E7184695E76746E3
:104CB000D8E781467BE7384645E7ACF1020C2B4448
:104CC00010E702382C4421E73746E8E6704700BF7A
:104CD0000A22002102F088B90EB403B5014603ABE5
:104CE000054853F8042B0068019300F09DF902B0C9
:104CF0005DF804EB03B070476401001070B50E4618
:104D00001446054618B183690BB903F00FFA2B4B13
:104D10009C421ED16C68636EDA0705D4A3899B059B
:104D200002D4A06D00F06BF8A38918071BD5236986
:104D3000CBB1013E16F8011F39BB656E15F00105B8
:104D400039D1A389990502D4A06D00F059F82846FD
:104D500070BD1B4B9C4201D1AC68DCE7194B9C42F7
:104D600008BFEC68D7E72146284602F001FA002880
:104D7000DFD0636EDA0705D4A3899B0502D4A06D4A
:104D800000F03EF84FF0FF35E1E7A368013B002B50
:104D9000A36004DAA269934206DB0A2904D02368DF
:104DA0005A1C22601970C5E72246284602F08EF987
:104DB0000130BFD1DDE70D46C9E700BFC0B6000036
:104DC000E0B60000A0B60000024B0A460146186893
:104DD000FFF794BF64010010074B10B51C6824B1A5
:104DE000A36913B9204603F0A1F961682046BDE824
:104DF000104003F07DBD00BF640100107047704794
:104E00007047FFFF024B0146186800F089B800BFE9
:104E100064010010024B0146186800F033B800BF6F
:104E2000640100100A44914200F1FF3300D1704741
:104E300010B511F8014B03F8014F9142F9D110BDA3
:104E4000884210B501EB020302D983421C4607D801
:104E5000421E994208D011F8014B02F8014FF8E7C1
:104E600083189A1A9A4200D110BD14F8011D03F854
:104E7000011DF7E702440346934200D1704703F84F
:104E8000011BF9E738B50546002945D051F8043C27
:104E90000C1F002BB8BFE41803F03AFE1F4A13683A
:104EA000104633B9636014602846BDE8384003F00B
:104EB00035BEA3420CD921686218934204BF1A6818
:104EC0005B68636004BF521822600460ECE713461D
:104ED0005A680AB1A242FAD919685818A0420BD1EF
:104EE00020680144581882421960DDD11068526868
:104EF0005A6001441960D7E702D90C232B60D3E72D
:104F0000206821188A4204BF11685268626004BF99
:104F1000091821605C60C7E738BD00BFE4120010CB
:104F2000F8B5CD1C25F0030508350C2D38BF0C2530
:104F3000002D064601DBA94203D90C233360002073
:104F4000F8BD03F0E5FD21490A6814469CB9204FDD
:104F50003B6823B92146304601F054F838602946B1
:104F6000304601F04FF8431C23D10C233360304608
:104F700003F0D4FDE3E723685B1B17D40B2B03D9A5
:104F800023601C44256004E06368A2420CBF0B60F0
:104F90005360304603F0C2FD04F10B00231D20F0E6
:104FA0000700C21ACCD01B1AA350C9E72246646876
:104FB000CCE7C41C24F00304A042E3D0211A3046FD
:104FC00001F020F80130DDD1CFE700BFE41200107E
:104FD000E81200109368013B002B10B4936008DACC
:104FE0009469A34201DB0A2903D15DF8044B02F066
:104FF0006DB81368581C1060197008465DF8044BB2
:105000007047F8B506460F461446D518AC4201D194
:10501000002007E03A4614F8011B3046FFF7DAFF9C
:10502000431CF3D1F8BDFFFF2DE9F04F0D469DB0B5
:1050300014461E46074618B183690BB903F076F88B
:10504000854B9D421BD17D686B6ED90705D4AB891A
:105050009A0502D4A86DFFF7D2FEAB891B0701D5D4
:105060002B69EBB92946384602F082F8C0B16B6E65
:10507000D8070ED54FF0FF301DB0BDE8F08F774B4D
:105080009D4201D1BD68DFE7754B9D4208BFFD68B9
:10509000DAE7AB899905EDD4A86DFFF7B1FEE9E732
:1050A0000023099320238DF82930DFF8B891039667
:1050B00030238DF82A304FF0010A23461E4613F89C
:1050C000012B0AB1252AF9D1B6EB040B0BD05B46B4
:1050D000224629463846FFF794FF013000F0A380AE
:1050E000099B5B4409933378002B00F09C800023DC
:1050F0004FF0FF32CDE905230136049307938DF875
:1051000053301A933446052214F8011B554803F016
:10511000AFFC049BC0B9DA0644BF20228DF85320AF
:10512000180744BF2B228DF8532032782A2A13D037
:10513000079A344600200A26214611F8013B303BED
:10514000092B4BD970B914E0A0EB09000AFA00F062
:10515000184304902646D5E7039A111D126803915F
:10516000002A01DB079204E0524243F00203079257
:10517000049323782E2B0CD163782A2B33D1039BF5
:105180001A1D1B680392002BB8BF4FF0FF33023487
:105190000593354E21780322304603F069FC38B17F
:1051A0004023801B03FA00F0049B03430134049363
:1051B00014F8011B2D488DF82810062203F058FC26
:1051C00000283FD02A4B13BB039B073323F0070370
:1051D00008330393099B434409936EE706FB0232AD
:1051E00001200C46A8E700230134059319460A263E
:1051F000204610F8012B303A092A03D9002BC8D0D9
:105200000591C6E706FB012101230446F0E703AB45
:1052100000932A46174B04A9384600F0BDF8B0F1B8
:10522000FF3F8046D6D16B6ED90705D4AB899A056E
:1052300002D4A86DFFF7E4FDAB895B063FF51AAF1A
:10524000099819E703AB00932A460A4B04A938468C
:1052500000F042FBE3E700BFC0B60000E0B600008C
:10526000A0B60000F8B50000FEB5000002B60000D0
:1052700099530000035000002DE9FF4755EC104BF7
:10528000002D0E4691461946DDF830A04FF0000281
:1052900003DA05F100431D462D220D9F0A7027F009
:1052A0002007462F04D0452F00D10136022100E00F
:1052B000032103AB019302AB00933246534645EC06
:1052C000104B02F04DF8472F804602D119F0010F24
:1052D00022D0462F08EB060911D198F80030302B68
:1052E0000AD1002200232046294604F09DFF18B968
:1052F000C6F10106CAF80060DAF8003099440022CD
:1053000000232046294604F08FFF08B1CDF80C9009
:105310003022039B4B4508D3039B0E9AA3EB080353
:105320004046136004B0BDE8F087591C03911A7021
:10533000EFE7F7B50029BABF49422D232B230929EE
:105340000270437021DD0DF107031F460A2691FB11
:10535000F6F206FB12143034632903F1FF3503F82B
:10536000014C0ADC303205F8012C023B821CBB42A6
:10537000144605D3201A03B0F0BD2B461146E6E7CC
:1053800013F8011B02F8011BF1E730231944837065
:10539000041DC170EEE7FFFF2DE9F04F8DB00C4604
:1053A000DDF8588016461F46054603F0E1FA03680B
:1053B0000693184600F047FF00230A93D8F8003000
:1053C0000790073323F0070303F1080294F818A0AD
:1053D000D4F800B0C8F80020D3E90023C4E91223B0
:1053E00094ED127B8DED047BDDE9048323F000490D
:1053F0004FF0FF32A64B4046494604F047FF70BBD2
:105400004FF0FF32A24B4046494604F021FF30BB2B
:1054100000220023DDE9040104F010FF10B12D2368
:1054200084F843309B4A9C4BBAF1470F94BF904697
:10543000984603232BF00402236122604FF00009F9
:10544000009733460BAA2146284600F0CFF90130D9
:1054500040F08C804FF0FF300DB0BDE8F08FDDE9FB
:1054600004231046194604F011FF40B1059B8B4AF6
:10547000002BBCBF2D2384F84330894BD4E76368ED
:105480005A1C0AF0DF093ED1062363600023039310
:105490000AAB4BF48062CDE901A309AB00936168CC
:1054A00022600DF123039DED040B2846FFF7E4FE77
:1054B000B9F1470F8046099908D1C81C02DB63681F
:1054C000994241DDAAF1020A5FFA8AFABAF1650F40
:1054D00020D80139524604F150000991FFF729FF05
:1054E0000A9A1318012A8146236102DC2268D20736
:1054F00001D5013323619DF82330002BA0D02D234B
:1055000084F843309CE7B9F1470FBFD1002BBDD1E0
:105510000123BAE7BAF1660F18D1002963680BDDE1
:10552000216113B92268D00702D501330B442361EE
:10553000A1654FF00009DEE713B92268D20701D553
:105540000233F4E70123F2E74FF0670A0A9B99421E
:1055500005DB23682161D807EAD54B1CE7E7002962
:10556000D4BFC1F1020201221344E0E723685A05C7
:1055700007D42369424631462846B84701302BD12B
:1055800068E7BAF1650F40F2DC8000220023D4E91D
:10559000120104F049FE002833D00123414A31466C
:1055A0002846B84701303FF455AFDDE909239A4258
:1055B00002DB2368D8070FD5DDE9062331462846EC
:1055C000B84701303FF446AF4FF0000804F11A0924
:1055D0000A9B013B434509DC23689B0700F10181DD
:1055E000E0680B9B9842B8BF184635E701234A464E
:1055F00031462846B84701303FF42CAF08F1010886
:10560000E6E7099B002B2BDC0123264A314628467E
:10561000B84701303FF41EAFDDE90923134302D13F
:105620002368D907D8D5DDE9062331462846B8478F
:1056300001303FF40FAF4FF0000904F11A0A099B43
:105640005B424B4501DC0A9B94E7012352463146FD
:105650002846B84701303FF4FDAE09F10109EEE7F5
:105660000A9AA36D9A42A8BF1A46002A914607DDFE
:105670001346314642462846B84701303FF4EAAE69
:1056800004F11A034FF0000B29EAE979049315E0BD
:10569000FFFFEF7F09B600000DB6000011B6000055
:1056A00015B60000A3A700000123049A314628463E
:1056B000B84701303FF4CEAE0BF1010BD4F858A03F
:1056C000AAEB09035B45EFDCDDE909239A421BDB0A
:1056D0002368DA0718D4DDE9092392451CDBA3EB24
:1056E0000A09B9F1000F08DD4B4608EB0A02314602
:1056F0002846B84701303FF4ADAE4FF0000829EA24
:10570000E97904F11A0A14E0DDE906233146284656
:10571000B8470130DFD19DE6A3EB0209E1E70123A1
:10572000524631462846B84701303FF493AE08F15F
:105730000108DDE909239B1AA3EB09034345EEDCCD
:105740004AE70A9A012A01DCDB0737D501234246E2
:1057500031462846B84701303FF47CAEDDE90623E8
:1057600031462846B84701303FF474AE002200238A
:10577000D4E9120104F058FDD8B90A9B08F10102DE
:10578000013B31462846B84701300ED162E601237D
:10579000524631462846B84701303FF45BAE08F127
:1057A00001080A9B013B4345F1DC4B4604F15002E2
:1057B000E1E64FF0000804F11A0AF2E7012342463D
:1057C000DFE701234A4631462846B84701303FF417
:1057D00041AE08F10108E3680B9A9B1A4345F0DCDF
:1057E000FEE64FF0000804F11909F4E72DE9F0474F
:1057F00091461F468A680B69DDF820809342B8BF46
:105800001346C9F8003091F8432006460C4612B101
:105810000133C9F800302368990642BFD9F8003037
:105820000233C9F80030256815F0060507D104F1E8
:10583000190AE368D9F800209B1AAB4228DC94F8D7
:1058400043302268003318BF012392062DD404F19F
:10585000430239463046C047013020D02368E5680E
:10586000D9F8002003F00603042B08BFAD1AA36883
:1058700022690CBF25EAE57500259342C4BF9B1A37
:10588000ED184FF000091A344D451AD1002008E0F8
:105890000123524639463046C047013003D14FF00C
:1058A000FF30BDE8F0870135C3E7E1185A1C30200E
:1058B00081F84300224494F8451082F843100233E3
:1058C000C5E70123224639463046C0470130E6D0BD
:1058D00009F10109D8E7FFFF2DE9F04306460C4620
:1058E00001F14300097E85B06E29984617460C9B4E
:1058F00000F0BA8024D8632939D00AD8002900F0F2
:10590000C380582900F0918004F1420584F84210C8
:1059100035E0642901D06929F6D125681A6815F0A7
:10592000800F02F104012CD012681960002A03DAFA
:105930002D23524284F84330DFF8BCC10A233FE0F4
:10594000732900F0A58008D86F2921D07029DBD1F8
:10595000226842F02002226003E0752918D07829DD
:10596000D2D1782284F84520DFF890C161E01A682E
:10597000111D1960136884F8423004F142050123B7
:1059800093E01268196015F0400F18BF12B2CDE70E
:10599000D4F800C01A681CF0800F02F104051D60E5
:1059A00001D0126803E01CF0400FFAD01288DFF833
:1059B00048C16F290CBF08230A23002184F8431033
:1059C0006568A560002DA2BF216821F00401216057
:1059D0000AB9002D46D00546B2FBF3F103FB112EA8
:1059E00093421CF80EE005F801ED39D9082B0BD1D4
:1059F0002368DA0708D5236962689A42DEBF30233C
:105A000005F8013C05F1FF35401B2061CDF8008011
:105A10003B4603AA21463046FFF7E8FE013049D154
:105A20004FF0FF3005B0BDE8F083DFF8CCC084F85C
:105A300045101D68216855F8042B1D600D060BD517
:105A4000CD0744BF41F0200121601AB9236823F03B
:105A5000200323601023B0E74B0648BF92B2EFE764
:105A60000A46B9E70546C1E71A68D4F800C061697B
:105A7000151D1D601CF0800F136801D0196003E034
:105A80001CF0400FFAD01980002323610546BDE7C2
:105A90001A68111D1960156862680021284602F015
:105AA000E7FF08B1401B606063682361002384F84E
:105AB0004330ABE723692A4639463046C0470130B8
:105AC000AED023689B0713D4E068039B9842B8BF0D
:105AD0001846A7E701234A4639463046C0470130F9
