:10000000000001100D01000029010000290100007D
:100010002901000029010000290100002901000038
:10002000290100002901000029010000310F000012
:100030002901000029010000A10F000005100000A7
:100040004513000045130000451300004513000050
:100050004513000045130000451300004513000040
:100060004513000045130000451300004513000030
:100070004513000045130000451300004513000020
:100080004513000045130000451300004513000010
:100090004513000045130000451300004513000000
:1000A00045130000451300004513000045130000F0
:1000B00045130000451300004513000045130000E0
:1000C00045130000451300004513000045130000D0
:1000D00045130000451300004513000045130000C0
:1000E00045130000A0180000000000106C01000083
:1000F000A018000000000020000000006C010010AB
:1001000014010000000000200000000008B501F00C
:100110008DF801F093F801F02DF801F027F801F0C7
:100120006BFA00F017F8FEE7FEE7FFFF084C2268C5
:1001300042F0080208B508252260E5614FF4FA7024
:1001400000F048FDA5614FF4FA7000F043FDF4E7BC
:100150004080092013B501220221002001F0A4F8FB
:1001600001220321002001F09FF800F0FFFF4FF46F
:10017000E1320146002001F087F9002201218020B0
:1001800000F05CF9002204460121202000F056F91D
:1001900021460246002001F0A9F900240123CDE9FF
:1001A00000344FF4007223460449054800F0FEFA7B
:1001B00000F0DCFB204602B010BD00BF3418000088
:1001C0002D01000008B5002001F02AFAFEE7FFFF2C
:1001D00008B50249002001F023FAFEE738180000B4
:1001E000704700F108034FF0FF324360C0E902237B
:1001F0000361002303607047002303617047436875
:100200004B609A688A609A685160996003680861D7
:100210000133036070470A68531C30B50AD1036983
:100220005A684A6091608B605960036808610133C5
:10023000036030BD00F108035C6825689542EFD883
:100240002346F9E7D0E9011203698A6051605968D1
:10025000814208BF5A60002202611A68013A1A609E
:1002600018687047F8B51546026C866B044652B99B
:10027000076847BB806800F0ADFDA7600546013602
:10028000A6632846F8BD65B9406801F0EFF96368D8
:10029000226C1344A26863609342F0D323686360C6
:1002A000EDE7C06801F0E2F9236CE26821685B4287
:1002B0001A448A42E2603EBFA2689B18E360022DA6
:1002C00001D116B1013E0025D9E73546D7E773B510
:1002D000846C01900A4604B9FEE7A16BE36B994276
:1002E00000D3FEE7A16B8B421AD994F8455001A9BF
:1002F0002046FFF7B7FF6DB26B1C06460BD1636A51
:1003000033B104F1240000F0DDFC002818BF012601
:10031000304602B070BD01356DB284F84550F7E744
:100320000026F5E7034610B41A6C084662B1D96896
:100330009C681144A142D96024BF1968D960D9686A
:100340005DF8044B01F092B95DF8044B704770B54D
:10035000044600F0FFFD94F8455004F124066DB208
:10036000002D14DCFF2384F8453000F00DFE00F072
:10037000F1FD94F8445004F110066DB2002D19DC23
:10038000FF2384F84430BDE8704000F0FDBDA36C4D
:100390004BB100212046FFF79AFF08B100F004FDA1
:1003A000013D6DB2DCE7636A002BDBD0304600F024
:1003B00089FCF2E72369002BE2D0304600F082FC92
:1003C00008B100F0F1FC013D6DB2D7E738B50D463C
:1003D000044600B9FEE700F0BDFDD4E90F30226805
:1003E00062604343D1181B1A1344A160E3600021EB
:1003F000FF23A16384F8443084F8453095B923691C
:1004000063B104F1100000F05DFC38B10A4B4FF00D
:1004100080521A60BFF34F8FBFF36F8F00F0B4FDAF
:10042000012038BD04F11000FFF7DBFE04F12400C9
:10043000FFF7D7FEF2E700BF04ED00E070B50D4610
:10044000064600B9FEE748434C3000F003FD044681
:1004500058B165B100F14C032360C4E90F65012177
:100460002046FFF7B3FF0023A364204670BD034678
:10047000F2E7FFFF2DE9FF47884601921E4604463A
:1004800000B9FEE711B9036C03B1FEE7022E03D1F8
:10049000E36B012B00D0FEE700F08CFC074610B99F
:1004A000019B0BB1FEE700274FF00009DFF800A128
:1004B0003FE0636A002B54D004F1240000F002FCFA
:1004C0004FE0019D1DB900F05FFD002055E017B918
:1004D00002A800F031FC00F057FD00F07BFA00F0BC
:1004E00039FD94F84430FF2B08BF84F8449094F809
:1004F0004530FF2B08BF84F8459000F045FD01A969
:1005000002A800F025FC00284BD100F023FDA26BCF
:10051000E36B9A4234D100F037FD019904F11000E9
:1005200000F0BEFB2046FFF712FF00F0E5FA78B3BB
:10053000012700F00FFDA26BE36B9A4201D3022E5C
:10054000BFD1324641462046A56BFFF78BFEA36C18
:10055000002BAED0022E00D165B931462046FFF700
:10056000B6FE38B1124B4FF080521A60BFF34F8F76
:10057000BFF36F8F00F008FD012004B0BDE8F087E5
:1005800000F002FD2046FFF7E2FE00F0B5FACFE7EB
:100590004FF08053CAF80030BFF34F8FBFF36F8F17
:1005A000C6E72046FFF7D3FE00F0A6FA8DE700BFAE
:1005B00004ED00E02DE9F843894690461F460446C5
:1005C00000B9FEE711B9036C03B1FEE7022F03D1B6
:1005D000E36B012B00D0FEE700F0AAFDEFF31186DC
:1005E0004FF0FF0383F31188BFF36F8FBFF34F8F7B
:1005F000A26BE36B9A4201D3022F29D194F84550A4
:100600003A466DB249462046FFF72CFE6B1C1AD1C4
:10061000A36C83B139462046FFF759FE08B9012083
:1006200005E0B8F1000FFAD00120C8F8000086F309
:100630001188BDE8F883636A002BF0D004F1240030
:1006400000F040FBEAE701356DB284F84550E6E77B
:100650000020ECE72DE9F84389469046054600B9AD
:10066000FEE711B9036C03B1FEE700F061FDEFF3A3
:1006700011874FF0FF0383F31188BFF36F8FBFF330
:100680004F8FAC6B1CB395F84460494676B2284650
:10069000FFF748FE013C731CAC6313D12B690BB907
:1006A00001200BE005F1100000F00CFB0028F7D052
:1006B000B8F1000FF4D00120C8F8000087F31188CA
:1006C000BDE8F883013676B285F84460E8E7204655
:1006D000F4E7FFFF08B5074C074D4FF0805623683D
:1006E000012B04D92E60BFF34F8FBFF36F8FFFF73D
:1006F00077FDF4E77801001004ED00E0064A136886
:100700001968064B19B94FF0FF321A60704712682A
:10071000D268D2685268F8E7700100101C0200101D
:10072000F8B51B4B1B4E1C680546306804300F465D
:10073000FFF788FD334640B93168174EC96A326801
:100740000120884022EA000232606A1C07D137B1DA
:10075000196812480431BDE8F840FFF750BD1A6827
:100760006419546007D30E4A10681968BDE8F84050
:100770000431FFF750BD0B4A106819680431FFF7C8
:100780004AFD094B1A68A24288BF1C60F8BD00BF31
:10079000500200106C010010EC0100103C0200102F
:1007A00074010010700100101C0200102DE9F84FB8
:1007B0009600814630460D469A4600F04BFB0746B0
:1007C00098B1502000F046FB044658B1076332460A
:1007D000A521384600F058FFD4F830B045B984F868
:1007E000345013E0384600F044FB4FF0FF358CE006
:1007F0006B1E04F134020B3513F8011F02F8011BC4
:1008000009B19D42F8D1002384F83F300A9D042DA0
:1008100028BF04254FF00008271DE56225643846EF
:10082000C4F84480043EFFF7E7FCC5F1050504F178
:1008300018005E44FFF7E0FCC4F848802461A5611D
:10084000646284F84C805246494626F0070000F066
:1008500053FB0B9B206003B11C6000F07BFB324B11
:10086000324E1A68DFF8FC8001321A603268002AC2
:100870004ED134601B68012B22D12D48DFF8E8905F
:100880002C4DFFF7AEFC2C48FFF7ABFC2B48FFF7D5
:10089000A8FC2B48FFF7A5FC2A48FFF7A2FC484616
:1008A000FFF79FFC2846FFF79CFC2748FFF799FCC1
:1008B0002648FFF796FC264BC3F80090254B1D6099
:1008C000254A26491368086801331360E26A012546
:1008D00005FA02F303430B60154B142000FB0230B2
:1008E0003946FFF78CFC00F04FFBD8F8003063B1BD
:1008F0003368DA6AE36A9A4207D2194B4FF08052A2
:100900001A60BFF34F8FBFF36F8F2846BDE8F88F93
:10091000D8F80030002BD3D13368E26ADB6A9A4200
:1009200028BF3460CCE700BFDC0100106C01001070
:1009300078010010040200108C010010A0010010CA
:10094000B4010010C8010010240200103C02001085
:100950007001001074010010E8010010EC0100109B
:1009600004ED00E038020010F001001013B5134B45
:100970000193002400942346802211491148FFF777
:1009800015FF012814D14FF0FF0383F31188BFF343
:100990006F8FBFF34F8F0C4B4FF0FF321A600B4B32
:1009A00018600B4B1C6002B0BDE8104000F058BB53
:1009B000013000D1FEE702B010BD00BF18020010E8
:1009C0006E180000D50600001C020010380200104E
:1009D00050020010024A136801331360704700BFD1
:1009E000E40100102DE9F84F384B1B68002B66D14D
:1009F000374B1C6801341C607CB9364B1A6812688E
:100A000002B1FEE7344A1968106818601160334A71
:100A1000136801331360FFF771FE314D314F2B68BE
:100A2000A3424FF0000B11D93A682F4BD16A142220
:100A30004A439A58022A28BF4FF0010B2B4A1268EA
:100A4000002A0CBF58460120BDE8F88FDFF884A0CB
:100A5000DFF8A090DAF8002012681AB94FF0FF32E0
:100A60002A60E1E7DAF80020D268D66871688C4223
:100A700001D22960D8E706F104084046FFF7E2FBFF
:100A8000B16A19B106F11800FFF7DCFBF06AD9F87A
:100A90000030012202FA00F11943134BC9F800108B
:100AA0004FF0140C41460CFB0030FFF7A8FB3868F0
:100AB000F16AC26A914228BF4FF0010BCAE70C4AA3
:100AC0001368013313604FF0000BB7E7E401001027
:100AD000500200107001001074010010200200107C
:100AE0001C0200106C01001078010010540200106C
:100AF000E0010010EC0100102DE9F8432C4C2368B4
:100B000003B9FEE700F026FA2368013B236024685E
:100B10002CB1002400F038FA2046BDE8F883254BBC
:100B20001B68002BF5D0244D244EDFF8A4801FE075
:100B3000EB68DC6804F1040904F11800FFF782FB9C
:100B40004846FFF77FFBE26A3168012707FA02F3A4
:100B500014200B4300FB028049463360FFF74FFB34
:100B6000174BE26A1B68DB6A9A4201D3154B1F6080
:100B70002B68002BDCD10CB1FFF7C0FD124D2C68A7
:100B800044B1104E0127FFF72DFF00B13760013C43
:100B9000F9D12C600B4B1B68002BBAD00B4B4FF0DC
:100BA00080521A60BFF34F8FBFF36F8F0124B1E7FC
:100BB000E4010010DC01001024020010EC01001020
:100BC0006C01001054020010E001001004ED00E080
:100BD0007801001008B540B90A4B4FF080521A60F6
:100BE000BFF34F8FBFF36F8F08BD074B196801B17B
:100BF000FEE7FFF7EFFEFFF793FDFFF77DFF00280D
:100C0000EAD0F1E704ED00E0E401001038B51F4B35
:100C10001A681F4B12B101221A6038BD1D4C1A60B0
:100C200023681B6B1A68B2F1A53F0BD15A68B2F169
:100C3000A53F07D19A68B2F1A53F03D1DB68B3F1B4
:100C4000A53F04D0206821683431FFF7BBFA124B6E
:100C50001B68B3FA83F3DBB2C3F11F0314220F49FD
:100C60005A4388188D5805B9FEE7456808326D6803
:100C700045600A44954204BF6A684260142202FB40
:100C800003135B68DB682360C7E700BFE401001063
:100C9000540200106C010010EC01001078010010EB
:100CA00010B50C4600B9FEE7054B19681831FFF77F
:100CB000B2FA20460121BDE81040FFF731BD00BF68
:100CC0006C01001038B5C368DC6804B9FEE704F1B4
:100CD00018052846FFF7B6FA114B1B68E3B9251D26
:100CE0002846FFF7AFFA0F49E26A086801239340EC
:100CF00003430B600C4B1420294600FB0230FFF726
:100D00007EFA0A4BE26A1B68DB6A9A4283BF084B91
:100D100001201860002038BD29460648EFE700BFD3
:100D2000E4010010EC010010780100106C010010CB
:100D30005402001024020010034B1B680360034B95
:100D40001B684360704700BF200200105002001073
:100D500070B50C46054600B9FEE701B9FEE700F0A4
:100D6000F9F80F4B196823685A1C10D00D482E68EB
:100D700000686A68864201D08A420FD9881A834285
:100D80000AD95B1A134423602846FFF7D5FF0024D5
:100D900000F0FAF8204670BD002323600124F7E735
:100DA0005002001020020010014B01221A6070470F
:100DB00054020010054B1B6833B1054B1B68002B18
:100DC0000CBF02200020704701207047380200103D
:100DD000E4010010F8B5044608B90020F8BD1A4B2C
:100DE0001B68834200D0FEE75B6C03B9FEE7C16A73
:100DF000026C013B91424364EFD0002BEDD1051D05
:100E00002846FFF71FFA114E114A50B9E76A14211C
:100E1000794373582BB913680120B84023EA0003C3
:100E20001360236CE362C3F10501A1611168012421
:100E300004FA03F008431060142000FB0360294605
:100E4000FFF7DDF92046C9E76C01001078010010BA
:100E5000EC01001010B50446FFF7BCFD204600F081
:100E6000F5FB0446FFF748FE0CB9FFF7B1F9204641
:100E700010BD10B5044640B1FFF7ACFD204600F0B0
:100E8000EDFBBDE81040FFF737BE10BD82B0002378
:100E90000193094B1B68013300D0FEE74FF0FF03BD
:100EA00083F31188BFF36F8FBFF34F8F019B002B2C
:100EB000FCD002B0704700BF000000100848006876
:100EC000006880F308884FF0000080F3148862B651
:100ED00061B6BFF34F8FBFF36F8F00DF00BF00001D
:100EE00008ED00E0DFF80C00016841F470010160DA
:100EF0007047000088ED00E04FF0807340F8043C3C
:100F0000074B40F80C3C21F001016FF0020340F860
:100F1000081C40F8202C40F8243C4438704700BF9F
:100F20008D0E0000FFFFFFFFFFFFFFFFFFFFFFFF32
:100F3000074B19680868B0E8F04F80F30988BFF3E1
:100F40006F8F4FF0000080F311887047AFF300807F
:100F50006C0100104FF0FF0383F31188BFF36F8F14
:100F6000BFF34F8F064A13680133012B136005D17D
:100F7000044B1B6813F0FF0F00D0FEE7704700BF63
:100F80000000001004ED00E0044A136803B9FEE716
:100F9000013B13600BB983F3118870470000001008
:100FA000EFF30980BFF36F8F154B1A681EF0100F17
:100FB00008BF20ED108A20E9F04F10602DE90900EC
:100FC0004FF0FF0080F31188BFF34F8FBFF36F8F97
:100FD000FFF71CFE4FF0000080F3118809BC196870
:100FE0000868B0E8F04F1EF0100F08BFB0EC108A90
:100FF00080F30988BFF36F8F704700BFAFF30080A5
:101000006C01001008B54FF0FF0383F31188BFF3A4
:101010006F8FBFF34F8FFFF7E5FC18B1034B4FF015
:1010200080521A60002383F3118808BD04ED00E0AC
:1010300010B5084A084C00232360136000F096F8AE
:101040004FF47A73B0FBF3F0044B013818600723B8
:10105000236010BD18E000E010E000E014E000E0C4
:101060002A4B2B4A13B51968914200D1FEE71A6842
:10107000284B9A4200D1FEE7274B1A78D2B2019250
:10108000FF221A701B78DBB28DF80330234B9DF8DA
:1010900003201A70224B07221A6000219DF80300DA
:1010A000000602F1FF3428D401B11A601A68120256
:1010B00002F4E0621A60019B174ADBB21370194B0D
:1010C0001A6842F47F021A601A6842F07F421A607E
:1010D000FFF7AEFF144B00241C60FFF703FF134A19
:1010E000136843F040431360FFF7E8FEFFF78EFDFF
:1010F000FFF7CCFE204602B010BD9DF80320520041
:10110000D2B28DF8032001212246C7E700ED00E0AE
:1011100071C20F4170C20F4100E400E0580200109C
:101120005C02001020ED00E00000001034EF00E051
:10113000EFF305830F2B06D9084A9B5C084A127807
:101140009A4200D9FEE7074B074A1B68126803F46E
:10115000E063934200D9FEE7704700BFF0E300E090
:10116000580200100CED00E05C02001000487047CF
:1011700000D8B8050E4B0722C3F88420AA2101220B
:10118000C3F88020C3F88C105521C3F88C10C3F825
:10119000A821D3F888205205FBD51A6822F47042A2
:1011A00042F480421A6040F20112C3F804217047F1
:1011B00000C00F400A4A0B4B0B498B4205D30B4A28
:1011C0000B4B0C498B4205D3704712F8010B03F807
:1011D000010BF2E712F8010B03F8010BF2E700BF75
:1011E000A0180000000000106C010010A018000002
:1011F0000000002000000020084B094A0021934213
:1012000005D3084B084A0021934203D3704703F8E3
:10121000011BF4E703F8011BF6E700BF6C010010A7
:1012200080020010000000200000002008B5FFF739
:10123000C1FFBDE80840FFF7DFBFFFFF034AD2F858
:10124000883043F47003C2F88830704700ED00E046
:10125000064B1968024609B905491960186805491D
:1012600002448A4234BF1A600020704760020010B6
:10127000000000200080002082B0C3B2ADF804005E
:10128000C0F30720800000EBC31000F1804000F5A0
:10129000303001F00701036823F00703036003689F
:1012A0001943016002B0704737B58DF801108DF811
:1012B000000004460D4600981146FFF7DDFF44EAA2
:1012C000052003B030BDFFFF2DE9F0410B4C04EBCE
:1012D000C00390461E79054630460F4600F03EF8A2
:1012E0004146304600F04CF854F8353000229A6000
:1012F0001A670122DF605A60BDE8F08174180000AF
:10130000094B70B553F8300001EB410501246B1C0B
:10131000466904FA03F3AC40234333434361183076
:1013200040F8212070BD00BF74180000034B53F833
:101330003020012303FA01F1116070477418000096
:10134000FEE7FFFF034B044A1B78103BDBB252F869
:101350002330184704ED00E004000010082809D8E5
:10136000054B064A185CD2F8C410012383400B4396
:10137000C2F8C430704700BF9418000000C00F408E
:10138000074B43F8201043B2002B08DB012200F08A
:101390001F0002FA00F05B09024A42F8230070477E
:1013A0000400001000E100E002689368C3F3420308
:1013B000022B73B5064623D0062B21D0012B34D146
:1013C00000248DF803400194102501AA0DF10301BA
:1013D0003069FFF73FF948B133689DF803201A7070
:1013E000019B002B18BF0124013DEED10CB3124B21
:1013F0004FF080521A60BFF34F8FBFF36F8F18E02A
:101400000024019433681A7DD207EFD51B788DF83C
:10141000033001AA00230DF103017069FFF7CAF838
:10142000019B002B18BF0124ECE7137DDBB2019375
:10143000019B02B070BD00BF04ED00E00148FFF762
:10144000B3BF00BFF00000100148FFF7ADBF00BF01
:10145000D80000100148FFF7A7BF00BFC000001070
:101460000148FFF7A1BF00BFA800001010B5044657
:1014700081680079FFF784FF236841221A720622EF
:101480001A7207225A6010BD2DE9F041DFF858802A
:101490001825454308EB05060C46337B17460BBB66
:1014A0003079FFF75BFF3F01B4FBF7F307EE903AAB
:1014B000F8EE677AB6EE007A77EE877A58F805206C
:1014C000FCEEE77A802117EE903A9BB21173190A6D
:1014D000DBB211711370102382F8283007231373C5
:1014E00001233373BDE8F081A8000010104B70B5E4
:1014F000182404FB0034257B15B90025284670BD4F
:1015000066690EB901B16161182101FB00310C69F6
:101510000CB902B10A61182202FB00304369002BAA
:10152000EBD00369002BE8D0FFF7A0FFE6E700BF90
:10153000A80000102DE9F3410446174F8DF807105D
:10154000182565437E199046FFF734FC3469ECB1E9
:1015500002281FD1002342460DF107012046FEF765
:1015600089FF041C18BF0124FFF7F4FC7D592B7D73
:101570005B0609D500220DF107013069FFF76AF813
:1015800010B19DF807302B70FFF7FEFC204602B02B
:10159000BDE8F0810024F9E7A8000010F8B5182391
:1015A00043430F4A0646D718D4580D46FFF702FCAE
:1015B0000346387B60B1022B0BD13B694BB14FF036
:1015C000FF3229463046FFF7B5FF237D9B06FCD549
:1015D000F8BD237D9A06FCD525700020F5E700BFF5
:1015E000A8000010034A1368002101330846136065
:1015F000FFF79CBE6402001010B5074A074CB0FB11
:10160000F4F100200139FFF75FFE00212246084671
:10161000BDE81040FFF774BEE515000040420F0022
:1016200070B5054608460C4600F0EEF82618B442A0
:1016300005D128460A21BDE87040FFF7AFBF14F876
:10164000011B2846FFF7AAFFF1E7FFFF024B014607
:10165000186800F06FB800BF08010010024B014687
:10166000186800F019B800BF080100100A44914240
:1016700000F1FF3300D1704710B511F8014B03F8AA
:10168000014F9142F9D110BD02440346934200D16B
:10169000704703F8011BF9E738B50546002945D026
:1016A00051F8043C0C1F002BB8BFE41800F0B4F84C
:1016B0001F4A1368104633B9636014602846BDE8BA
:1016C000384000F0AFB8A3420CD9216862189342A9
:1016D00004BF1A685B68636004BF5218226004602C
:1016E000ECE713465A680AB1A242FAD919685818A9
:1016F000A0420BD120680144581882421960DDD104
:10170000106852685A6001441960D7E702D90C2367
:101710002B60D3E7206821188A4204BF1168526801
:10172000626004BF091821605C60C7E738BD00BF74
:1017300068020010F8B5CD1C25F0030508350C2D06
:1017400038BF0C25002D064601DBA94203D90C2326
:1017500033600020F8BD00F05FF821490A681446A4
:101760009CB9204F3B6823B92146304600F03CF835
:1017700038602946304600F037F8431C23D10C234B
:101780003360304600F04EF8E3E723685B1B17D464
:101790000B2B03D923601C44256004E06368A2423C
:1017A0000CBF0B605360304600F03CF804F10B00B6
:1017B000231D20F00700C21ACCD01B1AA350C9E782
:1017C00022466468CCE7C41C24F00304A042E3D0A2
:1017D000211A304600F008F80130DDD1CFE700BF14
:1017E000680200106C02001038B5064C0023054654
:1017F00008462360FFF72CFD431C02D1236803B188
:101800002B6038BD70020010034613F8012B002A2C
:10181000FBD1181A01387047014800F009B800BF21
:1018200078020010014800F004B800BF78020010F0
:10183000704770476C656400764170706C696361D5
:1018400074696F6E4D616C6C6F634661696C656441
:10185000486F6F6B28292063616C6C65643B206E58
:101860006F206D6F7265206D656D6F7279004944F0
:101870004C4500FF00400040010000000080004097
:101880000200000000000940030000000040094081
:1018900004000000000102161703041819FFFFFFDF
:1018A000AAAAAAAA41130000411300004113000094
:1018B00041130000411300004113000041130000D8
:1018C00041130000411300004113000041130000C8
:1018D00041130000411300004113000041130000B8
:1018E00041130000411300004113000041130000A8
:1018F0004113000041130000411300004113000098
:101900004113000041130000411300004113000087
:101910004113000041130000411300004113000077
:101920004113000041130000411300004113000067
:101930004113000041130000411300004113000057
:10194000411300004113000000C0004005000000EA
:101950006114000000000000000000000000000012
:1019600000000140060000005514000000000000C7
:101970000000000000000000008009400700000097
:1019800049140000000000000000000000000000FA
:1019900000C00940080000003D14000000000000E5
:1019A00000000000000000000C010010000000001A
:1019B0000000000000000000000000000000000027
:1019C0000000000000000000000000000000000017
:1019D0000000000000000000000000000000000007
:1019E00000000000000000000000000000000000F7
:1019F00000000000000000000000000000000000E7
:0C1A0000000000000000000000000000DA
:040000030000010DEB
:00000001FF
